{
  "_format": "hh-sol-artifact-1",
  "contractName": "VoltToken",
  "sourceName": "contracts/VoltToken.sol",
  "abi": [
    {
      "inputs": [],
      "stateMutability": "nonpayable",
      "type": "constructor"
    },
    {
      "inputs": [
        {
          "internalType": "address",
          "name": "target",
          "type": "address"
        }
      ],
      "name": "AddressEmptyCode",
      "type": "error"
    },
    {
      "inputs": [
        {
          "internalType": "address",
          "name": "implementation",
          "type": "address"
        }
      ],
      "name": "ERC1967InvalidImplementation",
      "type": "error"
    },
    {
      "inputs": [],
      "name": "ERC1967NonPayable",
      "type": "error"
    },
    {
      "inputs": [
        {
          "internalType": "address",
          "name": "spender",
          "type": "address"
        },
        {
          "internalType": "uint256",
          "name": "allowance",
          "type": "uint256"
        },
        {
          "internalType": "uint256",
          "name": "needed",
          "type": "uint256"
        }
      ],
      "name": "ERC20InsufficientAllowance",
      "type": "error"
    },
    {
      "inputs": [
        {
          "internalType": "address",
          "name": "sender",
          "type": "address"
        },
        {
          "internalType": "uint256",
          "name": "balance",
          "type": "uint256"
        },
        {
          "internalType": "uint256",
          "name": "needed",
          "type": "uint256"
        }
      ],
      "name": "ERC20InsufficientBalance",
      "type": "error"
    },
    {
      "inputs": [
        {
          "internalType": "address",
          "name": "approver",
          "type": "address"
        }
      ],
      "name": "ERC20InvalidApprover",
      "type": "error"
    },
    {
      "inputs": [
        {
          "internalType": "address",
          "name": "receiver",
          "type": "address"
        }
      ],
      "name": "ERC20InvalidReceiver",
      "type": "error"
    },
    {
      "inputs": [
        {
          "internalType": "address",
          "name": "sender",
          "type": "address"
        }
      ],
      "name": "ERC20InvalidSender",
      "type": "error"
    },
    {
      "inputs": [
        {
          "internalType": "address",
          "name": "spender",
          "type": "address"
        }
      ],
      "name": "ERC20InvalidSpender",
      "type": "error"
    },
    {
      "inputs": [],
      "name": "FailedCall",
      "type": "error"
    },
    {
      "inputs": [],
      "name": "InvalidInitialization",
      "type": "error"
    },
    {
      "inputs": [],
      "name": "NotInitializing",
      "type": "error"
    },
    {
      "inputs": [
        {
          "internalType": "address",
          "name": "owner",
          "type": "address"
        }
      ],
      "name": "OwnableInvalidOwner",
      "type": "error"
    },
    {
      "inputs": [
        {
          "internalType": "address",
          "name": "account",
          "type": "address"
        }
      ],
      "name": "OwnableUnauthorizedAccount",
      "type": "error"
    },
    {
      "inputs": [],
      "name": "TransfersDisabled",
      "type": "error"
    },
    {
      "inputs": [],
      "name": "UUPSUnauthorizedCallContext",
      "type": "error"
    },
    {
      "inputs": [
        {
          "internalType": "bytes32",
          "name": "slot",
          "type": "bytes32"
        }
      ],
      "name": "UUPSUnsupportedProxiableUUID",
      "type": "error"
    },
    {
      "anonymous": false,
      "inputs": [
        {
          "indexed": true,
          "internalType": "address",
          "name": "owner",
          "type": "address"
        },
        {
          "indexed": true,
          "internalType": "address",
          "name": "spender",
          "type": "address"
        },
        {
          "indexed": false,
          "internalType": "uint256",
          "name": "value",
          "type": "uint256"
        }
      ],
      "name": "Approval",
      "type": "event"
    },
    {
      "anonymous": false,
      "inputs": [
        {
          "indexed": false,
          "internalType": "uint64",
          "name": "version",
          "type": "uint64"
        }
      ],
      "name": "Initialized",
      "type": "event"
    },
    {
      "anonymous": false,
      "inputs": [
        {
          "indexed": true,
          "internalType": "address",
          "name": "previousOwner",
          "type": "address"
        },
        {
          "indexed": true,
          "internalType": "address",
          "name": "newOwner",
          "type": "address"
        }
      ],
      "name": "OwnershipTransferred",
      "type": "event"
    },
    {
      "anonymous": false,
      "inputs": [
        {
          "indexed": true,
          "internalType": "address",
          "name": "platform",
          "type": "address"
        }
      ],
      "name": "PlatformSet",
      "type": "event"
    },
    {
      "anonymous": false,
      "inputs": [
        {
          "indexed": true,
          "internalType": "address",
          "name": "from",
          "type": "address"
        },
        {
          "indexed": true,
          "internalType": "address",
          "name": "to",
          "type": "address"
        },
        {
          "indexed": false,
          "internalType": "uint256",
          "name": "value",
          "type": "uint256"
        }
      ],
      "name": "Transfer",
      "type": "event"
    },
    {
      "anonymous": false,
      "inputs": [
        {
          "indexed": true,
          "internalType": "address",
          "name": "implementation",
          "type": "address"
        }
      ],
      "name": "Upgraded",
      "type": "event"
    },
    {
      "inputs": [],
      "name": "UPGRADE_INTERFACE_VERSION",
      "outputs": [
        {
          "internalType": "string",
          "name": "",
          "type": "string"
        }
      ],
      "stateMutability": "view",
      "type": "function"
    },
    {
      "inputs": [
        {
          "internalType": "address",
          "name": "owner",
          "type": "address"
        },
        {
          "internalType": "address",
          "name": "spender",
          "type": "address"
        }
      ],
      "name": "allowance",
      "outputs": [
        {
          "internalType": "uint256",
          "name": "",
          "type": "uint256"
        }
      ],
      "stateMutability": "view",
      "type": "function"
    },
    {
      "inputs": [
        {
          "internalType": "address",
          "name": "spender",
          "type": "address"
        },
        {
          "internalType": "uint256",
          "name": "value",
          "type": "uint256"
        }
      ],
      "name": "approve",
      "outputs": [
        {
          "internalType": "bool",
          "name": "",
          "type": "bool"
        }
      ],
      "stateMutability": "nonpayable",
      "type": "function"
    },
    {
      "inputs": [
        {
          "internalType": "address",
          "name": "account",
          "type": "address"
        }
      ],
      "name": "balanceOf",
      "outputs": [
        {
          "internalType": "uint256",
          "name": "",
          "type": "uint256"
        }
      ],
      "stateMutability": "view",
      "type": "function"
    },
    {
      "inputs": [
        {
          "internalType": "address",
          "name": "from",
          "type": "address"
        },
        {
          "internalType": "uint256",
          "name": "amount",
          "type": "uint256"
        }
      ],
      "name": "burn",
      "outputs": [],
      "stateMutability": "nonpayable",
      "type": "function"
    },
    {
      "inputs": [],
      "name": "decimals",
      "outputs": [
        {
          "internalType": "uint8",
          "name": "",
          "type": "uint8"
        }
      ],
      "stateMutability": "view",
      "type": "function"
    },
    {
      "inputs": [
        {
          "internalType": "address",
          "name": "initialOwner",
          "type": "address"
        }
      ],
      "name": "initialize",
      "outputs": [],
      "stateMutability": "nonpayable",
      "type": "function"
    },
    {
      "inputs": [
        {
          "internalType": "address",
          "name": "to",
          "type": "address"
        },
        {
          "internalType": "uint256",
          "name": "amount",
          "type": "uint256"
        }
      ],
      "name": "mint",
      "outputs": [],
      "stateMutability": "nonpayable",
      "type": "function"
    },
    {
      "inputs": [],
      "name": "name",
      "outputs": [
        {
          "internalType": "string",
          "name": "",
          "type": "string"
        }
      ],
      "stateMutability": "view",
      "type": "function"
    },
    {
      "inputs": [],
      "name": "owner",
      "outputs": [
        {
          "internalType": "address",
          "name": "",
          "type": "address"
        }
      ],
      "stateMutability": "view",
      "type": "function"
    },
    {
      "inputs": [],
      "name": "platform",
      "outputs": [
        {
          "internalType": "address",
          "name": "",
          "type": "address"
        }
      ],
      "stateMutability": "view",
      "type": "function"
    },
    {
      "inputs": [],
      "name": "proxiableUUID",
      "outputs": [
        {
          "internalType": "bytes32",
          "name": "",
          "type": "bytes32"
        }
      ],
      "stateMutability": "view",
      "type": "function"
    },
    {
      "inputs": [],
      "name": "renounceOwnership",
      "outputs": [],
      "stateMutability": "nonpayable",
      "type": "function"
    },
    {
      "inputs": [
        {
          "internalType": "address",
          "name": "_platform",
          "type": "address"
        }
      ],
      "name": "setPlatform",
      "outputs": [],
      "stateMutability": "nonpayable",
      "type": "function"
    },
    {
      "inputs": [],
      "name": "symbol",
      "outputs": [
        {
          "internalType": "string",
          "name": "",
          "type": "string"
        }
      ],
      "stateMutability": "view",
      "type": "function"
    },
    {
      "inputs": [],
      "name": "totalSupply",
      "outputs": [
        {
          "internalType": "uint256",
          "name": "",
          "type": "uint256"
        }
      ],
      "stateMutability": "view",
      "type": "function"
    },
    {
      "inputs": [
        {
          "internalType": "address",
          "name": "to",
          "type": "address"
        },
        {
          "internalType": "uint256",
          "name": "value",
          "type": "uint256"
        }
      ],
      "name": "transfer",
      "outputs": [
        {
          "internalType": "bool",
          "name": "",
          "type": "bool"
        }
      ],
      "stateMutability": "nonpayable",
      "type": "function"
    },
    {
      "inputs": [
        {
          "internalType": "address",
          "name": "from",
          "type": "address"
        },
        {
          "internalType": "address",
          "name": "to",
          "type": "address"
        },
        {
          "internalType": "uint256",
          "name": "value",
          "type": "uint256"
        }
      ],
      "name": "transferFrom",
      "outputs": [
        {
          "internalType": "bool",
          "name": "",
          "type": "bool"
        }
      ],
      "stateMutability": "nonpayable",
      "type": "function"
    },
    {
      "inputs": [
        {
          "internalType": "address",
          "name": "newOwner",
          "type": "address"
        }
      ],
      "name": "transferOwnership",
      "outputs": [],
      "stateMutability": "nonpayable",
      "type": "function"
    },
    {
      "inputs": [
        {
          "internalType": "address",
          "name": "newImplementation",
          "type": "address"
        },
        {
          "internalType": "bytes",
          "name": "data",
          "type": "bytes"
        }
      ],
      "name": "upgradeToAndCall",
      "outputs": [],
      "stateMutability": "payable",
      "type": "function"
    }
  ],
  "bytecode": "0x60a080604052346100cc57306080527ff0c57e16840df040f15088dc2f81fe391c3923bec73e23a9662efc9c229c6a009081549060ff8260401c166100bd57506001600160401b036002600160401b031982821601610078575b6040516114ff90816100d28239608051818181610a960152610b750152f35b6001600160401b031990911681179091556040519081527fc7f505b2f371ae2175ee4913f4499e1f2633a7b5936321eed1cdaeb6115181d290602090a1388080610059565b63f92ee8a960e01b8152600490fd5b600080fdfe60806040908082526004918236101561001757600080fd5b600092833560e01c92836306fdde03146110c357508263095ea7b31461101957826318160ddd14610fdb57826323b872dd14610eca578263313ce56714610eae57826340c10f1914610d8c5782634bde38c814610d645782634f1ef28614610afa57826352d1902d14610a815782636945c5ea146109e557826370a082311461098e578263715018a6146109245782638da5cb5b146108ee57826395d89b41146107ee5782639dc29fac1461069d578263a9059cbb14610636578263ad3cb1cc146105f5578263c4d66de81461017d57508163dd62ed3e14610132575063f2fde38b1461010357600080fd5b3461012f57602036600319011261012f5761012c61011f6111d0565b6101276113cc565b611358565b80f35b80fd5b905034610179578060031936011261017957806020926101506111d0565b61016161015b6111eb565b9161131f565b6001600160a01b039091168252845220549051908152f35b5080fd5b909150346105f15760203660031901126105f1576101996111d0565b7ff0c57e16840df040f15088dc2f81fe391c3923bec73e23a9662efc9c229c6a009182549160ff83861c16159167ffffffffffffffff808516948515806105ea575b600180971490816105e0575b1590816105d7575b506105c75767ffffffffffffffff19811686178755846105a8575b5086519161021783611201565b600a8352692b37b63a102a37b5b2b760b11b602084015287519261023a84611201565b818452631593d31560e21b6020850152610252611405565b61025a611405565b805183811161059557807f52c63247e1f47db19d5ce0460030c497f067ca4cebf71ba98eeadabe20bace03926102908454611271565b601f8111610523575b506020908d601f84116001146104a6579261049b575b5050600019600383901b1c191690881b1790555b825191821161048857507f52c63247e1f47db19d5ce0460030c497f067ca4cebf71ba98eeadabe20bace04916102f98354611271565b601f8111610423575b50602090601f83116001146103a057610344949392918a9183610395575b5050600019600383901b1c191690861b1790555b61033c611405565b610127611405565b61034c611405565b610354578380f35b7fc7f505b2f371ae2175ee4913f4499e1f2633a7b5936321eed1cdaeb6115181d29260209268ff000000000000000019815416905551908152a13880808380f35b015190503880610320565b838a5293929186917f46a2803e59a4de4e7a4c574b1243f25977ac4c77d5a1a4a609b5394cebb4a2aa90601f1983168c5b81811061040b5750968361034498106103f2575b505050811b019055610334565b015160001960f88460031b161c191690553880806103e5565b8289015184558a9590930192602092830192016103d1565b838a527f46a2803e59a4de4e7a4c574b1243f25977ac4c77d5a1a4a609b5394cebb4a2aa601f840160051c8101916020851061047e575b601f0160051c019087905b828110610473575050610302565b8b8155018790610465565b909150819061045a565b634e487b7160e01b895260419052602488fd5b0151905038806102af565b91908b9450601f1984168684527f2ae08a8e29253f69ac5d979a101956ab8f8d9d7ded63fa7a83b16fc47648eab0935b81811061050b575084116104f2575b505050811b0190556102c3565b015160001960f88460031b161c191690553880806104e5565b8284015185558d9690940193602093840193016104d6565b909150838d527f2ae08a8e29253f69ac5d979a101956ab8f8d9d7ded63fa7a83b16fc47648eab0601f840160051c8101916020851061058b575b8e85949392601f8e930160051c0192905b83821061057d57505050610299565b81558594508c91018f61056e565b909150819061055d565b634e487b7160e01b8b526041835260248bfd5b68ffffffffffffffffff1916680100000000000000011786553861020a565b875163f92ee8a960e01b81528390fd5b905015386101ef565b303b1591506101e7565b50846101db565b8280fd5b83823461017957816003193601126101795780516106329161061682611201565b60058252640352e302e360dc1b60208301525191829182611187565b0390f35b90833461012f578160031936011261012f576106506111d0565b3315610687576001600160a01b031615610672575051638574adcf60e01b8152fd5b905163ec442f0560e01b815291820152602490fd5b509051634b637e8f60e11b815291820152602490fd5b8390346101795782600319360112610179576106b76111d0565b6000805160206114aa833981519152549091602435916001600160a01b03908116331480156107e2575b6106ea906112ab565b6106f58315156112e8565b83169283156107cb578385527f52c63247e1f47db19d5ce0460030c497f067ca4cebf71ba98eeadabe20bace0090816020528686205492848410610797575050918495816020937fddf252ad1be2c89b69c2b068fc378daa952ba7f163c4a11628f55a4df523b3ef95878952855203818720557f52c63247e1f47db19d5ce0460030c497f067ca4cebf71ba98eeadabe20bace0282815403905551908152a380f35b875163391434e360e21b81526001600160a01b03909216908201908152602081018490526040810185905281906060010390fd5b8551634b637e8f60e11b8152808301869052602490fd5b508454811633146106e1565b50823461012f578060031936011261012f57815190807f52c63247e1f47db19d5ce0460030c497f067ca4cebf71ba98eeadabe20bace04805461083081611271565b808652926020926001928084169081156108bf5750600114610868575b610632878961085e828a0383611233565b5191829182611187565b815293507f46a2803e59a4de4e7a4c574b1243f25977ac4c77d5a1a4a609b5394cebb4a2aa5b8385106108ac5750505050810160200161085e82610632868061084d565b805486860184015293820193810161088e565b9150506106329795508693506020925061085e94915060ff191682840152151560051b8201019294868061084d565b8382346101795781600319360112610179576000805160206114aa8339815191525490516001600160a01b039091168152602090f35b833461012f578060031936011261012f5761093d6113cc565b6000805160206114aa83398151915280546001600160a01b0319811690915581906001600160a01b03167f8be0079c531659141344cd1fd0a4f28419497f9722a3daafe3b4186f6b6457e08280a380f35b8382346101795760203660031901126101795760209181906001600160a01b036109b66111d0565b1681527f52c63247e1f47db19d5ce0460030c497f067ca4cebf71ba98eeadabe20bace00845220549051908152f35b909150346105f15760203660031901126105f157610a016111d0565b610a096113cc565b6001600160a01b0316918215610a5257505081546001600160a01b031916811782557f9b3f36a627b98abc41b246eee9c0fb8a04cac16add47f8b2eb3a69ab16b3b8cd8280a280f35b906020606492519162461bcd60e51b835282015260096024820152683d32b9379030b2323960b91b6044820152fd5b90833461012f578060031936011261012f57507f00000000000000000000000000000000000000000000000000000000000000006001600160a01b03163003610aed57602090517f360894a13ba1a3210667c828492db98dca3e2076cc3735a920a3ca505d382bbc8152f35b5163703e46dd60e11b8152fd5b9150806003193601126105f157610b0f6111d0565b90602493843567ffffffffffffffff811161017957366023820112156101795780850135610b3c81611255565b94610b4985519687611233565b81865260209182870193368a8383010111610d60578186928b8693018737880101526001600160a01b037f00000000000000000000000000000000000000000000000000000000000000008116308114908115610d32575b50610d2257610bae6113cc565b81169585516352d1902d60e01b815283818a818b5afa869181610cef575b50610be8575050505050505191634c9c8ce360e01b8352820152fd5b9088888894938c7f360894a13ba1a3210667c828492db98dca3e2076cc3735a920a3ca505d382bbc91828103610cda5750853b15610cc6575080546001600160a01b031916821790558451889392917fbc7cd75a20ee27fd9adebab32041f755214dbc6bffa90cc0225b39da2e5c2d3b8580a2825115610ca8575050610c9a9582915190845af4913d15610c9e573d610c8c610c8382611255565b92519283611233565b81528581943d92013e611446565b5080f35b5060609250611446565b955095505050505034610cba57505080f35b63b398979f60e01b8152fd5b8651634c9c8ce360e01b8152808501849052fd5b8751632a87526960e21b815280860191909152fd5b9091508481813d8311610d1b575b610d078183611233565b81010312610d1757519038610bcc565b8680fd5b503d610cfd565b855163703e46dd60e11b81528890fd5b9050817f360894a13ba1a3210667c828492db98dca3e2076cc3735a920a3ca505d382bbc5416141538610ba1565b8580fd5b838234610179578160031936011261017957905490516001600160a01b039091168152602090f35b9150346105f157806003193601126105f157610da66111d0565b6000805160206114aa8339815191525460243592916001600160a01b0391821633148015610ea2575b610dd8906112ab565b610de38415156112e8565b16928315610e8d577f52c63247e1f47db19d5ce0460030c497f067ca4cebf71ba98eeadabe20bace02805491848301809311610e7a5750927fddf252ad1be2c89b69c2b068fc378daa952ba7f163c4a11628f55a4df523b3ef926020928795558585527f52c63247e1f47db19d5ce0460030c497f067ca4cebf71ba98eeadabe20bace00835280852082815401905551908152a380f35b634e487b7160e01b875260119052602486fd5b84602492519163ec442f0560e01b8352820152fd5b50855482163314610dcf565b8382346101795781600319360112610179576020905160128152f35b90833461012f57606036600319011261012f57610ee56111d0565b610eed6111eb565b604435610ef98361131f565b33855260205284842054906000198210610f4c575b506001600160a01b03928316159050610f35571615610672575051638574adcf60e01b8152fd5b8351634b637e8f60e11b8152808601849052602490fd5b808210610fae5750506001600160a01b03821615610f97573315610f8057610f738261131f565b3384526020528580610f0e565b8351634a1406b160e11b8152808601849052602490fd5b835163e602df0560e01b8152808601849052602490fd5b8551637dc7a0d960e11b815233818901908152602081019390935260408301919091529081906060010390fd5b8382346101795781600319360112610179576020907f52c63247e1f47db19d5ce0460030c497f067ca4cebf71ba98eeadabe20bace02549051908152f35b909150346105f157816003193601126105f1576110346111d0565b6024359033156110ac576001600160a01b03169182156110955750808360209561105d3361131f565b8582528752205582519081527f8c5be1e5ebec7d5bd14f71427d1e84f3dd0314c0f7b2291e5b200ac8c7c3b925843392a35160018152f35b8351634a1406b160e11b8152908101859052602490fd5b835163e602df0560e01b8152808401869052602490fd5b9050833461012f578060031936011261012f57807f52c63247e1f47db19d5ce0460030c497f067ca4cebf71ba98eeadabe20bace03805461110381611271565b808652926020926001928084169081156108bf575060011461113057610632878961085e828a0383611233565b815293507f2ae08a8e29253f69ac5d979a101956ab8f8d9d7ded63fa7a83b16fc47648eab05b8385106111745750505050810160200161085e82610632868061084d565b8054868601840152938201938101611156565b6020808252825181830181905290939260005b8281106111bc57505060409293506000838284010152601f8019910116010190565b81810186015184820160400152850161119a565b600435906001600160a01b03821682036111e657565b600080fd5b602435906001600160a01b03821682036111e657565b6040810190811067ffffffffffffffff82111761121d57604052565b634e487b7160e01b600052604160045260246000fd5b90601f8019910116810190811067ffffffffffffffff82111761121d57604052565b67ffffffffffffffff811161121d57601f01601f191660200190565b90600182811c921680156112a1575b602083101461128b57565b634e487b7160e01b600052602260045260246000fd5b91607f1691611280565b156112b257565b60405162461bcd60e51b815260206004820152600e60248201526d139bdd08185d5d1a1bdc9a5e995960921b6044820152606490fd5b156112ef57565b60405162461bcd60e51b81526020600482015260086024820152670416d6f756e743d360c41b6044820152606490fd5b6001600160a01b031660009081527f52c63247e1f47db19d5ce0460030c497f067ca4cebf71ba98eeadabe20bace016020526040902090565b6001600160a01b039081169081156113b3576000805160206114aa83398151915280546001600160a01b031981168417909155167f8be0079c531659141344cd1fd0a4f28419497f9722a3daafe3b4186f6b6457e0600080a3565b604051631e4fbdf760e01b815260006004820152602490fd5b6000805160206114aa833981519152546001600160a01b031633036113ed57565b60405163118cdaa760e01b8152336004820152602490fd5b60ff7ff0c57e16840df040f15088dc2f81fe391c3923bec73e23a9662efc9c229c6a005460401c161561143457565b604051631afcd79f60e31b8152600490fd5b9061146d575080511561145b57602081519101fd5b60405163d6bda27560e01b8152600490fd5b815115806114a0575b61147e575090565b604051639996b31560e01b81526001600160a01b039091166004820152602490fd5b50803b1561147656fe9016d09d72d40fdae2fd8ceac6b6234c7706214fd39c1cd1e609a0528c199300a264697066735822122076fa539cb99f1a064deffe98d6f2412159b8097020a7218dd4f875b1545beded64736f6c63430008180033",
  "linkReferences": {},
  "deployedLinkReferences": {}
}