{"contracts/VoltToken.sol":{"VoltToken":{"abi":[{"inputs":[],"stateMutability":"nonpayable","type":"constructor"},{"inputs":[{"internalType":"address","name":"target","type":"address"}],"name":"AddressEmptyCode","type":"error"},{"inputs":[{"internalType":"address","name":"implementation","type":"address"}],"name":"ERC1967InvalidImplementation","type":"error"},{"inputs":[],"name":"ERC1967NonPayable","type":"error"},{"inputs":[{"internalType":"address","name":"spender","type":"address"},{"internalType":"uint256","name":"allowance","type":"uint256"},{"internalType":"uint256","name":"needed","type":"uint256"}],"name":"ERC20InsufficientAllowance","type":"error"},{"inputs":[{"internalType":"address","name":"sender","type":"address"},{"internalType":"uint256","name":"balance","type":"uint256"},{"internalType":"uint256","name":"needed","type":"uint256"}],"name":"ERC20InsufficientBalance","type":"error"},{"inputs":[{"internalType":"address","name":"approver","type":"address"}],"name":"ERC20InvalidApprover","type":"error"},{"inputs":[{"internalType":"address","name":"receiver","type":"address"}],"name":"ERC20InvalidReceiver","type":"error"},{"inputs":[{"internalType":"address","name":"sender","type":"address"}],"name":"ERC20InvalidSender","type":"error"},{"inputs":[{"internalType":"address","name":"spender","type":"address"}],"name":"ERC20InvalidSpender","type":"error"},{"inputs":[],"name":"FailedCall","type":"error"},{"inputs":[],"name":"InvalidInitialization","type":"error"},{"inputs":[],"name":"NotInitializing","type":"error"},{"inputs":[{"internalType":"address","name":"owner","type":"address"}],"name":"OwnableInvalidOwner","type":"error"},{"inputs":[{"internalType":"address","name":"account","type":"address"}],"name":"OwnableUnauthorizedAccount","type":"error"},{"inputs":[],"name":"TransfersDisabled","type":"error"},{"inputs":[],"name":"UUPSUnauthorizedCallContext","type":"error"},{"inputs":[{"internalType":"bytes32","name":"slot","type":"bytes32"}],"name":"UUPSUnsupportedProxiableUUID","type":"error"},{"anonymous":false,"inputs":[{"indexed":true,"internalType":"address","name":"owner","type":"address"},{"indexed":true,"internalType":"address","name":"spender","type":"address"},{"indexed":false,"internalType":"uint256","name":"value","type":"uint256"}],"name":"Approval","type":"event"},{"anonymous":false,"inputs":[{"indexed":false,"internalType":"uint64","name":"version","type":"uint64"}],"name":"Initialized","type":"event"},{"anonymous":false,"inputs":[{"indexed":true,"internalType":"address","name":"previousOwner","type":"address"},{"indexed":true,"internalType":"address","name":"newOwner","type":"address"}],"name":"OwnershipTransferred","type":"event"},{"anonymous":false,"inputs":[{"indexed":true,"internalType":"address","name":"platform","type":"address"}],"name":"PlatformSet","type":"event"},{"anonymous":false,"inputs":[{"indexed":true,"internalType":"address","name":"from","type":"address"},{"indexed":true,"internalType":"address","name":"to","type":"address"},{"indexed":false,"internalType":"uint256","name":"value","type":"uint256"}],"name":"Transfer","type":"event"},{"anonymous":false,"inputs":[{"indexed":true,"internalType":"address","name":"implementation","type":"address"}],"name":"Upgraded","type":"event"},{"inputs":[],"name":"UPGRADE_INTERFACE_VERSION","outputs":[{"internalType":"string","name":"","type":"string"}],"stateMutability":"view","type":"function"},{"inputs":[{"internalType":"address","name":"owner","type":"address"},{"internalType":"address","name":"spender","type":"address"}],"name":"allowance","outputs":[{"internalType":"uint256","name":"","type":"uint256"}],"stateMutability":"view","type":"function"},{"inputs":[{"internalType":"address","name":"spender","type":"address"},{"internalType":"uint256","name":"value","type":"uint256"}],"name":"approve","outputs":[{"internalType":"bool","name":"","type":"bool"}],"stateMutability":"nonpayable","type":"function"},{"inputs":[{"internalType":"address","name":"account","type":"address"}],"name":"balanceOf","outputs":[{"internalType":"uint256","name":"","type":"uint256"}],"stateMutability":"view","type":"function"},{"inputs":[{"internalType":"address","name":"from","type":"address"},{"internalType":"uint256","name":"amount","type":"uint256"}],"name":"burn","outputs":[],"stateMutability":"nonpayable","type":"function"},{"inputs":[],"name":"decimals","outputs":[{"internalType":"uint8","name":"","type":"uint8"}],"stateMutability":"view","type":"function"},{"inputs":[{"internalType":"address","name":"initialOwner","type":"address"}],"name":"initialize","outputs":[],"stateMutability":"nonpayable","type":"function"},{"inputs":[{"internalType":"address","name":"to","type":"address"},{"internalType":"uint256","name":"amount","type":"uint256"}],"name":"mint","outputs":[],"stateMutability":"nonpayable","type":"function"},{"inputs":[],"name":"name","outputs":[{"internalType":"string","name":"","type":"string"}],"stateMutability":"view","type":"function"},{"inputs":[],"name":"owner","outputs":[{"internalType":"address","name":"","type":"address"}],"stateMutability":"view","type":"function"},{"inputs":[],"name":"platform","outputs":[{"internalType":"address","name":"","type":"address"}],"stateMutability":"view","type":"function"},{"inputs":[],"name":"proxiableUUID","outputs":[{"internalType":"bytes32","name":"","type":"bytes32"}],"stateMutability":"view","type":"function"},{"inputs":[],"name":"renounceOwnership","outputs":[],"stateMutability":"nonpayable","type":"function"},{"inputs":[{"internalType":"address","name":"_platform","type":"address"}],"name":"setPlatform","outputs":[],"stateMutability":"nonpayable","type":"function"},{"inputs":[],"name":"symbol","outputs":[{"internalType":"string","name":"","type":"string"}],"stateMutability":"view","type":"function"},{"inputs":[],"name":"totalSupply","outputs":[{"internalType":"uint256","name":"","type":"uint256"}],"stateMutability":"view","type":"function"},{"inputs":[{"internalType":"address","name":"to","type":"address"},{"internalType":"uint256","name":"value","type":"uint256"}],"name":"transfer","outputs":[{"internalType":"bool","name":"","type":"bool"}],"stateMutability":"nonpayable","type":"function"},{"inputs":[{"internalType":"address","name":"from","type":"address"},{"internalType":"address","name":"to","type":"address"},{"internalType":"uint256","name":"value","type":"uint256"}],"name":"transferFrom","outputs":[{"internalType":"bool","name":"","type":"bool"}],"stateMutability":"nonpayable","type":"function"},{"inputs":[{"internalType":"address","name":"newOwner","type":"address"}],"name":"transferOwnership","outputs":[],"stateMutability":"nonpayable","type":"function"},{"inputs":[{"internalType":"address","name":"newImplementation","type":"address"},{"internalType":"bytes","name":"data","type":"bytes"}],"name":"upgradeToAndCall","outputs":[],"stateMutability":"payable","type":"function"}],"evm":{"bytecode":{"linkReferences":{},"object":"60a080604052346100cc57306080527ff0c57e16840df040f15088dc2f81fe391c3923bec73e23a9662efc9c229c6a009081549060ff8260401c166100bd57506001600160401b036002600160401b031982821601610078575b6040516114ff90816100d28239608051818181610a960152610b750152f35b6001600160401b031990911681179091556040519081527fc7f505b2f371ae2175ee4913f4499e1f2633a7b5936321eed1cdaeb6115181d290602090a1388080610059565b63f92ee8a960e01b8152600490fd5b600080fdfe60806040908082526004918236101561001757600080fd5b600092833560e01c92836306fdde03146110c357508263095ea7b31461101957826318160ddd14610fdb57826323b872dd14610eca578263313ce56714610eae57826340c10f1914610d8c5782634bde38c814610d645782634f1ef28614610afa57826352d1902d14610a815782636945c5ea146109e557826370a082311461098e578263715018a6146109245782638da5cb5b146108ee57826395d89b41146107ee5782639dc29fac1461069d578263a9059cbb14610636578263ad3cb1cc146105f5578263c4d66de81461017d57508163dd62ed3e14610132575063f2fde38b1461010357600080fd5b3461012f57602036600319011261012f5761012c61011f6111d0565b6101276113cc565b611358565b80f35b80fd5b905034610179578060031936011261017957806020926101506111d0565b61016161015b6111eb565b9161131f565b6001600160a01b039091168252845220549051908152f35b5080fd5b909150346105f15760203660031901126105f1576101996111d0565b7ff0c57e16840df040f15088dc2f81fe391c3923bec73e23a9662efc9c229c6a009182549160ff83861c16159167ffffffffffffffff808516948515806105ea575b600180971490816105e0575b1590816105d7575b506105c75767ffffffffffffffff19811686178755846105a8575b5086519161021783611201565b600a8352692b37b63a102a37b5b2b760b11b602084015287519261023a84611201565b818452631593d31560e21b6020850152610252611405565b61025a611405565b805183811161059557807f52c63247e1f47db19d5ce0460030c497f067ca4cebf71ba98eeadabe20bace03926102908454611271565b601f8111610523575b506020908d601f84116001146104a6579261049b575b5050600019600383901b1c191690881b1790555b825191821161048857507f52c63247e1f47db19d5ce0460030c497f067ca4cebf71ba98eeadabe20bace04916102f98354611271565b601f8111610423575b50602090601f83116001146103a057610344949392918a9183610395575b5050600019600383901b1c191690861b1790555b61033c611405565b610127611405565b61034c611405565b610354578380f35b7fc7f505b2f371ae2175ee4913f4499e1f2633a7b5936321eed1cdaeb6115181d29260209268ff000000000000000019815416905551908152a13880808380f35b015190503880610320565b838a5293929186917f46a2803e59a4de4e7a4c574b1243f25977ac4c77d5a1a4a609b5394cebb4a2aa90601f1983168c5b81811061040b5750968361034498106103f2575b505050811b019055610334565b015160001960f88460031b161c191690553880806103e5565b8289015184558a9590930192602092830192016103d1565b838a527f46a2803e59a4de4e7a4c574b1243f25977ac4c77d5a1a4a609b5394cebb4a2aa601f840160051c8101916020851061047e575b601f0160051c019087905b828110610473575050610302565b8b8155018790610465565b909150819061045a565b634e487b7160e01b895260419052602488fd5b0151905038806102af565b91908b9450601f1984168684527f2ae08a8e29253f69ac5d979a101956ab8f8d9d7ded63fa7a83b16fc47648eab0935b81811061050b575084116104f2575b505050811b0190556102c3565b015160001960f88460031b161c191690553880806104e5565b8284015185558d9690940193602093840193016104d6565b909150838d527f2ae08a8e29253f69ac5d979a101956ab8f8d9d7ded63fa7a83b16fc47648eab0601f840160051c8101916020851061058b575b8e85949392601f8e930160051c0192905b83821061057d57505050610299565b81558594508c91018f61056e565b909150819061055d565b634e487b7160e01b8b526041835260248bfd5b68ffffffffffffffffff1916680100000000000000011786553861020a565b875163f92ee8a960e01b81528390fd5b905015386101ef565b303b1591506101e7565b50846101db565b8280fd5b83823461017957816003193601126101795780516106329161061682611201565b60058252640352e302e360dc1b60208301525191829182611187565b0390f35b90833461012f578160031936011261012f576106506111d0565b3315610687576001600160a01b031615610672575051638574adcf60e01b8152fd5b905163ec442f0560e01b815291820152602490fd5b509051634b637e8f60e11b815291820152602490fd5b8390346101795782600319360112610179576106b76111d0565b6000805160206114aa833981519152549091602435916001600160a01b03908116331480156107e2575b6106ea906112ab565b6106f58315156112e8565b83169283156107cb578385527f52c63247e1f47db19d5ce0460030c497f067ca4cebf71ba98eeadabe20bace0090816020528686205492848410610797575050918495816020937fddf252ad1be2c89b69c2b068fc378daa952ba7f163c4a11628f55a4df523b3ef95878952855203818720557f52c63247e1f47db19d5ce0460030c497f067ca4cebf71ba98eeadabe20bace0282815403905551908152a380f35b875163391434e360e21b81526001600160a01b03909216908201908152602081018490526040810185905281906060010390fd5b8551634b637e8f60e11b8152808301869052602490fd5b508454811633146106e1565b50823461012f578060031936011261012f57815190807f52c63247e1f47db19d5ce0460030c497f067ca4cebf71ba98eeadabe20bace04805461083081611271565b808652926020926001928084169081156108bf5750600114610868575b610632878961085e828a0383611233565b5191829182611187565b815293507f46a2803e59a4de4e7a4c574b1243f25977ac4c77d5a1a4a609b5394cebb4a2aa5b8385106108ac5750505050810160200161085e82610632868061084d565b805486860184015293820193810161088e565b9150506106329795508693506020925061085e94915060ff191682840152151560051b8201019294868061084d565b8382346101795781600319360112610179576000805160206114aa8339815191525490516001600160a01b039091168152602090f35b833461012f578060031936011261012f5761093d6113cc565b6000805160206114aa83398151915280546001600160a01b0319811690915581906001600160a01b03167f8be0079c531659141344cd1fd0a4f28419497f9722a3daafe3b4186f6b6457e08280a380f35b8382346101795760203660031901126101795760209181906001600160a01b036109b66111d0565b1681527f52c63247e1f47db19d5ce0460030c497f067ca4cebf71ba98eeadabe20bace00845220549051908152f35b909150346105f15760203660031901126105f157610a016111d0565b610a096113cc565b6001600160a01b0316918215610a5257505081546001600160a01b031916811782557f9b3f36a627b98abc41b246eee9c0fb8a04cac16add47f8b2eb3a69ab16b3b8cd8280a280f35b906020606492519162461bcd60e51b835282015260096024820152683d32b9379030b2323960b91b6044820152fd5b90833461012f578060031936011261012f57507f00000000000000000000000000000000000000000000000000000000000000006001600160a01b03163003610aed57602090517f360894a13ba1a3210667c828492db98dca3e2076cc3735a920a3ca505d382bbc8152f35b5163703e46dd60e11b8152fd5b9150806003193601126105f157610b0f6111d0565b90602493843567ffffffffffffffff811161017957366023820112156101795780850135610b3c81611255565b94610b4985519687611233565b81865260209182870193368a8383010111610d60578186928b8693018737880101526001600160a01b037f00000000000000000000000000000000000000000000000000000000000000008116308114908115610d32575b50610d2257610bae6113cc565b81169585516352d1902d60e01b815283818a818b5afa869181610cef575b50610be8575050505050505191634c9c8ce360e01b8352820152fd5b9088888894938c7f360894a13ba1a3210667c828492db98dca3e2076cc3735a920a3ca505d382bbc91828103610cda5750853b15610cc6575080546001600160a01b031916821790558451889392917fbc7cd75a20ee27fd9adebab32041f755214dbc6bffa90cc0225b39da2e5c2d3b8580a2825115610ca8575050610c9a9582915190845af4913d15610c9e573d610c8c610c8382611255565b92519283611233565b81528581943d92013e611446565b5080f35b5060609250611446565b955095505050505034610cba57505080f35b63b398979f60e01b8152fd5b8651634c9c8ce360e01b8152808501849052fd5b8751632a87526960e21b815280860191909152fd5b9091508481813d8311610d1b575b610d078183611233565b81010312610d1757519038610bcc565b8680fd5b503d610cfd565b855163703e46dd60e11b81528890fd5b9050817f360894a13ba1a3210667c828492db98dca3e2076cc3735a920a3ca505d382bbc5416141538610ba1565b8580fd5b838234610179578160031936011261017957905490516001600160a01b039091168152602090f35b9150346105f157806003193601126105f157610da66111d0565b6000805160206114aa8339815191525460243592916001600160a01b0391821633148015610ea2575b610dd8906112ab565b610de38415156112e8565b16928315610e8d577f52c63247e1f47db19d5ce0460030c497f067ca4cebf71ba98eeadabe20bace02805491848301809311610e7a5750927fddf252ad1be2c89b69c2b068fc378daa952ba7f163c4a11628f55a4df523b3ef926020928795558585527f52c63247e1f47db19d5ce0460030c497f067ca4cebf71ba98eeadabe20bace00835280852082815401905551908152a380f35b634e487b7160e01b875260119052602486fd5b84602492519163ec442f0560e01b8352820152fd5b50855482163314610dcf565b8382346101795781600319360112610179576020905160128152f35b90833461012f57606036600319011261012f57610ee56111d0565b610eed6111eb565b604435610ef98361131f565b33855260205284842054906000198210610f4c575b506001600160a01b03928316159050610f35571615610672575051638574adcf60e01b8152fd5b8351634b637e8f60e11b8152808601849052602490fd5b808210610fae5750506001600160a01b03821615610f97573315610f8057610f738261131f565b3384526020528580610f0e565b8351634a1406b160e11b8152808601849052602490fd5b835163e602df0560e01b8152808601849052602490fd5b8551637dc7a0d960e11b815233818901908152602081019390935260408301919091529081906060010390fd5b8382346101795781600319360112610179576020907f52c63247e1f47db19d5ce0460030c497f067ca4cebf71ba98eeadabe20bace02549051908152f35b909150346105f157816003193601126105f1576110346111d0565b6024359033156110ac576001600160a01b03169182156110955750808360209561105d3361131f565b8582528752205582519081527f8c5be1e5ebec7d5bd14f71427d1e84f3dd0314c0f7b2291e5b200ac8c7c3b925843392a35160018152f35b8351634a1406b160e11b8152908101859052602490fd5b835163e602df0560e01b8152808401869052602490fd5b9050833461012f578060031936011261012f57807f52c63247e1f47db19d5ce0460030c497f067ca4cebf71ba98eeadabe20bace03805461110381611271565b808652926020926001928084169081156108bf575060011461113057610632878961085e828a0383611233565b815293507f2ae08a8e29253f69ac5d979a101956ab8f8d9d7ded63fa7a83b16fc47648eab05b8385106111745750505050810160200161085e82610632868061084d565b8054868601840152938201938101611156565b6020808252825181830181905290939260005b8281106111bc57505060409293506000838284010152601f8019910116010190565b81810186015184820160400152850161119a565b600435906001600160a01b03821682036111e657565b600080fd5b602435906001600160a01b03821682036111e657565b6040810190811067ffffffffffffffff82111761121d57604052565b634e487b7160e01b600052604160045260246000fd5b90601f8019910116810190811067ffffffffffffffff82111761121d57604052565b67ffffffffffffffff811161121d57601f01601f191660200190565b90600182811c921680156112a1575b602083101461128b57565b634e487b7160e01b600052602260045260246000fd5b91607f1691611280565b156112b257565b60405162461bcd60e51b815260206004820152600e60248201526d139bdd08185d5d1a1bdc9a5e995960921b6044820152606490fd5b156112ef57565b60405162461bcd60e51b81526020600482015260086024820152670416d6f756e743d360c41b6044820152606490fd5b6001600160a01b031660009081527f52c63247e1f47db19d5ce0460030c497f067ca4cebf71ba98eeadabe20bace016020526040902090565b6001600160a01b039081169081156113b3576000805160206114aa83398151915280546001600160a01b031981168417909155167f8be0079c531659141344cd1fd0a4f28419497f9722a3daafe3b4186f6b6457e0600080a3565b604051631e4fbdf760e01b815260006004820152602490fd5b6000805160206114aa833981519152546001600160a01b031633036113ed57565b60405163118cdaa760e01b8152336004820152602490fd5b60ff7ff0c57e16840df040f15088dc2f81fe391c3923bec73e23a9662efc9c229c6a005460401c161561143457565b604051631afcd79f60e31b8152600490fd5b9061146d575080511561145b57602081519101fd5b60405163d6bda27560e01b8152600490fd5b815115806114a0575b61147e575090565b604051639996b31560e01b81526001600160a01b039091166004820152602490fd5b50803b1561147656fe9016d09d72d40fdae2fd8ceac6b6234c7706214fd39c1cd1e609a0528c199300a264697066735822122076fa539cb99f1a064deffe98d6f2412159b8097020a7218dd4f875b1545beded64736f6c63430008180033","opcodes":"PUSH1 0xA0 DUP1 PUSH1 0x40 MSTORE CALLVALUE PUSH2 0xCC JUMPI ADDRESS PUSH1 0x80 MSTORE PUSH32 0xF0C57E16840DF040F15088DC2F81FE391C3923BEC73E23A9662EFC9C229C6A00 SWAP1 DUP2 SLOAD SWAP1 PUSH1 0xFF DUP3 PUSH1 0x40 SHR AND PUSH2 0xBD JUMPI POP PUSH1 0x1 PUSH1 0x1 PUSH1 0x40 SHL SUB PUSH1 0x2 PUSH1 0x1 PUSH1 0x40 SHL SUB NOT DUP3 DUP3 AND ADD PUSH2 0x78 JUMPI JUMPDEST PUSH1 0x40 MLOAD PUSH2 0x14FF SWAP1 DUP2 PUSH2 0xD2 DUP3 CODECOPY PUSH1 0x80 MLOAD DUP2 DUP2 DUP2 PUSH2 0xA96 ADD MSTORE PUSH2 0xB75 ADD MSTORE RETURN JUMPDEST PUSH1 0x1 PUSH1 0x1 PUSH1 0x40 SHL SUB NOT SWAP1 SWAP2 AND DUP2 OR SWAP1 SWAP2 SSTORE PUSH1 0x40 MLOAD SWAP1 DUP2 MSTORE PUSH32 0xC7F505B2F371AE2175EE4913F4499E1F2633A7B5936321EED1CDAEB6115181D2 SWAP1 PUSH1 0x20 SWAP1 LOG1 CODESIZE DUP1 DUP1 PUSH2 0x59 JUMP JUMPDEST PUSH4 0xF92EE8A9 PUSH1 0xE0 SHL DUP2 MSTORE PUSH1 0x4 SWAP1 REVERT JUMPDEST PUSH1 0x0 DUP1 REVERT INVALID PUSH1 0x80 PUSH1 0x40 SWAP1 DUP1 DUP3 MSTORE PUSH1 0x4 SWAP2 DUP3 CALLDATASIZE LT ISZERO PUSH2 0x17 JUMPI PUSH1 0x0 DUP1 REVERT JUMPDEST PUSH1 0x0 SWAP3 DUP4 CALLDATALOAD PUSH1 0xE0 SHR SWAP3 DUP4 PUSH4 0x6FDDE03 EQ PUSH2 0x10C3 JUMPI POP DUP3 PUSH4 0x95EA7B3 EQ PUSH2 0x1019 JUMPI DUP3 PUSH4 0x18160DDD EQ PUSH2 0xFDB JUMPI DUP3 PUSH4 0x23B872DD EQ PUSH2 0xECA JUMPI DUP3 PUSH4 0x313CE567 EQ PUSH2 0xEAE JUMPI DUP3 PUSH4 0x40C10F19 EQ PUSH2 0xD8C JUMPI DUP3 PUSH4 0x4BDE38C8 EQ PUSH2 0xD64 JUMPI DUP3 PUSH4 0x4F1EF286 EQ PUSH2 0xAFA JUMPI DUP3 PUSH4 0x52D1902D EQ PUSH2 0xA81 JUMPI DUP3 PUSH4 0x6945C5EA EQ PUSH2 0x9E5 JUMPI DUP3 PUSH4 0x70A08231 EQ PUSH2 0x98E JUMPI DUP3 PUSH4 0x715018A6 EQ PUSH2 0x924 JUMPI DUP3 PUSH4 0x8DA5CB5B EQ PUSH2 0x8EE JUMPI DUP3 PUSH4 0x95D89B41 EQ PUSH2 0x7EE JUMPI DUP3 PUSH4 0x9DC29FAC EQ PUSH2 0x69D JUMPI DUP3 PUSH4 0xA9059CBB EQ PUSH2 0x636 JUMPI DUP3 PUSH4 0xAD3CB1CC EQ PUSH2 0x5F5 JUMPI DUP3 PUSH4 0xC4D66DE8 EQ PUSH2 0x17D JUMPI POP DUP2 PUSH4 0xDD62ED3E EQ PUSH2 0x132 JUMPI POP PUSH4 0xF2FDE38B EQ PUSH2 0x103 JUMPI PUSH1 0x0 DUP1 REVERT JUMPDEST CALLVALUE PUSH2 0x12F JUMPI PUSH1 0x20 CALLDATASIZE PUSH1 0x3 NOT ADD SLT PUSH2 0x12F JUMPI PUSH2 0x12C PUSH2 0x11F PUSH2 0x11D0 JUMP JUMPDEST PUSH2 0x127 PUSH2 0x13CC JUMP JUMPDEST PUSH2 0x1358 JUMP JUMPDEST DUP1 RETURN JUMPDEST DUP1 REVERT JUMPDEST SWAP1 POP CALLVALUE PUSH2 0x179 JUMPI DUP1 PUSH1 0x3 NOT CALLDATASIZE ADD SLT PUSH2 0x179 JUMPI DUP1 PUSH1 0x20 SWAP3 PUSH2 0x150 PUSH2 0x11D0 JUMP JUMPDEST PUSH2 0x161 PUSH2 0x15B PUSH2 0x11EB JUMP JUMPDEST SWAP2 PUSH2 0x131F JUMP JUMPDEST PUSH1 0x1 PUSH1 0x1 PUSH1 0xA0 SHL SUB SWAP1 SWAP2 AND DUP3 MSTORE DUP5 MSTORE KECCAK256 SLOAD SWAP1 MLOAD SWAP1 DUP2 MSTORE RETURN JUMPDEST POP DUP1 REVERT JUMPDEST SWAP1 SWAP2 POP CALLVALUE PUSH2 0x5F1 JUMPI PUSH1 0x20 CALLDATASIZE PUSH1 0x3 NOT ADD SLT PUSH2 0x5F1 JUMPI PUSH2 0x199 PUSH2 0x11D0 JUMP JUMPDEST PUSH32 0xF0C57E16840DF040F15088DC2F81FE391C3923BEC73E23A9662EFC9C229C6A00 SWAP2 DUP3 SLOAD SWAP2 PUSH1 0xFF DUP4 DUP7 SHR AND ISZERO SWAP2 PUSH8 0xFFFFFFFFFFFFFFFF DUP1 DUP6 AND SWAP5 DUP6 ISZERO DUP1 PUSH2 0x5EA JUMPI JUMPDEST PUSH1 0x1 DUP1 SWAP8 EQ SWAP1 DUP2 PUSH2 0x5E0 JUMPI JUMPDEST ISZERO SWAP1 DUP2 PUSH2 0x5D7 JUMPI JUMPDEST POP PUSH2 0x5C7 JUMPI PUSH8 0xFFFFFFFFFFFFFFFF NOT DUP2 AND DUP7 OR DUP8 SSTORE DUP5 PUSH2 0x5A8 JUMPI JUMPDEST POP DUP7 MLOAD SWAP2 PUSH2 0x217 DUP4 PUSH2 0x1201 JUMP JUMPDEST PUSH1 0xA DUP4 MSTORE PUSH10 0x2B37B63A102A37B5B2B7 PUSH1 0xB1 SHL PUSH1 0x20 DUP5 ADD MSTORE DUP8 MLOAD SWAP3 PUSH2 0x23A DUP5 PUSH2 0x1201 JUMP JUMPDEST DUP2 DUP5 MSTORE PUSH4 0x1593D315 PUSH1 0xE2 SHL PUSH1 0x20 DUP6 ADD MSTORE PUSH2 0x252 PUSH2 0x1405 JUMP JUMPDEST PUSH2 0x25A PUSH2 0x1405 JUMP JUMPDEST DUP1 MLOAD DUP4 DUP2 GT PUSH2 0x595 JUMPI DUP1 PUSH32 0x52C63247E1F47DB19D5CE0460030C497F067CA4CEBF71BA98EEADABE20BACE03 SWAP3 PUSH2 0x290 DUP5 SLOAD PUSH2 0x1271 JUMP JUMPDEST PUSH1 0x1F DUP2 GT PUSH2 0x523 JUMPI JUMPDEST POP PUSH1 0x20 SWAP1 DUP14 PUSH1 0x1F DUP5 GT PUSH1 0x1 EQ PUSH2 0x4A6 JUMPI SWAP3 PUSH2 0x49B JUMPI JUMPDEST POP POP PUSH1 0x0 NOT PUSH1 0x3 DUP4 SWAP1 SHL SHR NOT AND SWAP1 DUP9 SHL OR SWAP1 SSTORE JUMPDEST DUP3 MLOAD SWAP2 DUP3 GT PUSH2 0x488 JUMPI POP PUSH32 0x52C63247E1F47DB19D5CE0460030C497F067CA4CEBF71BA98EEADABE20BACE04 SWAP2 PUSH2 0x2F9 DUP4 SLOAD PUSH2 0x1271 JUMP JUMPDEST PUSH1 0x1F DUP2 GT PUSH2 0x423 JUMPI JUMPDEST POP PUSH1 0x20 SWAP1 PUSH1 0x1F DUP4 GT PUSH1 0x1 EQ PUSH2 0x3A0 JUMPI PUSH2 0x344 SWAP5 SWAP4 SWAP3 SWAP2 DUP11 SWAP2 DUP4 PUSH2 0x395 JUMPI JUMPDEST POP POP PUSH1 0x0 NOT PUSH1 0x3 DUP4 SWAP1 SHL SHR NOT AND SWAP1 DUP7 SHL OR SWAP1 SSTORE JUMPDEST PUSH2 0x33C PUSH2 0x1405 JUMP JUMPDEST PUSH2 0x127 PUSH2 0x1405 JUMP JUMPDEST PUSH2 0x34C PUSH2 0x1405 JUMP JUMPDEST PUSH2 0x354 JUMPI DUP4 DUP1 RETURN JUMPDEST PUSH32 0xC7F505B2F371AE2175EE4913F4499E1F2633A7B5936321EED1CDAEB6115181D2 SWAP3 PUSH1 0x20 SWAP3 PUSH9 0xFF0000000000000000 NOT DUP2 SLOAD AND SWAP1 SSTORE MLOAD SWAP1 DUP2 MSTORE LOG1 CODESIZE DUP1 DUP1 DUP4 DUP1 RETURN JUMPDEST ADD MLOAD SWAP1 POP CODESIZE DUP1 PUSH2 0x320 JUMP JUMPDEST DUP4 DUP11 MSTORE SWAP4 SWAP3 SWAP2 DUP7 SWAP2 PUSH32 0x46A2803E59A4DE4E7A4C574B1243F25977AC4C77D5A1A4A609B5394CEBB4A2AA SWAP1 PUSH1 0x1F NOT DUP4 AND DUP13 JUMPDEST DUP2 DUP2 LT PUSH2 0x40B JUMPI POP SWAP7 DUP4 PUSH2 0x344 SWAP9 LT PUSH2 0x3F2 JUMPI JUMPDEST POP POP POP DUP2 SHL ADD SWAP1 SSTORE PUSH2 0x334 JUMP JUMPDEST ADD MLOAD PUSH1 0x0 NOT PUSH1 0xF8 DUP5 PUSH1 0x3 SHL AND SHR NOT AND SWAP1 SSTORE CODESIZE DUP1 DUP1 PUSH2 0x3E5 JUMP JUMPDEST DUP3 DUP10 ADD MLOAD DUP5 SSTORE DUP11 SWAP6 SWAP1 SWAP4 ADD SWAP3 PUSH1 0x20 SWAP3 DUP4 ADD SWAP3 ADD PUSH2 0x3D1 JUMP JUMPDEST DUP4 DUP11 MSTORE PUSH32 0x46A2803E59A4DE4E7A4C574B1243F25977AC4C77D5A1A4A609B5394CEBB4A2AA PUSH1 0x1F DUP5 ADD PUSH1 0x5 SHR DUP2 ADD SWAP2 PUSH1 0x20 DUP6 LT PUSH2 0x47E JUMPI JUMPDEST PUSH1 0x1F ADD PUSH1 0x5 SHR ADD SWAP1 DUP8 SWAP1 JUMPDEST DUP3 DUP2 LT PUSH2 0x473 JUMPI POP POP PUSH2 0x302 JUMP JUMPDEST DUP12 DUP2 SSTORE ADD DUP8 SWAP1 PUSH2 0x465 JUMP JUMPDEST SWAP1 SWAP2 POP DUP2 SWAP1 PUSH2 0x45A JUMP JUMPDEST PUSH4 0x4E487B71 PUSH1 0xE0 SHL DUP10 MSTORE PUSH1 0x41 SWAP1 MSTORE PUSH1 0x24 DUP9 REVERT JUMPDEST ADD MLOAD SWAP1 POP CODESIZE DUP1 PUSH2 0x2AF JUMP JUMPDEST SWAP2 SWAP1 DUP12 SWAP5 POP PUSH1 0x1F NOT DUP5 AND DUP7 DUP5 MSTORE PUSH32 0x2AE08A8E29253F69AC5D979A101956AB8F8D9D7DED63FA7A83B16FC47648EAB0 SWAP4 JUMPDEST DUP2 DUP2 LT PUSH2 0x50B JUMPI POP DUP5 GT PUSH2 0x4F2 JUMPI JUMPDEST POP POP POP DUP2 SHL ADD SWAP1 SSTORE PUSH2 0x2C3 JUMP JUMPDEST ADD MLOAD PUSH1 0x0 NOT PUSH1 0xF8 DUP5 PUSH1 0x3 SHL AND SHR NOT AND SWAP1 SSTORE CODESIZE DUP1 DUP1 PUSH2 0x4E5 JUMP JUMPDEST DUP3 DUP5 ADD MLOAD DUP6 SSTORE DUP14 SWAP7 SWAP1 SWAP5 ADD SWAP4 PUSH1 0x20 SWAP4 DUP5 ADD SWAP4 ADD PUSH2 0x4D6 JUMP JUMPDEST SWAP1 SWAP2 POP DUP4 DUP14 MSTORE PUSH32 0x2AE08A8E29253F69AC5D979A101956AB8F8D9D7DED63FA7A83B16FC47648EAB0 PUSH1 0x1F DUP5 ADD PUSH1 0x5 SHR DUP2 ADD SWAP2 PUSH1 0x20 DUP6 LT PUSH2 0x58B JUMPI JUMPDEST DUP15 DUP6 SWAP5 SWAP4 SWAP3 PUSH1 0x1F DUP15 SWAP4 ADD PUSH1 0x5 SHR ADD SWAP3 SWAP1 JUMPDEST DUP4 DUP3 LT PUSH2 0x57D JUMPI POP POP POP PUSH2 0x299 JUMP JUMPDEST DUP2 SSTORE DUP6 SWAP5 POP DUP13 SWAP2 ADD DUP16 PUSH2 0x56E JUMP JUMPDEST SWAP1 SWAP2 POP DUP2 SWAP1 PUSH2 0x55D JUMP JUMPDEST PUSH4 0x4E487B71 PUSH1 0xE0 SHL DUP12 MSTORE PUSH1 0x41 DUP4 MSTORE PUSH1 0x24 DUP12 REVERT JUMPDEST PUSH9 0xFFFFFFFFFFFFFFFFFF NOT AND PUSH9 0x10000000000000001 OR DUP7 SSTORE CODESIZE PUSH2 0x20A JUMP JUMPDEST DUP8 MLOAD PUSH4 0xF92EE8A9 PUSH1 0xE0 SHL DUP2 MSTORE DUP4 SWAP1 REVERT JUMPDEST SWAP1 POP ISZERO CODESIZE PUSH2 0x1EF JUMP JUMPDEST ADDRESS EXTCODESIZE ISZERO SWAP2 POP PUSH2 0x1E7 JUMP JUMPDEST POP DUP5 PUSH2 0x1DB JUMP JUMPDEST DUP3 DUP1 REVERT JUMPDEST DUP4 DUP3 CALLVALUE PUSH2 0x179 JUMPI DUP2 PUSH1 0x3 NOT CALLDATASIZE ADD SLT PUSH2 0x179 JUMPI DUP1 MLOAD PUSH2 0x632 SWAP2 PUSH2 0x616 DUP3 PUSH2 0x1201 JUMP JUMPDEST PUSH1 0x5 DUP3 MSTORE PUSH5 0x352E302E3 PUSH1 0xDC SHL PUSH1 0x20 DUP4 ADD MSTORE MLOAD SWAP2 DUP3 SWAP2 DUP3 PUSH2 0x1187 JUMP JUMPDEST SUB SWAP1 RETURN JUMPDEST SWAP1 DUP4 CALLVALUE PUSH2 0x12F JUMPI DUP2 PUSH1 0x3 NOT CALLDATASIZE ADD SLT PUSH2 0x12F JUMPI PUSH2 0x650 PUSH2 0x11D0 JUMP JUMPDEST CALLER ISZERO PUSH2 0x687 JUMPI PUSH1 0x1 PUSH1 0x1 PUSH1 0xA0 SHL SUB AND ISZERO PUSH2 0x672 JUMPI POP MLOAD PUSH4 0x8574ADCF PUSH1 0xE0 SHL DUP2 MSTORE REVERT JUMPDEST SWAP1 MLOAD PUSH4 0xEC442F05 PUSH1 0xE0 SHL DUP2 MSTORE SWAP2 DUP3 ADD MSTORE PUSH1 0x24 SWAP1 REVERT JUMPDEST POP SWAP1 MLOAD PUSH4 0x4B637E8F PUSH1 0xE1 SHL DUP2 MSTORE SWAP2 DUP3 ADD MSTORE PUSH1 0x24 SWAP1 REVERT JUMPDEST DUP4 SWAP1 CALLVALUE PUSH2 0x179 JUMPI DUP3 PUSH1 0x3 NOT CALLDATASIZE ADD SLT PUSH2 0x179 JUMPI PUSH2 0x6B7 PUSH2 0x11D0 JUMP JUMPDEST PUSH1 0x0 DUP1 MLOAD PUSH1 0x20 PUSH2 0x14AA DUP4 CODECOPY DUP2 MLOAD SWAP2 MSTORE SLOAD SWAP1 SWAP2 PUSH1 0x24 CALLDATALOAD SWAP2 PUSH1 0x1 PUSH1 0x1 PUSH1 0xA0 SHL SUB SWAP1 DUP2 AND CALLER EQ DUP1 ISZERO PUSH2 0x7E2 JUMPI JUMPDEST PUSH2 0x6EA SWAP1 PUSH2 0x12AB JUMP JUMPDEST PUSH2 0x6F5 DUP4 ISZERO ISZERO PUSH2 0x12E8 JUMP JUMPDEST DUP4 AND SWAP3 DUP4 ISZERO PUSH2 0x7CB JUMPI DUP4 DUP6 MSTORE PUSH32 0x52C63247E1F47DB19D5CE0460030C497F067CA4CEBF71BA98EEADABE20BACE00 SWAP1 DUP2 PUSH1 0x20 MSTORE DUP7 DUP7 KECCAK256 SLOAD SWAP3 DUP5 DUP5 LT PUSH2 0x797 JUMPI POP POP SWAP2 DUP5 SWAP6 DUP2 PUSH1 0x20 SWAP4 PUSH32 0xDDF252AD1BE2C89B69C2B068FC378DAA952BA7F163C4A11628F55A4DF523B3EF SWAP6 DUP8 DUP10 MSTORE DUP6 MSTORE SUB DUP2 DUP8 KECCAK256 SSTORE PUSH32 0x52C63247E1F47DB19D5CE0460030C497F067CA4CEBF71BA98EEADABE20BACE02 DUP3 DUP2 SLOAD SUB SWAP1 SSTORE MLOAD SWAP1 DUP2 MSTORE LOG3 DUP1 RETURN JUMPDEST DUP8 MLOAD PUSH4 0x391434E3 PUSH1 0xE2 SHL DUP2 MSTORE PUSH1 0x1 PUSH1 0x1 PUSH1 0xA0 SHL SUB SWAP1 SWAP3 AND SWAP1 DUP3 ADD SWAP1 DUP2 MSTORE PUSH1 0x20 DUP2 ADD DUP5 SWAP1 MSTORE PUSH1 0x40 DUP2 ADD DUP6 SWAP1 MSTORE DUP2 SWAP1 PUSH1 0x60 ADD SUB SWAP1 REVERT JUMPDEST DUP6 MLOAD PUSH4 0x4B637E8F PUSH1 0xE1 SHL DUP2 MSTORE DUP1 DUP4 ADD DUP7 SWAP1 MSTORE PUSH1 0x24 SWAP1 REVERT JUMPDEST POP DUP5 SLOAD DUP2 AND CALLER EQ PUSH2 0x6E1 JUMP JUMPDEST POP DUP3 CALLVALUE PUSH2 0x12F JUMPI DUP1 PUSH1 0x3 NOT CALLDATASIZE ADD SLT PUSH2 0x12F JUMPI DUP2 MLOAD SWAP1 DUP1 PUSH32 0x52C63247E1F47DB19D5CE0460030C497F067CA4CEBF71BA98EEADABE20BACE04 DUP1 SLOAD PUSH2 0x830 DUP2 PUSH2 0x1271 JUMP JUMPDEST DUP1 DUP7 MSTORE SWAP3 PUSH1 0x20 SWAP3 PUSH1 0x1 SWAP3 DUP1 DUP5 AND SWAP1 DUP2 ISZERO PUSH2 0x8BF JUMPI POP PUSH1 0x1 EQ PUSH2 0x868 JUMPI JUMPDEST PUSH2 0x632 DUP8 DUP10 PUSH2 0x85E DUP3 DUP11 SUB DUP4 PUSH2 0x1233 JUMP JUMPDEST MLOAD SWAP2 DUP3 SWAP2 DUP3 PUSH2 0x1187 JUMP JUMPDEST DUP2 MSTORE SWAP4 POP PUSH32 0x46A2803E59A4DE4E7A4C574B1243F25977AC4C77D5A1A4A609B5394CEBB4A2AA JUMPDEST DUP4 DUP6 LT PUSH2 0x8AC JUMPI POP POP POP POP DUP2 ADD PUSH1 0x20 ADD PUSH2 0x85E DUP3 PUSH2 0x632 DUP7 DUP1 PUSH2 0x84D JUMP JUMPDEST DUP1 SLOAD DUP7 DUP7 ADD DUP5 ADD MSTORE SWAP4 DUP3 ADD SWAP4 DUP2 ADD PUSH2 0x88E JUMP JUMPDEST SWAP2 POP POP PUSH2 0x632 SWAP8 SWAP6 POP DUP7 SWAP4 POP PUSH1 0x20 SWAP3 POP PUSH2 0x85E SWAP5 SWAP2 POP PUSH1 0xFF NOT AND DUP3 DUP5 ADD MSTORE ISZERO ISZERO PUSH1 0x5 SHL DUP3 ADD ADD SWAP3 SWAP5 DUP7 DUP1 PUSH2 0x84D JUMP JUMPDEST DUP4 DUP3 CALLVALUE PUSH2 0x179 JUMPI DUP2 PUSH1 0x3 NOT CALLDATASIZE ADD SLT PUSH2 0x179 JUMPI PUSH1 0x0 DUP1 MLOAD PUSH1 0x20 PUSH2 0x14AA DUP4 CODECOPY DUP2 MLOAD SWAP2 MSTORE SLOAD SWAP1 MLOAD PUSH1 0x1 PUSH1 0x1 PUSH1 0xA0 SHL SUB SWAP1 SWAP2 AND DUP2 MSTORE PUSH1 0x20 SWAP1 RETURN JUMPDEST DUP4 CALLVALUE PUSH2 0x12F JUMPI DUP1 PUSH1 0x3 NOT CALLDATASIZE ADD SLT PUSH2 0x12F JUMPI PUSH2 0x93D PUSH2 0x13CC JUMP JUMPDEST PUSH1 0x0 DUP1 MLOAD PUSH1 0x20 PUSH2 0x14AA DUP4 CODECOPY DUP2 MLOAD SWAP2 MSTORE DUP1 SLOAD PUSH1 0x1 PUSH1 0x1 PUSH1 0xA0 SHL SUB NOT DUP2 AND SWAP1 SWAP2 SSTORE DUP2 SWAP1 PUSH1 0x1 PUSH1 0x1 PUSH1 0xA0 SHL SUB AND PUSH32 0x8BE0079C531659141344CD1FD0A4F28419497F9722A3DAAFE3B4186F6B6457E0 DUP3 DUP1 LOG3 DUP1 RETURN JUMPDEST DUP4 DUP3 CALLVALUE PUSH2 0x179 JUMPI PUSH1 0x20 CALLDATASIZE PUSH1 0x3 NOT ADD SLT PUSH2 0x179 JUMPI PUSH1 0x20 SWAP2 DUP2 SWAP1 PUSH1 0x1 PUSH1 0x1 PUSH1 0xA0 SHL SUB PUSH2 0x9B6 PUSH2 0x11D0 JUMP JUMPDEST AND DUP2 MSTORE PUSH32 0x52C63247E1F47DB19D5CE0460030C497F067CA4CEBF71BA98EEADABE20BACE00 DUP5 MSTORE KECCAK256 SLOAD SWAP1 MLOAD SWAP1 DUP2 MSTORE RETURN JUMPDEST SWAP1 SWAP2 POP CALLVALUE PUSH2 0x5F1 JUMPI PUSH1 0x20 CALLDATASIZE PUSH1 0x3 NOT ADD SLT PUSH2 0x5F1 JUMPI PUSH2 0xA01 PUSH2 0x11D0 JUMP JUMPDEST PUSH2 0xA09 PUSH2 0x13CC JUMP JUMPDEST PUSH1 0x1 PUSH1 0x1 PUSH1 0xA0 SHL SUB AND SWAP2 DUP3 ISZERO PUSH2 0xA52 JUMPI POP POP DUP2 SLOAD PUSH1 0x1 PUSH1 0x1 PUSH1 0xA0 SHL SUB NOT AND DUP2 OR DUP3 SSTORE PUSH32 0x9B3F36A627B98ABC41B246EEE9C0FB8A04CAC16ADD47F8B2EB3A69AB16B3B8CD DUP3 DUP1 LOG2 DUP1 RETURN JUMPDEST SWAP1 PUSH1 0x20 PUSH1 0x64 SWAP3 MLOAD SWAP2 PUSH3 0x461BCD PUSH1 0xE5 SHL DUP4 MSTORE DUP3 ADD MSTORE PUSH1 0x9 PUSH1 0x24 DUP3 ADD MSTORE PUSH9 0x3D32B9379030B23239 PUSH1 0xB9 SHL PUSH1 0x44 DUP3 ADD MSTORE REVERT JUMPDEST SWAP1 DUP4 CALLVALUE PUSH2 0x12F JUMPI DUP1 PUSH1 0x3 NOT CALLDATASIZE ADD SLT PUSH2 0x12F JUMPI POP PUSH32 0x0 PUSH1 0x1 PUSH1 0x1 PUSH1 0xA0 SHL SUB AND ADDRESS SUB PUSH2 0xAED JUMPI PUSH1 0x20 SWAP1 MLOAD PUSH32 0x360894A13BA1A3210667C828492DB98DCA3E2076CC3735A920A3CA505D382BBC DUP2 MSTORE RETURN JUMPDEST MLOAD PUSH4 0x703E46DD PUSH1 0xE1 SHL DUP2 MSTORE REVERT JUMPDEST SWAP2 POP DUP1 PUSH1 0x3 NOT CALLDATASIZE ADD SLT PUSH2 0x5F1 JUMPI PUSH2 0xB0F PUSH2 0x11D0 JUMP JUMPDEST SWAP1 PUSH1 0x24 SWAP4 DUP5 CALLDATALOAD PUSH8 0xFFFFFFFFFFFFFFFF DUP2 GT PUSH2 0x179 JUMPI CALLDATASIZE PUSH1 0x23 DUP3 ADD SLT ISZERO PUSH2 0x179 JUMPI DUP1 DUP6 ADD CALLDATALOAD PUSH2 0xB3C DUP2 PUSH2 0x1255 JUMP JUMPDEST SWAP5 PUSH2 0xB49 DUP6 MLOAD SWAP7 DUP8 PUSH2 0x1233 JUMP JUMPDEST DUP2 DUP7 MSTORE PUSH1 0x20 SWAP2 DUP3 DUP8 ADD SWAP4 CALLDATASIZE DUP11 DUP4 DUP4 ADD ADD GT PUSH2 0xD60 JUMPI DUP2 DUP7 SWAP3 DUP12 DUP7 SWAP4 ADD DUP8 CALLDATACOPY DUP9 ADD ADD MSTORE PUSH1 0x1 PUSH1 0x1 PUSH1 0xA0 SHL SUB PUSH32 0x0 DUP2 AND ADDRESS DUP2 EQ SWAP1 DUP2 ISZERO PUSH2 0xD32 JUMPI JUMPDEST POP PUSH2 0xD22 JUMPI PUSH2 0xBAE PUSH2 0x13CC JUMP JUMPDEST DUP2 AND SWAP6 DUP6 MLOAD PUSH4 0x52D1902D PUSH1 0xE0 SHL DUP2 MSTORE DUP4 DUP2 DUP11 DUP2 DUP12 GAS STATICCALL DUP7 SWAP2 DUP2 PUSH2 0xCEF JUMPI JUMPDEST POP PUSH2 0xBE8 JUMPI POP POP POP POP POP POP MLOAD SWAP2 PUSH4 0x4C9C8CE3 PUSH1 0xE0 SHL DUP4 MSTORE DUP3 ADD MSTORE REVERT JUMPDEST SWAP1 DUP9 DUP9 DUP9 SWAP5 SWAP4 DUP13 PUSH32 0x360894A13BA1A3210667C828492DB98DCA3E2076CC3735A920A3CA505D382BBC SWAP2 DUP3 DUP2 SUB PUSH2 0xCDA JUMPI POP DUP6 EXTCODESIZE ISZERO PUSH2 0xCC6 JUMPI POP DUP1 SLOAD PUSH1 0x1 PUSH1 0x1 PUSH1 0xA0 SHL SUB NOT AND DUP3 OR SWAP1 SSTORE DUP5 MLOAD DUP9 SWAP4 SWAP3 SWAP2 PUSH32 0xBC7CD75A20EE27FD9ADEBAB32041F755214DBC6BFFA90CC0225B39DA2E5C2D3B DUP6 DUP1 LOG2 DUP3 MLOAD ISZERO PUSH2 0xCA8 JUMPI POP POP PUSH2 0xC9A SWAP6 DUP3 SWAP2 MLOAD SWAP1 DUP5 GAS DELEGATECALL SWAP2 RETURNDATASIZE ISZERO PUSH2 0xC9E JUMPI RETURNDATASIZE PUSH2 0xC8C PUSH2 0xC83 DUP3 PUSH2 0x1255 JUMP JUMPDEST SWAP3 MLOAD SWAP3 DUP4 PUSH2 0x1233 JUMP JUMPDEST DUP2 MSTORE DUP6 DUP2 SWAP5 RETURNDATASIZE SWAP3 ADD RETURNDATACOPY PUSH2 0x1446 JUMP JUMPDEST POP DUP1 RETURN JUMPDEST POP PUSH1 0x60 SWAP3 POP PUSH2 0x1446 JUMP JUMPDEST SWAP6 POP SWAP6 POP POP POP POP POP CALLVALUE PUSH2 0xCBA JUMPI POP POP DUP1 RETURN JUMPDEST PUSH4 0xB398979F PUSH1 0xE0 SHL DUP2 MSTORE REVERT JUMPDEST DUP7 MLOAD PUSH4 0x4C9C8CE3 PUSH1 0xE0 SHL DUP2 MSTORE DUP1 DUP6 ADD DUP5 SWAP1 MSTORE REVERT JUMPDEST DUP8 MLOAD PUSH4 0x2A875269 PUSH1 0xE2 SHL DUP2 MSTORE DUP1 DUP7 ADD SWAP2 SWAP1 SWAP2 MSTORE REVERT JUMPDEST SWAP1 SWAP2 POP DUP5 DUP2 DUP2 RETURNDATASIZE DUP4 GT PUSH2 0xD1B JUMPI JUMPDEST PUSH2 0xD07 DUP2 DUP4 PUSH2 0x1233 JUMP JUMPDEST DUP2 ADD SUB SLT PUSH2 0xD17 JUMPI MLOAD SWAP1 CODESIZE PUSH2 0xBCC JUMP JUMPDEST DUP7 DUP1 REVERT JUMPDEST POP RETURNDATASIZE PUSH2 0xCFD JUMP JUMPDEST DUP6 MLOAD PUSH4 0x703E46DD PUSH1 0xE1 SHL DUP2 MSTORE DUP9 SWAP1 REVERT JUMPDEST SWAP1 POP DUP2 PUSH32 0x360894A13BA1A3210667C828492DB98DCA3E2076CC3735A920A3CA505D382BBC SLOAD AND EQ ISZERO CODESIZE PUSH2 0xBA1 JUMP JUMPDEST DUP6 DUP1 REVERT JUMPDEST DUP4 DUP3 CALLVALUE PUSH2 0x179 JUMPI DUP2 PUSH1 0x3 NOT CALLDATASIZE ADD SLT PUSH2 0x179 JUMPI SWAP1 SLOAD SWAP1 MLOAD PUSH1 0x1 PUSH1 0x1 PUSH1 0xA0 SHL SUB SWAP1 SWAP2 AND DUP2 MSTORE PUSH1 0x20 SWAP1 RETURN JUMPDEST SWAP2 POP CALLVALUE PUSH2 0x5F1 JUMPI DUP1 PUSH1 0x3 NOT CALLDATASIZE ADD SLT PUSH2 0x5F1 JUMPI PUSH2 0xDA6 PUSH2 0x11D0 JUMP JUMPDEST PUSH1 0x0 DUP1 MLOAD PUSH1 0x20 PUSH2 0x14AA DUP4 CODECOPY DUP2 MLOAD SWAP2 MSTORE SLOAD PUSH1 0x24 CALLDATALOAD SWAP3 SWAP2 PUSH1 0x1 PUSH1 0x1 PUSH1 0xA0 SHL SUB SWAP2 DUP3 AND CALLER EQ DUP1 ISZERO PUSH2 0xEA2 JUMPI JUMPDEST PUSH2 0xDD8 SWAP1 PUSH2 0x12AB JUMP JUMPDEST PUSH2 0xDE3 DUP5 ISZERO ISZERO PUSH2 0x12E8 JUMP JUMPDEST AND SWAP3 DUP4 ISZERO PUSH2 0xE8D JUMPI PUSH32 0x52C63247E1F47DB19D5CE0460030C497F067CA4CEBF71BA98EEADABE20BACE02 DUP1 SLOAD SWAP2 DUP5 DUP4 ADD DUP1 SWAP4 GT PUSH2 0xE7A JUMPI POP SWAP3 PUSH32 0xDDF252AD1BE2C89B69C2B068FC378DAA952BA7F163C4A11628F55A4DF523B3EF SWAP3 PUSH1 0x20 SWAP3 DUP8 SWAP6 SSTORE DUP6 DUP6 MSTORE PUSH32 0x52C63247E1F47DB19D5CE0460030C497F067CA4CEBF71BA98EEADABE20BACE00 DUP4 MSTORE DUP1 DUP6 KECCAK256 DUP3 DUP2 SLOAD ADD SWAP1 SSTORE MLOAD SWAP1 DUP2 MSTORE LOG3 DUP1 RETURN JUMPDEST PUSH4 0x4E487B71 PUSH1 0xE0 SHL DUP8 MSTORE PUSH1 0x11 SWAP1 MSTORE PUSH1 0x24 DUP7 REVERT JUMPDEST DUP5 PUSH1 0x24 SWAP3 MLOAD SWAP2 PUSH4 0xEC442F05 PUSH1 0xE0 SHL DUP4 MSTORE DUP3 ADD MSTORE REVERT JUMPDEST POP DUP6 SLOAD DUP3 AND CALLER EQ PUSH2 0xDCF JUMP JUMPDEST DUP4 DUP3 CALLVALUE PUSH2 0x179 JUMPI DUP2 PUSH1 0x3 NOT CALLDATASIZE ADD SLT PUSH2 0x179 JUMPI PUSH1 0x20 SWAP1 MLOAD PUSH1 0x12 DUP2 MSTORE RETURN JUMPDEST SWAP1 DUP4 CALLVALUE PUSH2 0x12F JUMPI PUSH1 0x60 CALLDATASIZE PUSH1 0x3 NOT ADD SLT PUSH2 0x12F JUMPI PUSH2 0xEE5 PUSH2 0x11D0 JUMP JUMPDEST PUSH2 0xEED PUSH2 0x11EB JUMP JUMPDEST PUSH1 0x44 CALLDATALOAD PUSH2 0xEF9 DUP4 PUSH2 0x131F JUMP JUMPDEST CALLER DUP6 MSTORE PUSH1 0x20 MSTORE DUP5 DUP5 KECCAK256 SLOAD SWAP1 PUSH1 0x0 NOT DUP3 LT PUSH2 0xF4C JUMPI JUMPDEST POP PUSH1 0x1 PUSH1 0x1 PUSH1 0xA0 SHL SUB SWAP3 DUP4 AND ISZERO SWAP1 POP PUSH2 0xF35 JUMPI AND ISZERO PUSH2 0x672 JUMPI POP MLOAD PUSH4 0x8574ADCF PUSH1 0xE0 SHL DUP2 MSTORE REVERT JUMPDEST DUP4 MLOAD PUSH4 0x4B637E8F PUSH1 0xE1 SHL DUP2 MSTORE DUP1 DUP7 ADD DUP5 SWAP1 MSTORE PUSH1 0x24 SWAP1 REVERT JUMPDEST DUP1 DUP3 LT PUSH2 0xFAE JUMPI POP POP PUSH1 0x1 PUSH1 0x1 PUSH1 0xA0 SHL SUB DUP3 AND ISZERO PUSH2 0xF97 JUMPI CALLER ISZERO PUSH2 0xF80 JUMPI PUSH2 0xF73 DUP3 PUSH2 0x131F JUMP JUMPDEST CALLER DUP5 MSTORE PUSH1 0x20 MSTORE DUP6 DUP1 PUSH2 0xF0E JUMP JUMPDEST DUP4 MLOAD PUSH4 0x4A1406B1 PUSH1 0xE1 SHL DUP2 MSTORE DUP1 DUP7 ADD DUP5 SWAP1 MSTORE PUSH1 0x24 SWAP1 REVERT JUMPDEST DUP4 MLOAD PUSH4 0xE602DF05 PUSH1 0xE0 SHL DUP2 MSTORE DUP1 DUP7 ADD DUP5 SWAP1 MSTORE PUSH1 0x24 SWAP1 REVERT JUMPDEST DUP6 MLOAD PUSH4 0x7DC7A0D9 PUSH1 0xE1 SHL DUP2 MSTORE CALLER DUP2 DUP10 ADD SWAP1 DUP2 MSTORE PUSH1 0x20 DUP2 ADD SWAP4 SWAP1 SWAP4 MSTORE PUSH1 0x40 DUP4 ADD SWAP2 SWAP1 SWAP2 MSTORE SWAP1 DUP2 SWAP1 PUSH1 0x60 ADD SUB SWAP1 REVERT JUMPDEST DUP4 DUP3 CALLVALUE PUSH2 0x179 JUMPI DUP2 PUSH1 0x3 NOT CALLDATASIZE ADD SLT PUSH2 0x179 JUMPI PUSH1 0x20 SWAP1 PUSH32 0x52C63247E1F47DB19D5CE0460030C497F067CA4CEBF71BA98EEADABE20BACE02 SLOAD SWAP1 MLOAD SWAP1 DUP2 MSTORE RETURN JUMPDEST SWAP1 SWAP2 POP CALLVALUE PUSH2 0x5F1 JUMPI DUP2 PUSH1 0x3 NOT CALLDATASIZE ADD SLT PUSH2 0x5F1 JUMPI PUSH2 0x1034 PUSH2 0x11D0 JUMP JUMPDEST PUSH1 0x24 CALLDATALOAD SWAP1 CALLER ISZERO PUSH2 0x10AC JUMPI PUSH1 0x1 PUSH1 0x1 PUSH1 0xA0 SHL SUB AND SWAP2 DUP3 ISZERO PUSH2 0x1095 JUMPI POP DUP1 DUP4 PUSH1 0x20 SWAP6 PUSH2 0x105D CALLER PUSH2 0x131F JUMP JUMPDEST DUP6 DUP3 MSTORE DUP8 MSTORE KECCAK256 SSTORE DUP3 MLOAD SWAP1 DUP2 MSTORE PUSH32 0x8C5BE1E5EBEC7D5BD14F71427D1E84F3DD0314C0F7B2291E5B200AC8C7C3B925 DUP5 CALLER SWAP3 LOG3 MLOAD PUSH1 0x1 DUP2 MSTORE RETURN JUMPDEST DUP4 MLOAD PUSH4 0x4A1406B1 PUSH1 0xE1 SHL DUP2 MSTORE SWAP1 DUP2 ADD DUP6 SWAP1 MSTORE PUSH1 0x24 SWAP1 REVERT JUMPDEST DUP4 MLOAD PUSH4 0xE602DF05 PUSH1 0xE0 SHL DUP2 MSTORE DUP1 DUP5 ADD DUP7 SWAP1 MSTORE PUSH1 0x24 SWAP1 REVERT JUMPDEST SWAP1 POP DUP4 CALLVALUE PUSH2 0x12F JUMPI DUP1 PUSH1 0x3 NOT CALLDATASIZE ADD SLT PUSH2 0x12F JUMPI DUP1 PUSH32 0x52C63247E1F47DB19D5CE0460030C497F067CA4CEBF71BA98EEADABE20BACE03 DUP1 SLOAD PUSH2 0x1103 DUP2 PUSH2 0x1271 JUMP JUMPDEST DUP1 DUP7 MSTORE SWAP3 PUSH1 0x20 SWAP3 PUSH1 0x1 SWAP3 DUP1 DUP5 AND SWAP1 DUP2 ISZERO PUSH2 0x8BF JUMPI POP PUSH1 0x1 EQ PUSH2 0x1130 JUMPI PUSH2 0x632 DUP8 DUP10 PUSH2 0x85E DUP3 DUP11 SUB DUP4 PUSH2 0x1233 JUMP JUMPDEST DUP2 MSTORE SWAP4 POP PUSH32 0x2AE08A8E29253F69AC5D979A101956AB8F8D9D7DED63FA7A83B16FC47648EAB0 JUMPDEST DUP4 DUP6 LT PUSH2 0x1174 JUMPI POP POP POP POP DUP2 ADD PUSH1 0x20 ADD PUSH2 0x85E DUP3 PUSH2 0x632 DUP7 DUP1 PUSH2 0x84D JUMP JUMPDEST DUP1 SLOAD DUP7 DUP7 ADD DUP5 ADD MSTORE SWAP4 DUP3 ADD SWAP4 DUP2 ADD PUSH2 0x1156 JUMP JUMPDEST PUSH1 0x20 DUP1 DUP3 MSTORE DUP3 MLOAD DUP2 DUP4 ADD DUP2 SWAP1 MSTORE SWAP1 SWAP4 SWAP3 PUSH1 0x0 JUMPDEST DUP3 DUP2 LT PUSH2 0x11BC JUMPI POP POP PUSH1 0x40 SWAP3 SWAP4 POP PUSH1 0x0 DUP4 DUP3 DUP5 ADD ADD MSTORE PUSH1 0x1F DUP1 NOT SWAP2 ADD AND ADD ADD SWAP1 JUMP JUMPDEST DUP2 DUP2 ADD DUP7 ADD MLOAD DUP5 DUP3 ADD PUSH1 0x40 ADD MSTORE DUP6 ADD PUSH2 0x119A JUMP JUMPDEST PUSH1 0x4 CALLDATALOAD SWAP1 PUSH1 0x1 PUSH1 0x1 PUSH1 0xA0 SHL SUB DUP3 AND DUP3 SUB PUSH2 0x11E6 JUMPI JUMP JUMPDEST PUSH1 0x0 DUP1 REVERT JUMPDEST PUSH1 0x24 CALLDATALOAD SWAP1 PUSH1 0x1 PUSH1 0x1 PUSH1 0xA0 SHL SUB DUP3 AND DUP3 SUB PUSH2 0x11E6 JUMPI JUMP JUMPDEST PUSH1 0x40 DUP2 ADD SWAP1 DUP2 LT PUSH8 0xFFFFFFFFFFFFFFFF DUP3 GT OR PUSH2 0x121D JUMPI PUSH1 0x40 MSTORE JUMP JUMPDEST PUSH4 0x4E487B71 PUSH1 0xE0 SHL PUSH1 0x0 MSTORE PUSH1 0x41 PUSH1 0x4 MSTORE PUSH1 0x24 PUSH1 0x0 REVERT JUMPDEST SWAP1 PUSH1 0x1F DUP1 NOT SWAP2 ADD AND DUP2 ADD SWAP1 DUP2 LT PUSH8 0xFFFFFFFFFFFFFFFF DUP3 GT OR PUSH2 0x121D JUMPI PUSH1 0x40 MSTORE JUMP JUMPDEST PUSH8 0xFFFFFFFFFFFFFFFF DUP2 GT PUSH2 0x121D JUMPI PUSH1 0x1F ADD PUSH1 0x1F NOT AND PUSH1 0x20 ADD SWAP1 JUMP JUMPDEST SWAP1 PUSH1 0x1 DUP3 DUP2 SHR SWAP3 AND DUP1 ISZERO PUSH2 0x12A1 JUMPI JUMPDEST PUSH1 0x20 DUP4 LT EQ PUSH2 0x128B JUMPI JUMP JUMPDEST PUSH4 0x4E487B71 PUSH1 0xE0 SHL PUSH1 0x0 MSTORE PUSH1 0x22 PUSH1 0x4 MSTORE PUSH1 0x24 PUSH1 0x0 REVERT JUMPDEST SWAP2 PUSH1 0x7F AND SWAP2 PUSH2 0x1280 JUMP JUMPDEST ISZERO PUSH2 0x12B2 JUMPI JUMP JUMPDEST PUSH1 0x40 MLOAD PUSH3 0x461BCD PUSH1 0xE5 SHL DUP2 MSTORE PUSH1 0x20 PUSH1 0x4 DUP3 ADD MSTORE PUSH1 0xE PUSH1 0x24 DUP3 ADD MSTORE PUSH14 0x139BDD08185D5D1A1BDC9A5E9959 PUSH1 0x92 SHL PUSH1 0x44 DUP3 ADD MSTORE PUSH1 0x64 SWAP1 REVERT JUMPDEST ISZERO PUSH2 0x12EF JUMPI JUMP JUMPDEST PUSH1 0x40 MLOAD PUSH3 0x461BCD PUSH1 0xE5 SHL DUP2 MSTORE PUSH1 0x20 PUSH1 0x4 DUP3 ADD MSTORE PUSH1 0x8 PUSH1 0x24 DUP3 ADD MSTORE PUSH8 0x416D6F756E743D3 PUSH1 0xC4 SHL PUSH1 0x44 DUP3 ADD MSTORE PUSH1 0x64 SWAP1 REVERT JUMPDEST PUSH1 0x1 PUSH1 0x1 PUSH1 0xA0 SHL SUB AND PUSH1 0x0 SWAP1 DUP2 MSTORE PUSH32 0x52C63247E1F47DB19D5CE0460030C497F067CA4CEBF71BA98EEADABE20BACE01 PUSH1 0x20 MSTORE PUSH1 0x40 SWAP1 KECCAK256 SWAP1 JUMP JUMPDEST PUSH1 0x1 PUSH1 0x1 PUSH1 0xA0 SHL SUB SWAP1 DUP2 AND SWAP1 DUP2 ISZERO PUSH2 0x13B3 JUMPI PUSH1 0x0 DUP1 MLOAD PUSH1 0x20 PUSH2 0x14AA DUP4 CODECOPY DUP2 MLOAD SWAP2 MSTORE DUP1 SLOAD PUSH1 0x1 PUSH1 0x1 PUSH1 0xA0 SHL SUB NOT DUP2 AND DUP5 OR SWAP1 SWAP2 SSTORE AND PUSH32 0x8BE0079C531659141344CD1FD0A4F28419497F9722A3DAAFE3B4186F6B6457E0 PUSH1 0x0 DUP1 LOG3 JUMP JUMPDEST PUSH1 0x40 MLOAD PUSH4 0x1E4FBDF7 PUSH1 0xE0 SHL DUP2 MSTORE PUSH1 0x0 PUSH1 0x4 DUP3 ADD MSTORE PUSH1 0x24 SWAP1 REVERT JUMPDEST PUSH1 0x0 DUP1 MLOAD PUSH1 0x20 PUSH2 0x14AA DUP4 CODECOPY DUP2 MLOAD SWAP2 MSTORE SLOAD PUSH1 0x1 PUSH1 0x1 PUSH1 0xA0 SHL SUB AND CALLER SUB PUSH2 0x13ED JUMPI JUMP JUMPDEST PUSH1 0x40 MLOAD PUSH4 0x118CDAA7 PUSH1 0xE0 SHL DUP2 MSTORE CALLER PUSH1 0x4 DUP3 ADD MSTORE PUSH1 0x24 SWAP1 REVERT JUMPDEST PUSH1 0xFF PUSH32 0xF0C57E16840DF040F15088DC2F81FE391C3923BEC73E23A9662EFC9C229C6A00 SLOAD PUSH1 0x40 SHR AND ISZERO PUSH2 0x1434 JUMPI JUMP JUMPDEST PUSH1 0x40 MLOAD PUSH4 0x1AFCD79F PUSH1 0xE3 SHL DUP2 MSTORE PUSH1 0x4 SWAP1 REVERT JUMPDEST SWAP1 PUSH2 0x146D JUMPI POP DUP1 MLOAD ISZERO PUSH2 0x145B JUMPI PUSH1 0x20 DUP2 MLOAD SWAP2 ADD REVERT JUMPDEST PUSH1 0x40 MLOAD PUSH4 0xD6BDA275 PUSH1 0xE0 SHL DUP2 MSTORE PUSH1 0x4 SWAP1 REVERT JUMPDEST DUP2 MLOAD ISZERO DUP1 PUSH2 0x14A0 JUMPI JUMPDEST PUSH2 0x147E JUMPI POP SWAP1 JUMP JUMPDEST PUSH1 0x40 MLOAD PUSH4 0x9996B315 PUSH1 0xE0 SHL DUP2 MSTORE PUSH1 0x1 PUSH1 0x1 PUSH1 0xA0 SHL SUB SWAP1 SWAP2 AND PUSH1 0x4 DUP3 ADD MSTORE PUSH1 0x24 SWAP1 REVERT JUMPDEST POP DUP1 EXTCODESIZE ISZERO PUSH2 0x1476 JUMP INVALID SWAP1 AND 0xD0 SWAP14 PUSH19 0xD40FDAE2FD8CEAC6B6234C7706214FD39C1CD1 0xE6 MULMOD LOG0 MSTORE DUP13 NOT SWAP4 STOP LOG2 PUSH5 0x6970667358 0x22 SLT KECCAK256 PUSH23 0xFA539CB99F1A064DEFFE98D6F2412159B8097020A7218D 0xD4 0xF8 PUSH22 0xB1545BEDED64736F6C63430008180033000000000000 "},"methodIdentifiers":{"UPGRADE_INTERFACE_VERSION()":"ad3cb1cc","allowance(address,address)":"dd62ed3e","approve(address,uint256)":"095ea7b3","balanceOf(address)":"70a08231","burn(address,uint256)":"9dc29fac","decimals()":"313ce567","initialize(address)":"c4d66de8","mint(address,uint256)":"40c10f19","name()":"06fdde03","owner()":"8da5cb5b","platform()":"4bde38c8","proxiableUUID()":"52d1902d","renounceOwnership()":"715018a6","setPlatform(address)":"6945c5ea","symbol()":"95d89b41","totalSupply()":"18160ddd","transfer(address,uint256)":"a9059cbb","transferFrom(address,address,uint256)":"23b872dd","transferOwnership(address)":"f2fde38b","upgradeToAndCall(address,bytes)":"4f1ef286"}},"storageLayout":{"storage":[{"astId":11838,"contract":"contracts/VoltToken.sol:VoltToken","label":"platform","offset":0,"slot":"0","type":"t_address"}],"types":{"t_address":{"encoding":"inplace","label":"address","numberOfBytes":"20"}}}}}}