{"contracts/VoltPlatform.sol":{"VoltPlatform":{"abi":[{"inputs":[],"stateMutability":"nonpayable","type":"constructor"},{"inputs":[],"name":"ActiveLocksPresent","type":"error"},{"inputs":[{"internalType":"address","name":"target","type":"address"}],"name":"AddressEmptyCode","type":"error"},{"inputs":[],"name":"AlreadyReferred","type":"error"},{"inputs":[],"name":"AlreadyWhitelisted","type":"error"},{"inputs":[],"name":"AmountIsZero","type":"error"},{"inputs":[],"name":"BelowMinWithdraw","type":"error"},{"inputs":[],"name":"BonusStillLocked","type":"error"},{"inputs":[],"name":"ECDSAInvalidSignature","type":"error"},{"inputs":[{"internalType":"uint256","name":"length","type":"uint256"}],"name":"ECDSAInvalidSignatureLength","type":"error"},{"inputs":[{"internalType":"bytes32","name":"s","type":"bytes32"}],"name":"ECDSAInvalidSignatureS","type":"error"},{"inputs":[{"internalType":"address","name":"implementation","type":"address"}],"name":"ERC1967InvalidImplementation","type":"error"},{"inputs":[],"name":"ERC1967NonPayable","type":"error"},{"inputs":[],"name":"EmptyArray","type":"error"},{"inputs":[],"name":"EnforcedPause","type":"error"},{"inputs":[],"name":"ExpectedPause","type":"error"},{"inputs":[],"name":"FailedCall","type":"error"},{"inputs":[],"name":"InsufficientLiquidity","type":"error"},{"inputs":[],"name":"InvalidAddress","type":"error"},{"inputs":[],"name":"InvalidAmount","type":"error"},{"inputs":[],"name":"InvalidDuration","type":"error"},{"inputs":[],"name":"InvalidInitialization","type":"error"},{"inputs":[],"name":"InvalidReferrer","type":"error"},{"inputs":[],"name":"InvalidSignature","type":"error"},{"inputs":[],"name":"NoBonusToClaim","type":"error"},{"inputs":[],"name":"NotInitializing","type":"error"},{"inputs":[],"name":"NotVested","type":"error"},{"inputs":[],"name":"NotWhitelisted","type":"error"},{"inputs":[{"internalType":"address","name":"owner","type":"address"}],"name":"OwnableInvalidOwner","type":"error"},{"inputs":[{"internalType":"address","name":"account","type":"address"}],"name":"OwnableUnauthorizedAccount","type":"error"},{"inputs":[],"name":"ReentrancyGuardReentrantCall","type":"error"},{"inputs":[],"name":"ReferralCycle","type":"error"},{"inputs":[{"internalType":"address","name":"token","type":"address"}],"name":"SafeERC20FailedOperation","type":"error"},{"inputs":[],"name":"UUPSUnauthorizedCallContext","type":"error"},{"inputs":[{"internalType":"bytes32","name":"slot","type":"bytes32"}],"name":"UUPSUnsupportedProxiableUUID","type":"error"},{"anonymous":false,"inputs":[{"indexed":true,"internalType":"address","name":"user","type":"address"},{"indexed":false,"internalType":"uint256","name":"amount","type":"uint256"}],"name":"AdminBonusClaimed","type":"event"},{"anonymous":false,"inputs":[{"indexed":true,"internalType":"address","name":"from","type":"address"},{"indexed":true,"internalType":"address","name":"to","type":"address"},{"indexed":false,"internalType":"uint256","name":"amount","type":"uint256"}],"name":"AdminBonusTransferred","type":"event"},{"anonymous":false,"inputs":[{"indexed":false,"internalType":"uint256","name":"amount","type":"uint256"}],"name":"AdminDepositUSDT","type":"event"},{"anonymous":false,"inputs":[{"indexed":false,"internalType":"uint256","name":"amount","type":"uint256"}],"name":"AdminWithdrawUSDT","type":"event"},{"anonymous":false,"inputs":[{"indexed":true,"internalType":"address","name":"user","type":"address"},{"indexed":false,"internalType":"uint256","name":"amount","type":"uint256"}],"name":"BonusClaimed","type":"event"},{"anonymous":false,"inputs":[{"indexed":true,"internalType":"address","name":"user","type":"address"},{"indexed":false,"internalType":"uint256","name":"bonusAmount","type":"uint256"},{"indexed":false,"internalType":"uint256","name":"vestingEnd","type":"uint256"}],"name":"BonusGranted","type":"event"},{"anonymous":false,"inputs":[{"indexed":false,"internalType":"uint256","name":"count","type":"uint256"}],"name":"BulkWhitelisted","type":"event"},{"anonymous":false,"inputs":[{"indexed":true,"internalType":"address","name":"user","type":"address"},{"indexed":false,"internalType":"uint256","name":"usdtAmount","type":"uint256"},{"indexed":false,"internalType":"uint256","name":"voltMinted","type":"uint256"},{"indexed":false,"internalType":"address","name":"referrer","type":"address"}],"name":"Deposited","type":"event"},{"anonymous":false,"inputs":[],"name":"EIP712DomainChanged","type":"event"},{"anonymous":false,"inputs":[{"indexed":false,"internalType":"uint64","name":"version","type":"uint64"}],"name":"Initialized","type":"event"},{"anonymous":false,"inputs":[{"indexed":true,"internalType":"address","name":"user","type":"address"},{"indexed":false,"internalType":"uint256","name":"interestVolt","type":"uint256"}],"name":"InterestClaimed","type":"event"},{"anonymous":false,"inputs":[{"indexed":true,"internalType":"address","name":"user","type":"address"},{"indexed":false,"internalType":"uint256","name":"amount","type":"uint256"},{"indexed":false,"internalType":"uint256","name":"durationDays","type":"uint256"},{"indexed":false,"internalType":"uint256","name":"bonusAtUnlock","type":"uint256"}],"name":"Locked","type":"event"},{"anonymous":false,"inputs":[{"indexed":true,"internalType":"address","name":"previousOwner","type":"address"},{"indexed":true,"internalType":"address","name":"newOwner","type":"address"}],"name":"OwnershipTransferStarted","type":"event"},{"anonymous":false,"inputs":[{"indexed":true,"internalType":"address","name":"previousOwner","type":"address"},{"indexed":true,"internalType":"address","name":"newOwner","type":"address"}],"name":"OwnershipTransferred","type":"event"},{"anonymous":false,"inputs":[],"name":"ParamsUpdated","type":"event"},{"anonymous":false,"inputs":[{"indexed":false,"internalType":"address","name":"account","type":"address"}],"name":"Paused","type":"event"},{"anonymous":false,"inputs":[{"indexed":true,"internalType":"address","name":"to","type":"address"},{"indexed":false,"internalType":"uint256","name":"level","type":"uint256"},{"indexed":false,"internalType":"uint256","name":"amount","type":"uint256"}],"name":"ReferralBonusPaid","type":"event"},{"anonymous":false,"inputs":[{"indexed":true,"internalType":"address","name":"referrer","type":"address"},{"indexed":true,"internalType":"address","name":"referee","type":"address"},{"indexed":false,"internalType":"uint256","name":"depositAmount","type":"uint256"}],"name":"Referred","type":"event"},{"anonymous":false,"inputs":[{"indexed":true,"internalType":"address","name":"user","type":"address"},{"indexed":false,"internalType":"uint256","name":"releasedAmount","type":"uint256"},{"indexed":false,"internalType":"uint256","name":"bonusReleased","type":"uint256"}],"name":"Unlocked","type":"event"},{"anonymous":false,"inputs":[{"indexed":false,"internalType":"address","name":"account","type":"address"}],"name":"Unpaused","type":"event"},{"anonymous":false,"inputs":[{"indexed":true,"internalType":"address","name":"implementation","type":"address"}],"name":"Upgraded","type":"event"},{"anonymous":false,"inputs":[{"indexed":true,"internalType":"address","name":"user","type":"address"}],"name":"Whitelisted","type":"event"},{"anonymous":false,"inputs":[{"indexed":true,"internalType":"address","name":"user","type":"address"},{"indexed":false,"internalType":"uint256","name":"voltBurned","type":"uint256"},{"indexed":false,"internalType":"uint256","name":"usdtSent","type":"uint256"},{"indexed":false,"internalType":"uint256","name":"feeBp","type":"uint256"},{"indexed":false,"internalType":"bool","name":"fullExit","type":"bool"}],"name":"Withdrawn","type":"event"},{"inputs":[],"name":"BONUS_CAP_USDT","outputs":[{"internalType":"uint256","name":"","type":"uint256"}],"stateMutability":"view","type":"function"},{"inputs":[],"name":"BP","outputs":[{"internalType":"uint256","name":"","type":"uint256"}],"stateMutability":"view","type":"function"},{"inputs":[],"name":"FIVE_YEARS_DAYS","outputs":[{"internalType":"uint256","name":"","type":"uint256"}],"stateMutability":"view","type":"function"},{"inputs":[],"name":"ONE_DAY","outputs":[{"internalType":"uint256","name":"","type":"uint256"}],"stateMutability":"view","type":"function"},{"inputs":[],"name":"ONE_USDT","outputs":[{"internalType":"uint256","name":"","type":"uint256"}],"stateMutability":"view","type":"function"},{"inputs":[],"name":"TIER1_MAX","outputs":[{"internalType":"uint256","name":"","type":"uint256"}],"stateMutability":"view","type":"function"},{"inputs":[],"name":"TIER1_MIN","outputs":[{"internalType":"uint256","name":"","type":"uint256"}],"stateMutability":"view","type":"function"},{"inputs":[],"name":"TIER2_MAX","outputs":[{"internalType":"uint256","name":"","type":"uint256"}],"stateMutability":"view","type":"function"},{"inputs":[],"name":"TIER2_MIN","outputs":[{"internalType":"uint256","name":"","type":"uint256"}],"stateMutability":"view","type":"function"},{"inputs":[],"name":"UPGRADE_INTERFACE_VERSION","outputs":[{"internalType":"string","name":"","type":"string"}],"stateMutability":"view","type":"function"},{"inputs":[],"name":"YEAR_DAYS","outputs":[{"internalType":"uint256","name":"","type":"uint256"}],"stateMutability":"view","type":"function"},{"inputs":[],"name":"acceptOwnership","outputs":[],"stateMutability":"nonpayable","type":"function"},{"inputs":[{"internalType":"address[]","name":"users","type":"address[]"}],"name":"addToWhitelist","outputs":[],"stateMutability":"nonpayable","type":"function"},{"inputs":[{"internalType":"address","name":"user","type":"address"}],"name":"adminClaimBonusForUser","outputs":[],"stateMutability":"nonpayable","type":"function"},{"inputs":[{"internalType":"uint256","name":"amount","type":"uint256"}],"name":"adminDepositUSDT","outputs":[],"stateMutability":"nonpayable","type":"function"},{"inputs":[{"internalType":"address","name":"from","type":"address"},{"internalType":"address","name":"to","type":"address"},{"internalType":"uint256","name":"amount","type":"uint256"}],"name":"adminTransferBonus","outputs":[],"stateMutability":"nonpayable","type":"function"},{"inputs":[{"internalType":"uint256","name":"amount","type":"uint256"}],"name":"adminWithdrawUSDT","outputs":[],"stateMutability":"nonpayable","type":"function"},{"inputs":[{"internalType":"address","name":"user","type":"address"}],"name":"balanceOfVolt","outputs":[{"internalType":"uint256","name":"","type":"uint256"}],"stateMutability":"view","type":"function"},{"inputs":[],"name":"baseApyBp","outputs":[{"internalType":"uint256","name":"","type":"uint256"}],"stateMutability":"view","type":"function"},{"inputs":[{"internalType":"address","name":"","type":"address"}],"name":"bonusBalance","outputs":[{"internalType":"uint256","name":"","type":"uint256"}],"stateMutability":"view","type":"function"},{"inputs":[{"internalType":"address","name":"","type":"address"}],"name":"bonusVestingEnd","outputs":[{"internalType":"uint256","name":"","type":"uint256"}],"stateMutability":"view","type":"function"},{"inputs":[{"internalType":"address","name":"user","type":"address"}],"name":"calculateAccruedInterest","outputs":[{"internalType":"uint256","name":"","type":"uint256"}],"stateMutability":"view","type":"function"},{"inputs":[{"internalType":"address","name":"user","type":"address"}],"name":"canWithdrawBonus","outputs":[{"internalType":"bool","name":"","type":"bool"}],"stateMutability":"view","type":"function"},{"inputs":[],"name":"claimAllVestedBonus","outputs":[],"stateMutability":"nonpayable","type":"function"},{"inputs":[],"name":"claimInterest","outputs":[],"stateMutability":"nonpayable","type":"function"},{"inputs":[{"internalType":"uint256","name":"amount","type":"uint256"},{"internalType":"address","name":"referrer","type":"address"},{"internalType":"uint8","name":"v","type":"uint8"},{"internalType":"bytes32","name":"r","type":"bytes32"},{"internalType":"bytes32","name":"s","type":"bytes32"}],"name":"depositUSDT","outputs":[],"stateMutability":"nonpayable","type":"function"},{"inputs":[],"name":"eip712Domain","outputs":[{"internalType":"bytes1","name":"fields","type":"bytes1"},{"internalType":"string","name":"name","type":"string"},{"internalType":"string","name":"version","type":"string"},{"internalType":"uint256","name":"chainId","type":"uint256"},{"internalType":"address","name":"verifyingContract","type":"address"},{"internalType":"bytes32","name":"salt","type":"bytes32"},{"internalType":"uint256[]","name":"extensions","type":"uint256[]"}],"stateMutability":"view","type":"function"},{"inputs":[],"name":"feeGte500Bp","outputs":[{"internalType":"uint256","name":"","type":"uint256"}],"stateMutability":"view","type":"function"},{"inputs":[],"name":"feeLt500Bp","outputs":[{"internalType":"uint256","name":"","type":"uint256"}],"stateMutability":"view","type":"function"},{"inputs":[{"internalType":"address","name":"user","type":"address"}],"name":"getLockedAmount","outputs":[{"internalType":"uint256","name":"total","type":"uint256"}],"stateMutability":"view","type":"function"},{"inputs":[{"internalType":"address","name":"user","type":"address"}],"name":"getUserOverview","outputs":[{"internalType":"bool","name":"isWhitelisted","type":"bool"},{"internalType":"address","name":"referrer","type":"address"},{"internalType":"uint256","name":"availableVolt","type":"uint256"},{"internalType":"uint256","name":"lockedVolt","type":"uint256"},{"internalType":"uint256","name":"bonusBal","type":"uint256"},{"internalType":"uint256","name":"bonusEnd","type":"uint256"},{"internalType":"uint256","name":"accruedInterest","type":"uint256"},{"internalType":"bool","name":"deposited","type":"bool"}],"stateMutability":"view","type":"function"},{"inputs":[{"internalType":"address","name":"","type":"address"}],"name":"hasDeposited","outputs":[{"internalType":"bool","name":"","type":"bool"}],"stateMutability":"view","type":"function"},{"inputs":[{"internalType":"address","name":"","type":"address"}],"name":"hasReceivedFirstDepositBonus","outputs":[{"internalType":"bool","name":"","type":"bool"}],"stateMutability":"view","type":"function"},{"inputs":[{"internalType":"address","name":"usdt_","type":"address"},{"internalType":"address","name":"voltToken_","type":"address"},{"internalType":"address","name":"owner_","type":"address"}],"name":"initialize","outputs":[],"stateMutability":"nonpayable","type":"function"},{"inputs":[{"internalType":"address","name":"","type":"address"}],"name":"lastAccrualTime","outputs":[{"internalType":"uint256","name":"","type":"uint256"}],"stateMutability":"view","type":"function"},{"inputs":[{"internalType":"uint256","name":"amount","type":"uint256"},{"internalType":"uint256","name":"durationDays","type":"uint256"}],"name":"lock","outputs":[],"stateMutability":"nonpayable","type":"function"},{"inputs":[{"internalType":"address","name":"","type":"address"},{"internalType":"uint256","name":"","type":"uint256"}],"name":"locks","outputs":[{"internalType":"uint256","name":"amount","type":"uint256"},{"internalType":"uint256","name":"startTime","type":"uint256"},{"internalType":"uint256","name":"durationDays","type":"uint256"},{"internalType":"uint256","name":"multiplierBp","type":"uint256"},{"internalType":"uint256","name":"aprBp","type":"uint256"},{"internalType":"uint256","name":"bonusAtUnlock","type":"uint256"},{"internalType":"bool","name":"active","type":"bool"}],"stateMutability":"view","type":"function"},{"inputs":[],"name":"minWithdrawUSDT","outputs":[{"internalType":"uint256","name":"","type":"uint256"}],"stateMutability":"view","type":"function"},{"inputs":[],"name":"owner","outputs":[{"internalType":"address","name":"","type":"address"}],"stateMutability":"view","type":"function"},{"inputs":[],"name":"paused","outputs":[{"internalType":"bool","name":"","type":"bool"}],"stateMutability":"view","type":"function"},{"inputs":[],"name":"pendingOwner","outputs":[{"internalType":"address","name":"","type":"address"}],"stateMutability":"view","type":"function"},{"inputs":[],"name":"proxiableUUID","outputs":[{"internalType":"bytes32","name":"","type":"bytes32"}],"stateMutability":"view","type":"function"},{"inputs":[{"internalType":"uint256","name":"","type":"uint256"}],"name":"refBp","outputs":[{"internalType":"uint256","name":"","type":"uint256"}],"stateMutability":"view","type":"function"},{"inputs":[{"internalType":"address","name":"","type":"address"}],"name":"referralNonce","outputs":[{"internalType":"uint256","name":"","type":"uint256"}],"stateMutability":"view","type":"function"},{"inputs":[{"internalType":"address","name":"","type":"address"}],"name":"referrerOf","outputs":[{"internalType":"address","name":"","type":"address"}],"stateMutability":"view","type":"function"},{"inputs":[],"name":"renounceOwnership","outputs":[],"stateMutability":"nonpayable","type":"function"},{"inputs":[],"name":"totalBonusOutstanding","outputs":[{"internalType":"uint256","name":"","type":"uint256"}],"stateMutability":"view","type":"function"},{"inputs":[],"name":"totalVoltBurned","outputs":[{"internalType":"uint256","name":"","type":"uint256"}],"stateMutability":"view","type":"function"},{"inputs":[],"name":"totalVoltMinted","outputs":[{"internalType":"uint256","name":"","type":"uint256"}],"stateMutability":"view","type":"function"},{"inputs":[{"internalType":"address","name":"newOwner","type":"address"}],"name":"transferOwnership","outputs":[],"stateMutability":"nonpayable","type":"function"},{"inputs":[{"internalType":"uint256","name":"lockIndex","type":"uint256"}],"name":"unlock","outputs":[],"stateMutability":"nonpayable","type":"function"},{"inputs":[{"internalType":"uint256","name":"_baseApyBp","type":"uint256"},{"internalType":"uint256","name":"_minWithdrawUSDT","type":"uint256"},{"internalType":"uint256","name":"_feeLt500Bp","type":"uint256"},{"internalType":"uint256","name":"_feeGte500Bp","type":"uint256"}],"name":"updateParams","outputs":[],"stateMutability":"nonpayable","type":"function"},{"inputs":[{"internalType":"uint256[7]","name":"newRefBp","type":"uint256[7]"}],"name":"updateReferralRewards","outputs":[],"stateMutability":"nonpayable","type":"function"},{"inputs":[{"internalType":"address","name":"newImplementation","type":"address"},{"internalType":"bytes","name":"data","type":"bytes"}],"name":"upgradeToAndCall","outputs":[],"stateMutability":"payable","type":"function"},{"inputs":[],"name":"usdt","outputs":[{"internalType":"contract IERC20","name":"","type":"address"}],"stateMutability":"view","type":"function"},{"inputs":[],"name":"volt","outputs":[{"internalType":"contract IVoltToken","name":"","type":"address"}],"stateMutability":"view","type":"function"},{"inputs":[{"internalType":"address","name":"","type":"address"}],"name":"whitelisted","outputs":[{"internalType":"bool","name":"","type":"bool"}],"stateMutability":"view","type":"function"},{"inputs":[{"internalType":"uint256","name":"voltAmount","type":"uint256"},{"internalType":"bool","name":"fullExit","type":"bool"}],"name":"withdrawUSDT","outputs":[],"stateMutability":"nonpayable","type":"function"}],"evm":{"bytecode":{"linkReferences":{},"object":"60a08060405234620000d157306080527ff0c57e16840df040f15088dc2f81fe391c3923bec73e23a9662efc9c229c6a009081549060ff8260401c16620000c257506001600160401b036002600160401b0319828216016200007c575b60405161395e9081620000d78239608051818181611c5c0152611d5f0152f35b6001600160401b031990911681179091556040519081527fc7f505b2f371ae2175ee4913f4499e1f2633a7b5936321eed1cdaeb6115181d290602090a13880806200005c565b63f92ee8a960e01b8152600490fd5b600080fdfe608080604052600436101561001357600080fd5b60009060e08235811c9182630401a8fa14612d785750816304b5e87114612d4b5781631272f7b514612d2d5781631338736f14612a2d57816317607ad914612a04578163221b4a0214612967578163241a856e1461292e57816324a818291461282157816324ebae69146128025781632c42c9f5146121415781632cfb27c1146121245781632f48ab7d146120fd57816330ab6f761461208d57816335981fd814611f8b578163366a307f14611f4c57816343019b4114611f135781634f1ef28614611ce45781635023e46314611cc657816352d1902d14611c49578163552eec2f14611b975781635c975abb14611b555781635ecd37e214611b365781636198e3391461198a5781636860c192146117135781636e13019b146115f6578163710a7088146115d8578163715018a61461155657816374f17bf9146115325781637961954c1461151357816379ba5097146114bd5781637f64978314611355578163803039d91461133757816383d5eda51461131957816384b0196e146111a9578163863e76db1461118b5781638c74d6f4146111525781638da5cb5b1461111c57816391e3c47914611012578163929ec53714610fee5781639764cabd14610fd05781639cfdbd5e14610fb3578163ad3cb1cc14610f69578163b0557bf114610e46578163b298b77114610e0d578163b425f80214610d7257508063bd7feaf214610d52578063c0c53b8b146106aa578063d21cacdf1461066e578063d41a2aac14610650578063d6ef404614610624578063d936547e146105e5578063dca35e2d1461045a578063e30c397814610424578063e4bd07c414610405578063f2c16e6f146103c6578063f2fde38b1461033e578063f5aa5020146103215763f641e42f146102a157600080fd5b3461031e57602036600319011261031e576004356102bd6132dd565b801561030c5781547fcdddbc1ce8877a8b0991d6a01e5b9a0d0bbdce32d72797a5c7660679509acef091602091610302908290309033906001600160a01b03166132fe565b604051908152a180f35b6040516310eb483f60e21b8152600490fd5b80fd5b503461031e578060031936011261031e57602060405161016d8152f35b503461031e57602036600319011261031e57610358612dfe565b6103606132dd565b60008051602061390983398151915280546001600160a01b0319166001600160a01b039283169081179091556000805160206138c9833981519152549091167f38d16b8cac22d99fc7c124b9cd0de2d3fa1faef420bfe791d8c362d765e227008380a380f35b503461031e57602036600319011261031e5760209060ff906040906001600160a01b036103f1612dfe565b168152600884522054166040519015158152f35b503461031e578060031936011261031e57602060405163060523408152f35b503461031e578060031936011261031e57600080516020613909833981519152546040516001600160a01b039091168152602090f35b503461031e578060031936011261031e57610473613270565b61047b6132a0565b33815260206006815260ff604083205416156105d35733825260148152604082205480159081156105c9575b506105b7573382526013815260408220549081156105a55733835260138152826040812055601481528260408120556104e282601254612eeb565b60125560015483906001600160a01b0316803b156105a1576040516340c10f1960e01b8152336004820152602481018590529082908290604490829084905af180156105965761057e575b50507f4e69fdc49495bcab2b4375781457ba16653a90eb4ffb6588351bdc39071433e29061055d83601054612ede565b6010556040519283523392a260016000805160206138e98339815191525580f35b61058790612d94565b61059257823861052d565b8280fd5b6040513d84823e3d90fd5b5080fd5b60405163cb5e241b60e01b8152600490fd5b60405163437e486760e01b8152600490fd5b90504210386104a7565b604051630b094f2760e31b8152600490fd5b503461031e57602036600319011261031e5760209060ff906040906001600160a01b03610610612dfe565b168152600684522054166040519015158152f35b503461031e57602036600319011261031e576020610648610643612dfe565b61308a565b604051908152f35b503461031e578060031936011261031e576020600254604051908152f35b503461031e57602036600319011261031e576020906001600160a01b039060409082610698612dfe565b16815260078452205416604051908152f35b503461031e57606036600319011261031e576106c4612dfe565b6106cc612e14565b604435916001600160a01b0383168303610d4d577ff0c57e16840df040f15088dc2f81fe391c3923bec73e23a9662efc9c229c6a00918254916001600160401b03831680159081610d3d575b6001149081610d33575b159081610d2a575b50610d185760016001600160401b0319841617845560ff8360401c1615610cf9575b610754613755565b61075c613755565b6001600160a01b03851615610ce05761077485613399565b61077c613755565b610784613755565b61078c613755565b60016000805160206138e9833981519152556107a6613755565b6107ae613755565b6040516107ba81612dc2565b600c81526b566f6c74506c6174666f726d60a01b6020820152604051906107e082612dc2565b60018252603160f81b60208301526107f6613755565b6107fe613755565b8051906001600160401b038211610ccc5781906108296000805160206138a983398151915254613407565b601f8111610c71575b50602090601f8311600114610bcf578a92610bc4575b50508160011b916000199060031b1c1916176000805160206138a9833981519152555b80516001600160401b038111610bb057807fa16a46d94261c7517cc8ff89f61c0ce93598e3c849801011dee649a6a557d103926108a88454613407565b601f8111610b58575b50602090601f8311600114610ad7578a92610acc575b50508160011b916000199060031b1c19161790555b7fa16a46d94261c7517cc8ff89f61c0ce93598e3c849801011dee649a6a557d1008690557fa16a46d94261c7517cc8ff89f61c0ce93598e3c849801011dee649a6a557d1018690556001600160a01b03169081158015610abb575b610aa9576bffffffffffffffffffffffff60a01b918287541617865560018060a01b03168160015416176001556102586002556308f0d1806003556103e8806004556101f4806005556040519161098d83612da7565b8252602082015260c860408201526064606082015260326080820152601960a0820152600a60c0820152855b60078110610a905750506001600160a01b03939093168085526006602090815260408087208054600160ff1991821681179092556007845282892080549098168517909755600883528188208054909716179095556015905283852042905592519260ff91907faab7954e9d246b167ef88aeddad35209ca2489d95a8aeb59e288d9b19fae5a548680a260401c1615610a50578280f35b805468ff000000000000000019169055600181527fc7f505b2f371ae2175ee4913f4499e1f2633a7b5936321eed1cdaeb6115181d290602090a138808280f35b600190602061ffff8451169301928160090155016109b9565b60405163e6c4247b60e01b8152600490fd5b506001600160a01b03811615610937565b0151905038806108c7565b848b527f5f9ce34815f8e11431c7bb75a8e6886a91478f7ffc1dbb0a98dc240fddd76b759250601f1984168b5b818110610b405750908460019594939210610b27575b505050811b0190556108dc565b015160001960f88460031b161c19169055388080610b1a565b92936020600181928786015181550195019301610b04565b610ba090858c527f5f9ce34815f8e11431c7bb75a8e6886a91478f7ffc1dbb0a98dc240fddd76b75601f850160051c81019160208610610ba6575b601f0160051c0190612f0b565b386108b1565b9091508190610b93565b634e487b7160e01b88526041600452602488fd5b015190503880610848565b92506000805160206138a98339815191528a527f42ad5d3e1f2e6e70edcf6d991b8a3023d3fca8047a131592f9edb9fd9b89d57d908a935b601f1984168510610c56576001945083601f19811610610c3d575b505050811b016000805160206138a98339815191525561086b565b015160001960f88460031b161c19169055388080610c22565b81810151835560209485019460019093019290910190610c07565b610cc6906000805160206138a98339815191528c527f42ad5d3e1f2e6e70edcf6d991b8a3023d3fca8047a131592f9edb9fd9b89d57d601f850160051c81019160208610610ba657601f0160051c0190612f0b565b38610832565b634e487b7160e01b89526041600452602489fd5b604051631e4fbdf760e01b815260048101879052602490fd5b68ffffffffffffffffff1983166801000000000000000117845561074c565b60405163f92ee8a960e01b8152600490fd5b9050153861072a565b303b159150610722565b604085901c60ff16159150610718565b600080fd5b503461031e578060031936011261031e5760206040516402540be4008152f35b9050346105a15760403660031901126105a157610d8d612dfe565b6001600160a01b0316825260186020526040822080546024359190821015610e095790610db991612e85565b508054906001810154906002810154600382015460048301549160ff600660058601549501541694604051968752602087015260408601526060850152608084015260a0830152151560c0820152f35b8380fd5b823461031e57602036600319011261031e576020906040906001600160a01b03610e35612dfe565b168152601383522054604051908152f35b823461031e57608036600319011261031e57606435604435602435600435610e6c6132dd565b6127108111610f35578115610f0257611388808411159081610ef7575b5015610ec2576002556003556004556005557f4e5005547c24dfd12003c2845fd20f2071c49fa3cd30b0be7a064e3f4c3f8d2a8180a180f35b60405162461bcd60e51b815260206004820152600d60248201526c08ccacae640e8dede40d0d2ced609b1b6044820152606490fd5b905084111586610e89565b60405162461bcd60e51b815260206004820152600b60248201526a24b73b30b634b21036b4b760a91b6044820152606490fd5b60405162461bcd60e51b815260206004820152600c60248201526b082a0b240e8dede40d0d2ced60a31b6044820152606490fd5b823461031e578060031936011261031e57610faf604051610f8981612dc2565b60058152640352e302e360dc1b6020820152604051918291602083526020830190612e45565b0390f35b823461031e578060031936011261031e5760206040516127108152f35b823461031e578060031936011261031e576020600454604051908152f35b823461031e57602036600319011261031e57602061064861100d612dfe565b61301f565b823461031e57602036600319011261031e5761102c612dfe565b6110346132dd565b6001600160a01b0381811680845260136020526040842054909290919082156105a55784918483526013602052826040812055601460205282604081205561107e84601254612eeb565b60125560015416803b15610592576040516340c10f1960e01b81526001600160a01b039290921660048301526024820184905282908290604490829084905af1801561059657611108575b50506020816110fb7fbf7f4ce048510f7136da3dcf4031409f09d9a069fb46f061891fcb35610c305293601054612ede565b601055604051908152a280f35b61111190612d94565b6105925782846110c9565b823461031e578060031936011261031e576000805160206138c9833981519152546040516001600160a01b039091168152602090f35b823461031e57602036600319011261031e576020906040906001600160a01b0361117a612dfe565b168152601483522054604051908152f35b823461031e578060031936011261031e576020604051620151808152f35b823461031e578060031936011261031e577fa16a46d94261c7517cc8ff89f61c0ce93598e3c849801011dee649a6a557d1005415806112f0575b156112b3576111f0613441565b906111f9613517565b6040519160209160208401948486106001600160401b0387111761129d579492602061125388969386604052858552611245604051998a99600f60f81b8b5280868c01528a0190612e45565b9088820360408a0152612e45565b924660608801523060808801528460a088015286840360c088015251928381520193925b82811061128657505050500390f35b835185528695509381019392810192600101611277565b634e487b7160e01b600052604160045260246000fd5b60405162461bcd60e51b81526020600482015260156024820152741152540dcc4c8e88155b9a5b9a5d1a585b1a5e9959605a1b6044820152606490fd5b507fa16a46d94261c7517cc8ff89f61c0ce93598e3c849801011dee649a6a557d10154156111e3565b823461031e578060031936011261031e576020601154604051908152f35b823461031e578060031936011261031e576020604051620f42408152f35b823461031e576020806003193601126105a157600435906001600160401b03808311610e095736602384011215610e09578260040135908111610e095760246005933660248460051b830101116114b9576113ae6132dd565b82156114a75793929190859486945b8386106113fd578787806113cf575080f35b60207fae041f9d923f738569780d6c09f095346e691e527852a2698cdb3f51389f36fe91604051908152a180f35b9091929394958387831b8401013560018060a01b0381168091036114a3578015801561148e575b6114845760019181611477928b526006895260408b208460ff19825416179055601589524260408c20557faab7954e9d246b167ef88aeddad35209ca2489d95a8aeb59e288d9b19fae5a548b80a2612f22565b965b0194939291906113bd565b5095600190611479565b508089526006875260ff60408a205416611424565b8880fd5b60405163521299a960e01b8152600490fd5b8580fd5b823461031e578060031936011261031e5760008051602061390983398151915254336001600160a01b03909116036114fb576114f833613399565b80f35b60405163118cdaa760e01b8152336004820152602490fd5b823461031e578060031936011261031e5760206040516302faf0808152f35b823461031e57602036600319011261031e576020610648611551612dfe565b612f61565b823461031e578060031936011261031e5761156f6132dd565b60008051602061390983398151915280546001600160a01b03199081169091556000805160206138c9833981519152805491821690556000906001600160a01b03167f8be0079c531659141344cd1fd0a4f28419497f9722a3daafe3b4186f6b6457e08280a380f35b823461031e578060031936011261031e576020600354604051908152f35b823461031e576020806003193601126105a157600435906116156132dd565b811561030c5761162a60105460115490612eeb565b83546040516370a0823160e01b81523060048201526001600160a01b039492918516918482602481865afa9182156117085787926116d9575b50808211918215926116c6575b50506116b45781610302917ffe3b13defe989ae4f834e0b20b5a1ceb1eeeac592820020fdb22ebd8382dfd2f956000805160206138c9833981519152541690613358565b60405163bb55fd2760e01b8152600490fd5b6116d09250612eeb565b82118680611670565b9091508481813d8311611701575b6116f18183612ddd565b81010312610d4d57519087611663565b503d6116e7565b6040513d89823e3d90fd5b823461031e57604036600319011261031e5760043560243580151590818103610e095761173e613270565b6117466132a0565b3384526020906006825260ff604086205416156105d357600354841061197857831561030c578080611967575b61195557631dcd650084101561194c57600454915b61179f6127106117988588612ef8565b0486612eeb565b86546040516370a0823160e01b81523060048201529193916001600160a01b039184908290602490829086165afa80156119415785918a91611910575b50106116b457878160015416803b156105a157604051632770a7eb60e21b8152336004820152602481018a9052919081908390604490829084905af19182156119035786926118e8575b50506118459161183889601154612ede565b60115533908a5416613358565b806118d4575b61189e575b604051948552840152604083015260608201527f55845e77d150a6bb68cdbcd26c664b9cc5d8e36485c3c1685d0abafbe0c7fb6260803392a260016000805160206138e98339815191525580f35b338652601381526118b56040872054601254612eeb565b6012553386526013815285604081205560148152856040812055611850565b50338652601381526040862054151561184b565b6118f3919250612d94565b6118ff5783888a611826565b8780fd5b50604051903d90823e3d90fd5b809250858092503d831161193a575b6119298183612ddd565b81010312610d4d578490518a6117dc565b503d61191f565b6040513d8b823e3d90fd5b60055491611788565b60405163b120add560e01b8152600490fd5b506119713361301f565b1515611773565b6040516336633d3760e01b8152600490fd5b823461031e57602036600319011261031e576004356119a7613270565b6119af6132a0565b338252600660205260ff604083205416156105d35733825260186020526040822054811015611b24576119ed90338352601860205260408320612e85565b50600681019060ff82541615611b245760018101546002820154906201518091828102928184041490151715611b105790611a2791612ede565b4210611afe57611a3f60058254920191825490612ede565b60015490929084906001600160a01b0316803b156105a1576040516340c10f1960e01b8152336004820152602481018690529082908290604490829084905af1801561059657611aea575b5050611a9883601054612ede565b60105560ff1981541690555460405191825260208201527f3f2f29fa02cc34566ac167b446be0be9e0254cac18eda93b2dfe6a7a7c8affb960403392a260016000805160206138e98339815191525580f35b611af390612d94565b610e09578385611a8a565b604051639225b94160e01b8152600490fd5b634e487b7160e01b85526011600452602485fd5b60405163162908e360e11b8152600490fd5b823461031e578060031936011261031e576020604051631dcd65008152f35b823461031e578060031936011261031e57602060ff7fcd5ed15c6e187e77e9aee88184c21f4f2182ab5827cb3b7e07fbedcd63f0330054166040519015158152f35b823461031e57602091826003193601126105a15761010092611bb7612dfe565b9260018060a01b0393848116918281526006845260ff6040822054169560078552604082205416611be783612f61565b611bf08461301f565b918584526013875260ff6040808620549560148a52611c12828220549861308a565b98815260088a52205416966040519915158a5289015260408801526060870152608086015260a085015260c0840152151590820152f35b823461031e578060031936011261031e577f00000000000000000000000000000000000000000000000000000000000000006001600160a01b03163003611cb45760206040517f360894a13ba1a3210667c828492db98dca3e2076cc3735a920a3ca505d382bbc8152f35b60405163703e46dd60e11b8152600490fd5b823461031e578060031936011261031e576020601054604051908152f35b82604036600319011261031e57611cf9612dfe565b60249182356001600160401b0381116105a157366023820112156105a157806004013592611d2684612e2a565b611d336040519182612ddd565b84815260209485820193368883830101116114b957818692898993018737830101526001600160a01b037f00000000000000000000000000000000000000000000000000000000000000008116308114908115611ee5575b50611cb457611d986132dd565b6040516352d1902d60e01b81529083169580826004818a5afa9182918793611eb5575b5050611dd957604051634c9c8ce360e01b8152600481018790528790fd5b8590877f360894a13ba1a3210667c828492db98dca3e2076cc3735a920a3ca505d382bbc91828103611ea05750843b15611e8a575080546001600160a01b031916821790556040518592917fbc7cd75a20ee27fd9adebab32041f755214dbc6bffa90cc0225b39da2e5c2d3b8480a2815115611e6d5750611e699382915190845af4611e63612f31565b91613845565b5080f35b935050505034611e7b575080f35b63b398979f60e01b8152600490fd5b604051634c9c8ce360e01b815260048101849052fd5b60405190632a87526960e21b82526004820152fd5b9080929350813d8311611ede575b611ecd8183612ddd565b810103126114b95751908880611dbb565b503d611ec3565b9050817f360894a13ba1a3210667c828492db98dca3e2076cc3735a920a3ca505d382bbc5416141588611d8b565b823461031e57602036600319011261031e576020906040906001600160a01b03611f3b612dfe565b168152601783522054604051908152f35b823461031e57602036600319011261031e5760209060ff906040906001600160a01b03611f77612dfe565b168152601684522054166040519015158152f35b823461031e578060031936011261031e57611fa4613270565b611fac6132a0565b338152600660205260ff604082205416156105d357611fca3361308a565b801561030c5733825260156020526040822042905560015482906001600160a01b0316803b156105a1576040516340c10f1960e01b8152336004820152602481018490529082908290604490829084905af1801561059657612079575b505061203581601054612ede565b6010556040519081527ff9984c8173c4b4ff9cc454f76ed19c053f4490ccb224fd9ddffeb4ef4bea353060203392a260016000805160206138e98339815191525580f35b61208290612d94565b6105a1578183612027565b823461031e57602036600319011261031e576020906001600160a01b036120b2612dfe565b168152601382526040812054151590816120eb575b816120d8575b506040519015158152f35b60409150601483522054421015826120cd565b601483526040812054151591506120c7565b823461031e578060031936011261031e57546040516001600160a01b039091168152602090f35b823461031e578060031936011261031e5760206040516107218152f35b823461031e5760a036600319011261031e5760043561215e612e14565b906044359160ff9081841684036127fe57612177613270565b61217f6132a0565b3385526020926006845282604087205416156105d357801561030c5733865260089460088552836040882054161590879382806127ec575b612594575b505086546001600160a01b0394906121db9084903090339089166132fe565b6001968588541692833b15612590576040516340c10f1960e01b815233600482015260248101869052938a9081908690604490829084905af1948515611903578a95612577575b505061223085601054612ede565b601055338a526015885260408a2080541561256e575b508080612560575b61247d575b6122a4575b505050604051938185528401521660408201527fa49637e3f6491de6c2c23c5006bef69df603d0dba9d65c8b756fe46ac29810b960603392a26000805160206138e98339815191525580f35b3389526008875260408920805460ff19168417905584861615612258579091600792600788528660408b2054168a925b6122e3575b5050879250612258565b8785841091828093612472575b1561246b571690818c52848a528260408d2054161561245157156124575782600901548015612451576123266127109188612ef8565b04801561245157601261233a828254612ede565b9055818c5260138a5260408c20612352828254612ede565b9055818c526014808b528a8d6040812054801590811561243f575b50612424575b50508b850180861161241057604084938f8f9a99989796948f918491877fcde26b6c1d41ca6bac61dbeb22cd10ae77793295ba83e40e4496c6e6d88c51e6847fd892abcb003ebe0b554a5787058bf9ea75eab7e70ddb3fc1dc0ee2335ec3bfbc9981519081528888820152a287825283522054908351928352820152a28b528389526124058860408d20541692612f22565b9293949190916122d4565b634e487b7160e01b8e52601160045260248efd5b6040908361243142612eb7565b938783525220558a8d612373565b905061244a42612eb7565b113861236d565b506122d9565b634e487b7160e01b8b52603260045260248bfd5b50506122d9565b5081811615156122f0565b6016885260408a20805460ff1916851790556305f5e100851161253f576124a88360035b1686612ef8565b6402540be400908181111561253857505b806124c5575b50612253565b6124d181601254612ede565b601255338b526013895260408b206124ea828254612ede565b90556124f542612eb7565b338c5260148a528060408d2055604051918252898201527fd892abcb003ebe0b554a5787058bf9ea75eab7e70ddb3fc1dc0ee2335ec3bfbc60403392a28a6124bf565b90506124b9565b631dcd65008511612555576124a88360056124a1565b6124a883600a6124a1565b506302faf08085101561224e565b4290558a612246565b61258391929550612d94565b6114a3578792898b612222565b8980fd5b6001600160a01b03808216955090913386146127b657338a526017885260408a20549060405191898301907f5867dff058da09194022813984e1a90539901039466f1cb10f0d3da4cd8890be825233604085015260608401526060835260808301926001600160401b03938181108582111761129d5760405251902090612619613796565b90612622613800565b90604051918c8301937f8b73c3c69bb8fe3d512ecc4cf759cc79239f7b179b0ffacaa9a75d522b39400f8552604084015260608301524660808301523060a083015260a0825260c08201948286109086111761129d5784869460e26126ad946126b6968e996040528151902061190160f01b855260c2820152015260843591604260643592206135d8565b90929192613668565b16036127da57848952600687528560408a2054161580156127c8575b6127b657338952600790600788528060408b2054166127a4578991835b818410612768575b5050505033885260178652604088206127108154612f22565b90553388526007865260408820846bffffffffffffffffffffffff60a01b82541617905592604051908382527fb2b62c7418475f601c89a2f8de70e27613387343dfde61d4166e06424bfef0f5873393a387806121bc565b8216801561279f5733811461278d578b5280895260018260408d2054169301926126ef565b604051638f6f861160e01b8152600490fd5b6126f7565b604051637aabdfe360e01b8152600490fd5b604051630c22084560e31b8152600490fd5b50600887528560408a205416156126d2565b604051638baa579f60e01b8152600490fd5b506001600160a01b03811615156121b7565b8480fd5b823461031e578060031936011261031e5760206040516305f5e1008152f35b823461031e57606036600319011261031e5761283b612dfe565b612843612e14565b90604435916128506132dd565b6001600160a01b039182169182158015612924575b610aa9578285526020906013825284604087205410611b24577fdd911d7db63f7ada09bf90b92383f79307c341a86527d6ad1740c28a8366e9d79284875260138352604087206128b6878254612eeb565b9055169384865260138252604086206128d0828254612ede565b90558486526014825260408620541561290f575b83865260138252604086205415612900575b604051908152a380f35b601482528560408120556128f6565b838652604086205485875260408720556128e4565b5080821615612865565b823461031e57602036600319011261031e576020906040906001600160a01b03612956612dfe565b168152601583522054604051908152f35b9050346105a15736600319011261031e57366023121561031e5760405161298d81612da7565b60e481368211610e09576004905b8282106129f4575050506129ad6132dd565b815b600781106129df57827f4e5005547c24dfd12003c2845fd20f2071c49fa3cd30b0be7a064e3f4c3f8d2a8180a180f35b600190602083519301928160090155016129af565b813581526020918201910161299b565b823461031e578060031936011261031e576001546040516001600160a01b039091168152602090f35b823461031e57604036600319011261031e5760243590600435612a4e613270565b612a566132a0565b338252600660205260ff604083205416156105d357801561030c57602d8314808015612d23575b8015612d19575b8015612d0e575b8015612d03575b15612cf1578015612cb657612af8935b61ffff9485169115612c7b576096945b6001546001600160a01b0316803b156114b957604051632770a7eb60e21b8152336004820152602481018690529086908290604490829084905af18015612c7057612c5d575b50612b0584601154612ede565b60115561270f198301838111612c4957612b226127109186612ef8565b04923386526018602052604086209160405197612b3e89612da7565b868952602089019242845260408a019286845260608b0191825260808b019216825260a08a019287845260c08b01956001875280549068010000000000000000821015612c355790612b9591600182018155612e85565b959095612c21576006969798999a9b518655516001860155516002850155516003840155516004830155516005820155019051151560ff80198354169116179055604051928352602083015260408201527f44cebfefa4561bee5b61d675ccfd8dc9969fff9cc15e7a4eccccd62af94f9c1160603392a260016000805160206138e98339815191525580f35b634e487b7160e01b8b5260048b905260248bfd5b634e487b7160e01b8c52604160045260248cfd5b634e487b7160e01b86526011600452602486fd5b612c6990959195612d94565b9386612af8565b6040513d88823e3d90fd5b605a8103612c8d5761015e5b94612ab2565b60b48103612c9d57610320612c87565b61016d8103612cae57610708612c87565b612710612c87565b605a8403612cc857612ee05b93612aa2565b60b48403612cd8576136b0612cc2565b61016d8403612ce957615208612cc2565b61c350612cc2565b604051637616640160e01b8152600490fd5b506104478414612a92565b5061016d8414612a8b565b5060b48414612a84565b50605a8414612a7d565b823461031e578060031936011261031e576020600554604051908152f35b823461031e57602036600319011261031e5760043560078110156105a15760209060090154604051908152f35b8390346105a157816003193601126105a1576020906012548152f35b6001600160401b03811161129d57604052565b60e081019081106001600160401b0382111761129d57604052565b604081019081106001600160401b0382111761129d57604052565b90601f801991011681019081106001600160401b0382111761129d57604052565b600435906001600160a01b0382168203610d4d57565b602435906001600160a01b0382168203610d4d57565b6001600160401b03811161129d57601f01601f191660200190565b919082519283825260005b848110612e71575050826000602080949584010152601f8019910116010190565b602081830181015184830182015201612e50565b8054821015612ea1576000526007602060002091020190600090565b634e487b7160e01b600052603260045260246000fd5b9063096601808201809211612ec857565b634e487b7160e01b600052601160045260246000fd5b91908201809211612ec857565b91908203918211612ec857565b81810292918115918404141715612ec857565b818110612f16575050565b60008155600101612f0b565b6000198114612ec85760010190565b3d15612f5c573d90612f4282612e2a565b91612f506040519384612ddd565b82523d6000602084013e565b606090565b6001546040516370a0823160e01b602082019081526001600160a01b0393841660248084019190915282529092606084019216906001600160401b0383118484101761129d57600093849360405251915afa612fbb612f31565b9080613013575b15612fdb57602081805181010312610d4d576020015190565b60405162461bcd60e51b815260206004820152601060248201526f18985b185b98d953d98819985a5b195960821b6044820152606490fd5b50602081511015612fc2565b6001600160a01b03166000908152601860205260408120805491929190835b82811061304a57505050565b60ff60066130588385612e85565b50015416613069575b60010161303e565b9361308260019161307a8785612e85565b505490612ede565b949050613061565b60009061309681612f61565b80151580613265575b61320c575b506001600160a01b031660008181526013602052604090205480151580613201575b6131a1575b50600052601860205260406000206000908054905b8183106130ed5750505090565b9091926130fa8483612e85565b5060ff600682015416158015613195575b61318a576001918282015460028301546201518090818102918183041490151715612ec8576131799361316d828461314c6131729564496cebb80097612ede565b4210156131835761315e915042612eeb565b915b6004815491015490612ef8565b612ef8565b0490612ede565b9301915b906130e0565b5091613160565b50926001019161317d565b5060048101541561310b565b9164496cebb8006131726131e99394601560205260406000205480156000146131fc5750425b8042116000146131f0576131de61316d9142612eeb565b915b60025490612ef8565b90386130cb565b5061316d6000916131e0565b6131c7565b5060025415156130c6565b6001600160a01b038216835260156020526040832054919264496cebb80092613251929161316d91806132605750425b804211600014613259576131de915042612eeb565b0490386130a4565b50916131e0565b61323c565b50600254151561309f565b6000805160206138e9833981519152600281541461328e5760029055565b604051633ee5aeb560e01b8152600490fd5b60ff7fcd5ed15c6e187e77e9aee88184c21f4f2182ab5827cb3b7e07fbedcd63f0330054166132cb57565b60405163d93c066560e01b8152600490fd5b6000805160206138c9833981519152546001600160a01b031633036114fb57565b6040516323b872dd60e01b60208201526001600160a01b03928316602482015292909116604483015260648083019390935291815260a08101918183106001600160401b0384111761129d57613356926040526136ed565b565b60405163a9059cbb60e01b60208201526001600160a01b0392909216602483015260448083019390935291815261335691613394606483612ddd565b6136ed565b60008051602061390983398151915280546001600160a01b03199081169091556000805160206138c983398151915280549182166001600160a01b0393841690811790915591167f8be0079c531659141344cd1fd0a4f28419497f9722a3daafe3b4186f6b6457e0600080a3565b90600182811c92168015613437575b602083101461342157565b634e487b7160e01b600052602260045260246000fd5b91607f1691613416565b604051906000826000805160206138a98339815191529182549261346484613407565b808452936020916001918281169081156134f15750600114613490575b50505061335692500383612ddd565b60009081527f42ad5d3e1f2e6e70edcf6d991b8a3023d3fca8047a131592f9edb9fd9b89d57d9590935091905b8284106134d95750613356945050508101602001388080613481565b855488850183015294850194879450928101926134bd565b925050506020925061335694915060ff191682840152151560051b820101388080613481565b604051906000827fa16a46d94261c7517cc8ff89f61c0ce93598e3c849801011dee649a6a557d1039182549261354c84613407565b808452936020916001918281169081156134f157506001146135775750505061335692500383612ddd565b60009081527f5f9ce34815f8e11431c7bb75a8e6886a91478f7ffc1dbb0a98dc240fddd76b759590935091905b8284106135c05750613356945050508101602001388080613481565b855488850183015294850194879450928101926135a4565b91907f7fffffffffffffffffffffffffffffff5d576e7357a4501ddfe92f46681b20a0841161365c57926020929160ff608095604051948552168484015260408301526060820152600092839182805260015afa156136505780516001600160a01b0381161561364757918190565b50809160019190565b604051903d90823e3d90fd5b50505060009160039190565b60048110156136d7578061367a575050565b600181036136945760405163f645eedf60e01b8152600490fd5b600281036136b55760405163fce698f760e01b815260048101839052602490fd5b6003146136bf5750565b602490604051906335e2f38360e21b82526004820152fd5b634e487b7160e01b600052602160045260246000fd5b906000602091828151910182855af115613749576000513d61374057506001600160a01b0381163b155b61371e5750565b604051635274afe760e01b81526001600160a01b039091166004820152602490fd5b60011415613717565b6040513d6000823e3d90fd5b60ff7ff0c57e16840df040f15088dc2f81fe391c3923bec73e23a9662efc9c229c6a005460401c161561378457565b604051631afcd79f60e31b8152600490fd5b61379e613441565b80519081156137ae576020012090565b50507fa16a46d94261c7517cc8ff89f61c0ce93598e3c849801011dee649a6a557d1005480156137db5790565b507fc5d2460186f7233c927e7db2dcc703c0e500b653ca82273b7bfad8045d85a47090565b613808613517565b8051908115613818576020012090565b50507fa16a46d94261c7517cc8ff89f61c0ce93598e3c849801011dee649a6a557d1015480156137db5790565b9061386c575080511561385a57602081519101fd5b60405163d6bda27560e01b8152600490fd5b8151158061389f575b61387d575090565b604051639996b31560e01b81526001600160a01b039091166004820152602490fd5b50803b1561387556fea16a46d94261c7517cc8ff89f61c0ce93598e3c849801011dee649a6a557d1029016d09d72d40fdae2fd8ceac6b6234c7706214fd39c1cd1e609a0528c1993009b779b17422d0df92223018b32b4d1fa46e071723d6817e2486d003becc55f00237e158222e3e6968b72b9db0d8043aacf074ad9f650f0d1606b4d82ee432c00a26469706673582212201bf3597b9c8eb9f297861d75845200fdb26d2c9cec99cd0da3956fba6dc2fb3664736f6c63430008180033","opcodes":"PUSH1 0xA0 DUP1 PUSH1 0x40 MSTORE CALLVALUE PUSH3 0xD1 JUMPI ADDRESS PUSH1 0x80 MSTORE PUSH32 0xF0C57E16840DF040F15088DC2F81FE391C3923BEC73E23A9662EFC9C229C6A00 SWAP1 DUP2 SLOAD SWAP1 PUSH1 0xFF DUP3 PUSH1 0x40 SHR AND PUSH3 0xC2 JUMPI POP PUSH1 0x1 PUSH1 0x1 PUSH1 0x40 SHL SUB PUSH1 0x2 PUSH1 0x1 PUSH1 0x40 SHL SUB NOT DUP3 DUP3 AND ADD PUSH3 0x7C JUMPI JUMPDEST PUSH1 0x40 MLOAD PUSH2 0x395E SWAP1 DUP2 PUSH3 0xD7 DUP3 CODECOPY PUSH1 0x80 MLOAD DUP2 DUP2 DUP2 PUSH2 0x1C5C ADD MSTORE PUSH2 0x1D5F ADD MSTORE RETURN JUMPDEST PUSH1 0x1 PUSH1 0x1 PUSH1 0x40 SHL SUB NOT SWAP1 SWAP2 AND DUP2 OR SWAP1 SWAP2 SSTORE PUSH1 0x40 MLOAD SWAP1 DUP2 MSTORE PUSH32 0xC7F505B2F371AE2175EE4913F4499E1F2633A7B5936321EED1CDAEB6115181D2 SWAP1 PUSH1 0x20 SWAP1 LOG1 CODESIZE DUP1 DUP1 PUSH3 0x5C JUMP JUMPDEST PUSH4 0xF92EE8A9 PUSH1 0xE0 SHL DUP2 MSTORE PUSH1 0x4 SWAP1 REVERT JUMPDEST PUSH1 0x0 DUP1 REVERT INVALID PUSH1 0x80 DUP1 PUSH1 0x40 MSTORE PUSH1 0x4 CALLDATASIZE LT ISZERO PUSH2 0x13 JUMPI PUSH1 0x0 DUP1 REVERT JUMPDEST PUSH1 0x0 SWAP1 PUSH1 0xE0 DUP3 CALLDATALOAD DUP2 SHR SWAP2 DUP3 PUSH4 0x401A8FA EQ PUSH2 0x2D78 JUMPI POP DUP2 PUSH4 0x4B5E871 EQ PUSH2 0x2D4B JUMPI DUP2 PUSH4 0x1272F7B5 EQ PUSH2 0x2D2D JUMPI DUP2 PUSH4 0x1338736F EQ PUSH2 0x2A2D JUMPI DUP2 PUSH4 0x17607AD9 EQ PUSH2 0x2A04 JUMPI DUP2 PUSH4 0x221B4A02 EQ PUSH2 0x2967 JUMPI DUP2 PUSH4 0x241A856E EQ PUSH2 0x292E JUMPI DUP2 PUSH4 0x24A81829 EQ PUSH2 0x2821 JUMPI DUP2 PUSH4 0x24EBAE69 EQ PUSH2 0x2802 JUMPI DUP2 PUSH4 0x2C42C9F5 EQ PUSH2 0x2141 JUMPI DUP2 PUSH4 0x2CFB27C1 EQ PUSH2 0x2124 JUMPI DUP2 PUSH4 0x2F48AB7D EQ PUSH2 0x20FD JUMPI DUP2 PUSH4 0x30AB6F76 EQ PUSH2 0x208D JUMPI DUP2 PUSH4 0x35981FD8 EQ PUSH2 0x1F8B JUMPI DUP2 PUSH4 0x366A307F EQ PUSH2 0x1F4C JUMPI DUP2 PUSH4 0x43019B41 EQ PUSH2 0x1F13 JUMPI DUP2 PUSH4 0x4F1EF286 EQ PUSH2 0x1CE4 JUMPI DUP2 PUSH4 0x5023E463 EQ PUSH2 0x1CC6 JUMPI DUP2 PUSH4 0x52D1902D EQ PUSH2 0x1C49 JUMPI DUP2 PUSH4 0x552EEC2F EQ PUSH2 0x1B97 JUMPI DUP2 PUSH4 0x5C975ABB EQ PUSH2 0x1B55 JUMPI DUP2 PUSH4 0x5ECD37E2 EQ PUSH2 0x1B36 JUMPI DUP2 PUSH4 0x6198E339 EQ PUSH2 0x198A JUMPI DUP2 PUSH4 0x6860C192 EQ PUSH2 0x1713 JUMPI DUP2 PUSH4 0x6E13019B EQ PUSH2 0x15F6 JUMPI DUP2 PUSH4 0x710A7088 EQ PUSH2 0x15D8 JUMPI DUP2 PUSH4 0x715018A6 EQ PUSH2 0x1556 JUMPI DUP2 PUSH4 0x74F17BF9 EQ PUSH2 0x1532 JUMPI DUP2 PUSH4 0x7961954C EQ PUSH2 0x1513 JUMPI DUP2 PUSH4 0x79BA5097 EQ PUSH2 0x14BD JUMPI DUP2 PUSH4 0x7F649783 EQ PUSH2 0x1355 JUMPI DUP2 PUSH4 0x803039D9 EQ PUSH2 0x1337 JUMPI DUP2 PUSH4 0x83D5EDA5 EQ PUSH2 0x1319 JUMPI DUP2 PUSH4 0x84B0196E EQ PUSH2 0x11A9 JUMPI DUP2 PUSH4 0x863E76DB EQ PUSH2 0x118B JUMPI DUP2 PUSH4 0x8C74D6F4 EQ PUSH2 0x1152 JUMPI DUP2 PUSH4 0x8DA5CB5B EQ PUSH2 0x111C JUMPI DUP2 PUSH4 0x91E3C479 EQ PUSH2 0x1012 JUMPI DUP2 PUSH4 0x929EC537 EQ PUSH2 0xFEE JUMPI DUP2 PUSH4 0x9764CABD EQ PUSH2 0xFD0 JUMPI DUP2 PUSH4 0x9CFDBD5E EQ PUSH2 0xFB3 JUMPI DUP2 PUSH4 0xAD3CB1CC EQ PUSH2 0xF69 JUMPI DUP2 PUSH4 0xB0557BF1 EQ PUSH2 0xE46 JUMPI DUP2 PUSH4 0xB298B771 EQ PUSH2 0xE0D JUMPI DUP2 PUSH4 0xB425F802 EQ PUSH2 0xD72 JUMPI POP DUP1 PUSH4 0xBD7FEAF2 EQ PUSH2 0xD52 JUMPI DUP1 PUSH4 0xC0C53B8B EQ PUSH2 0x6AA JUMPI DUP1 PUSH4 0xD21CACDF EQ PUSH2 0x66E JUMPI DUP1 PUSH4 0xD41A2AAC EQ PUSH2 0x650 JUMPI DUP1 PUSH4 0xD6EF4046 EQ PUSH2 0x624 JUMPI DUP1 PUSH4 0xD936547E EQ PUSH2 0x5E5 JUMPI DUP1 PUSH4 0xDCA35E2D EQ PUSH2 0x45A JUMPI DUP1 PUSH4 0xE30C3978 EQ PUSH2 0x424 JUMPI DUP1 PUSH4 0xE4BD07C4 EQ PUSH2 0x405 JUMPI DUP1 PUSH4 0xF2C16E6F EQ PUSH2 0x3C6 JUMPI DUP1 PUSH4 0xF2FDE38B EQ PUSH2 0x33E JUMPI DUP1 PUSH4 0xF5AA5020 EQ PUSH2 0x321 JUMPI PUSH4 0xF641E42F EQ PUSH2 0x2A1 JUMPI PUSH1 0x0 DUP1 REVERT JUMPDEST CALLVALUE PUSH2 0x31E JUMPI PUSH1 0x20 CALLDATASIZE PUSH1 0x3 NOT ADD SLT PUSH2 0x31E JUMPI PUSH1 0x4 CALLDATALOAD PUSH2 0x2BD PUSH2 0x32DD JUMP JUMPDEST DUP1 ISZERO PUSH2 0x30C JUMPI DUP2 SLOAD PUSH32 0xCDDDBC1CE8877A8B0991D6A01E5B9A0D0BBDCE32D72797A5C7660679509ACEF0 SWAP2 PUSH1 0x20 SWAP2 PUSH2 0x302 SWAP1 DUP3 SWAP1 ADDRESS SWAP1 CALLER SWAP1 PUSH1 0x1 PUSH1 0x1 PUSH1 0xA0 SHL SUB AND PUSH2 0x32FE JUMP JUMPDEST PUSH1 0x40 MLOAD SWAP1 DUP2 MSTORE LOG1 DUP1 RETURN JUMPDEST PUSH1 0x40 MLOAD PUSH4 0x10EB483F PUSH1 0xE2 SHL DUP2 MSTORE PUSH1 0x4 SWAP1 REVERT JUMPDEST DUP1 REVERT JUMPDEST POP CALLVALUE PUSH2 0x31E JUMPI DUP1 PUSH1 0x3 NOT CALLDATASIZE ADD SLT PUSH2 0x31E JUMPI PUSH1 0x20 PUSH1 0x40 MLOAD PUSH2 0x16D DUP2 MSTORE RETURN JUMPDEST POP CALLVALUE PUSH2 0x31E JUMPI PUSH1 0x20 CALLDATASIZE PUSH1 0x3 NOT ADD SLT PUSH2 0x31E JUMPI PUSH2 0x358 PUSH2 0x2DFE JUMP JUMPDEST PUSH2 0x360 PUSH2 0x32DD JUMP JUMPDEST PUSH1 0x0 DUP1 MLOAD PUSH1 0x20 PUSH2 0x3909 DUP4 CODECOPY DUP2 MLOAD SWAP2 MSTORE DUP1 SLOAD PUSH1 0x1 PUSH1 0x1 PUSH1 0xA0 SHL SUB NOT AND PUSH1 0x1 PUSH1 0x1 PUSH1 0xA0 SHL SUB SWAP3 DUP4 AND SWAP1 DUP2 OR SWAP1 SWAP2 SSTORE PUSH1 0x0 DUP1 MLOAD PUSH1 0x20 PUSH2 0x38C9 DUP4 CODECOPY DUP2 MLOAD SWAP2 MSTORE SLOAD SWAP1 SWAP2 AND PUSH32 0x38D16B8CAC22D99FC7C124B9CD0DE2D3FA1FAEF420BFE791D8C362D765E22700 DUP4 DUP1 LOG3 DUP1 RETURN JUMPDEST POP CALLVALUE PUSH2 0x31E JUMPI PUSH1 0x20 CALLDATASIZE PUSH1 0x3 NOT ADD SLT PUSH2 0x31E JUMPI PUSH1 0x20 SWAP1 PUSH1 0xFF SWAP1 PUSH1 0x40 SWAP1 PUSH1 0x1 PUSH1 0x1 PUSH1 0xA0 SHL SUB PUSH2 0x3F1 PUSH2 0x2DFE JUMP JUMPDEST AND DUP2 MSTORE PUSH1 0x8 DUP5 MSTORE KECCAK256 SLOAD AND PUSH1 0x40 MLOAD SWAP1 ISZERO ISZERO DUP2 MSTORE RETURN JUMPDEST POP CALLVALUE PUSH2 0x31E JUMPI DUP1 PUSH1 0x3 NOT CALLDATASIZE ADD SLT PUSH2 0x31E JUMPI PUSH1 0x20 PUSH1 0x40 MLOAD PUSH4 0x6052340 DUP2 MSTORE RETURN JUMPDEST POP CALLVALUE PUSH2 0x31E JUMPI DUP1 PUSH1 0x3 NOT CALLDATASIZE ADD SLT PUSH2 0x31E JUMPI PUSH1 0x0 DUP1 MLOAD PUSH1 0x20 PUSH2 0x3909 DUP4 CODECOPY DUP2 MLOAD SWAP2 MSTORE SLOAD PUSH1 0x40 MLOAD PUSH1 0x1 PUSH1 0x1 PUSH1 0xA0 SHL SUB SWAP1 SWAP2 AND DUP2 MSTORE PUSH1 0x20 SWAP1 RETURN JUMPDEST POP CALLVALUE PUSH2 0x31E JUMPI DUP1 PUSH1 0x3 NOT CALLDATASIZE ADD SLT PUSH2 0x31E JUMPI PUSH2 0x473 PUSH2 0x3270 JUMP JUMPDEST PUSH2 0x47B PUSH2 0x32A0 JUMP JUMPDEST CALLER DUP2 MSTORE PUSH1 0x20 PUSH1 0x6 DUP2 MSTORE PUSH1 0xFF PUSH1 0x40 DUP4 KECCAK256 SLOAD AND ISZERO PUSH2 0x5D3 JUMPI CALLER DUP3 MSTORE PUSH1 0x14 DUP2 MSTORE PUSH1 0x40 DUP3 KECCAK256 SLOAD DUP1 ISZERO SWAP1 DUP2 ISZERO PUSH2 0x5C9 JUMPI JUMPDEST POP PUSH2 0x5B7 JUMPI CALLER DUP3 MSTORE PUSH1 0x13 DUP2 MSTORE PUSH1 0x40 DUP3 KECCAK256 SLOAD SWAP1 DUP2 ISZERO PUSH2 0x5A5 JUMPI CALLER DUP4 MSTORE PUSH1 0x13 DUP2 MSTORE DUP3 PUSH1 0x40 DUP2 KECCAK256 SSTORE PUSH1 0x14 DUP2 MSTORE DUP3 PUSH1 0x40 DUP2 KECCAK256 SSTORE PUSH2 0x4E2 DUP3 PUSH1 0x12 SLOAD PUSH2 0x2EEB JUMP JUMPDEST PUSH1 0x12 SSTORE PUSH1 0x1 SLOAD DUP4 SWAP1 PUSH1 0x1 PUSH1 0x1 PUSH1 0xA0 SHL SUB AND DUP1 EXTCODESIZE ISZERO PUSH2 0x5A1 JUMPI PUSH1 0x40 MLOAD PUSH4 0x40C10F19 PUSH1 0xE0 SHL DUP2 MSTORE CALLER PUSH1 0x4 DUP3 ADD MSTORE PUSH1 0x24 DUP2 ADD DUP6 SWAP1 MSTORE SWAP1 DUP3 SWAP1 DUP3 SWAP1 PUSH1 0x44 SWAP1 DUP3 SWAP1 DUP5 SWAP1 GAS CALL DUP1 ISZERO PUSH2 0x596 JUMPI PUSH2 0x57E JUMPI JUMPDEST POP POP PUSH32 0x4E69FDC49495BCAB2B4375781457BA16653A90EB4FFB6588351BDC39071433E2 SWAP1 PUSH2 0x55D DUP4 PUSH1 0x10 SLOAD PUSH2 0x2EDE JUMP JUMPDEST PUSH1 0x10 SSTORE PUSH1 0x40 MLOAD SWAP3 DUP4 MSTORE CALLER SWAP3 LOG2 PUSH1 0x1 PUSH1 0x0 DUP1 MLOAD PUSH1 0x20 PUSH2 0x38E9 DUP4 CODECOPY DUP2 MLOAD SWAP2 MSTORE SSTORE DUP1 RETURN JUMPDEST PUSH2 0x587 SWAP1 PUSH2 0x2D94 JUMP JUMPDEST PUSH2 0x592 JUMPI DUP3 CODESIZE PUSH2 0x52D JUMP JUMPDEST DUP3 DUP1 REVERT JUMPDEST PUSH1 0x40 MLOAD RETURNDATASIZE DUP5 DUP3 RETURNDATACOPY RETURNDATASIZE SWAP1 REVERT JUMPDEST POP DUP1 REVERT JUMPDEST PUSH1 0x40 MLOAD PUSH4 0xCB5E241B PUSH1 0xE0 SHL DUP2 MSTORE PUSH1 0x4 SWAP1 REVERT JUMPDEST PUSH1 0x40 MLOAD PUSH4 0x437E4867 PUSH1 0xE0 SHL DUP2 MSTORE PUSH1 0x4 SWAP1 REVERT JUMPDEST SWAP1 POP TIMESTAMP LT CODESIZE PUSH2 0x4A7 JUMP JUMPDEST PUSH1 0x40 MLOAD PUSH4 0xB094F27 PUSH1 0xE3 SHL DUP2 MSTORE PUSH1 0x4 SWAP1 REVERT JUMPDEST POP CALLVALUE PUSH2 0x31E JUMPI PUSH1 0x20 CALLDATASIZE PUSH1 0x3 NOT ADD SLT PUSH2 0x31E JUMPI PUSH1 0x20 SWAP1 PUSH1 0xFF SWAP1 PUSH1 0x40 SWAP1 PUSH1 0x1 PUSH1 0x1 PUSH1 0xA0 SHL SUB PUSH2 0x610 PUSH2 0x2DFE JUMP JUMPDEST AND DUP2 MSTORE PUSH1 0x6 DUP5 MSTORE KECCAK256 SLOAD AND PUSH1 0x40 MLOAD SWAP1 ISZERO ISZERO DUP2 MSTORE RETURN JUMPDEST POP CALLVALUE PUSH2 0x31E JUMPI PUSH1 0x20 CALLDATASIZE PUSH1 0x3 NOT ADD SLT PUSH2 0x31E JUMPI PUSH1 0x20 PUSH2 0x648 PUSH2 0x643 PUSH2 0x2DFE JUMP JUMPDEST PUSH2 0x308A JUMP JUMPDEST PUSH1 0x40 MLOAD SWAP1 DUP2 MSTORE RETURN JUMPDEST POP CALLVALUE PUSH2 0x31E JUMPI DUP1 PUSH1 0x3 NOT CALLDATASIZE ADD SLT PUSH2 0x31E JUMPI PUSH1 0x20 PUSH1 0x2 SLOAD PUSH1 0x40 MLOAD SWAP1 DUP2 MSTORE RETURN JUMPDEST POP CALLVALUE PUSH2 0x31E JUMPI PUSH1 0x20 CALLDATASIZE PUSH1 0x3 NOT ADD SLT PUSH2 0x31E JUMPI PUSH1 0x20 SWAP1 PUSH1 0x1 PUSH1 0x1 PUSH1 0xA0 SHL SUB SWAP1 PUSH1 0x40 SWAP1 DUP3 PUSH2 0x698 PUSH2 0x2DFE JUMP JUMPDEST AND DUP2 MSTORE PUSH1 0x7 DUP5 MSTORE KECCAK256 SLOAD AND PUSH1 0x40 MLOAD SWAP1 DUP2 MSTORE RETURN JUMPDEST POP CALLVALUE PUSH2 0x31E JUMPI PUSH1 0x60 CALLDATASIZE PUSH1 0x3 NOT ADD SLT PUSH2 0x31E JUMPI PUSH2 0x6C4 PUSH2 0x2DFE JUMP JUMPDEST PUSH2 0x6CC PUSH2 0x2E14 JUMP JUMPDEST PUSH1 0x44 CALLDATALOAD SWAP2 PUSH1 0x1 PUSH1 0x1 PUSH1 0xA0 SHL SUB DUP4 AND DUP4 SUB PUSH2 0xD4D JUMPI PUSH32 0xF0C57E16840DF040F15088DC2F81FE391C3923BEC73E23A9662EFC9C229C6A00 SWAP2 DUP3 SLOAD SWAP2 PUSH1 0x1 PUSH1 0x1 PUSH1 0x40 SHL SUB DUP4 AND DUP1 ISZERO SWAP1 DUP2 PUSH2 0xD3D JUMPI JUMPDEST PUSH1 0x1 EQ SWAP1 DUP2 PUSH2 0xD33 JUMPI JUMPDEST ISZERO SWAP1 DUP2 PUSH2 0xD2A JUMPI JUMPDEST POP PUSH2 0xD18 JUMPI PUSH1 0x1 PUSH1 0x1 PUSH1 0x1 PUSH1 0x40 SHL SUB NOT DUP5 AND OR DUP5 SSTORE PUSH1 0xFF DUP4 PUSH1 0x40 SHR AND ISZERO PUSH2 0xCF9 JUMPI JUMPDEST PUSH2 0x754 PUSH2 0x3755 JUMP JUMPDEST PUSH2 0x75C PUSH2 0x3755 JUMP JUMPDEST PUSH1 0x1 PUSH1 0x1 PUSH1 0xA0 SHL SUB DUP6 AND ISZERO PUSH2 0xCE0 JUMPI PUSH2 0x774 DUP6 PUSH2 0x3399 JUMP JUMPDEST PUSH2 0x77C PUSH2 0x3755 JUMP JUMPDEST PUSH2 0x784 PUSH2 0x3755 JUMP JUMPDEST PUSH2 0x78C PUSH2 0x3755 JUMP JUMPDEST PUSH1 0x1 PUSH1 0x0 DUP1 MLOAD PUSH1 0x20 PUSH2 0x38E9 DUP4 CODECOPY DUP2 MLOAD SWAP2 MSTORE SSTORE PUSH2 0x7A6 PUSH2 0x3755 JUMP JUMPDEST PUSH2 0x7AE PUSH2 0x3755 JUMP JUMPDEST PUSH1 0x40 MLOAD PUSH2 0x7BA DUP2 PUSH2 0x2DC2 JUMP JUMPDEST PUSH1 0xC DUP2 MSTORE PUSH12 0x566F6C74506C6174666F726D PUSH1 0xA0 SHL PUSH1 0x20 DUP3 ADD MSTORE PUSH1 0x40 MLOAD SWAP1 PUSH2 0x7E0 DUP3 PUSH2 0x2DC2 JUMP JUMPDEST PUSH1 0x1 DUP3 MSTORE PUSH1 0x31 PUSH1 0xF8 SHL PUSH1 0x20 DUP4 ADD MSTORE PUSH2 0x7F6 PUSH2 0x3755 JUMP JUMPDEST PUSH2 0x7FE PUSH2 0x3755 JUMP JUMPDEST DUP1 MLOAD SWAP1 PUSH1 0x1 PUSH1 0x1 PUSH1 0x40 SHL SUB DUP3 GT PUSH2 0xCCC JUMPI DUP2 SWAP1 PUSH2 0x829 PUSH1 0x0 DUP1 MLOAD PUSH1 0x20 PUSH2 0x38A9 DUP4 CODECOPY DUP2 MLOAD SWAP2 MSTORE SLOAD PUSH2 0x3407 JUMP JUMPDEST PUSH1 0x1F DUP2 GT PUSH2 0xC71 JUMPI JUMPDEST POP PUSH1 0x20 SWAP1 PUSH1 0x1F DUP4 GT PUSH1 0x1 EQ PUSH2 0xBCF JUMPI DUP11 SWAP3 PUSH2 0xBC4 JUMPI JUMPDEST POP POP DUP2 PUSH1 0x1 SHL SWAP2 PUSH1 0x0 NOT SWAP1 PUSH1 0x3 SHL SHR NOT AND OR PUSH1 0x0 DUP1 MLOAD PUSH1 0x20 PUSH2 0x38A9 DUP4 CODECOPY DUP2 MLOAD SWAP2 MSTORE SSTORE JUMPDEST DUP1 MLOAD PUSH1 0x1 PUSH1 0x1 PUSH1 0x40 SHL SUB DUP2 GT PUSH2 0xBB0 JUMPI DUP1 PUSH32 0xA16A46D94261C7517CC8FF89F61C0CE93598E3C849801011DEE649A6A557D103 SWAP3 PUSH2 0x8A8 DUP5 SLOAD PUSH2 0x3407 JUMP JUMPDEST PUSH1 0x1F DUP2 GT PUSH2 0xB58 JUMPI JUMPDEST POP PUSH1 0x20 SWAP1 PUSH1 0x1F DUP4 GT PUSH1 0x1 EQ PUSH2 0xAD7 JUMPI DUP11 SWAP3 PUSH2 0xACC JUMPI JUMPDEST POP POP DUP2 PUSH1 0x1 SHL SWAP2 PUSH1 0x0 NOT SWAP1 PUSH1 0x3 SHL SHR NOT AND OR SWAP1 SSTORE JUMPDEST PUSH32 0xA16A46D94261C7517CC8FF89F61C0CE93598E3C849801011DEE649A6A557D100 DUP7 SWAP1 SSTORE PUSH32 0xA16A46D94261C7517CC8FF89F61C0CE93598E3C849801011DEE649A6A557D101 DUP7 SWAP1 SSTORE PUSH1 0x1 PUSH1 0x1 PUSH1 0xA0 SHL SUB AND SWAP1 DUP2 ISZERO DUP1 ISZERO PUSH2 0xABB JUMPI JUMPDEST PUSH2 0xAA9 JUMPI PUSH12 0xFFFFFFFFFFFFFFFFFFFFFFFF PUSH1 0xA0 SHL SWAP2 DUP3 DUP8 SLOAD AND OR DUP7 SSTORE PUSH1 0x1 DUP1 PUSH1 0xA0 SHL SUB AND DUP2 PUSH1 0x1 SLOAD AND OR PUSH1 0x1 SSTORE PUSH2 0x258 PUSH1 0x2 SSTORE PUSH4 0x8F0D180 PUSH1 0x3 SSTORE PUSH2 0x3E8 DUP1 PUSH1 0x4 SSTORE PUSH2 0x1F4 DUP1 PUSH1 0x5 SSTORE PUSH1 0x40 MLOAD SWAP2 PUSH2 0x98D DUP4 PUSH2 0x2DA7 JUMP JUMPDEST DUP3 MSTORE PUSH1 0x20 DUP3 ADD MSTORE PUSH1 0xC8 PUSH1 0x40 DUP3 ADD MSTORE PUSH1 0x64 PUSH1 0x60 DUP3 ADD MSTORE PUSH1 0x32 PUSH1 0x80 DUP3 ADD MSTORE PUSH1 0x19 PUSH1 0xA0 DUP3 ADD MSTORE PUSH1 0xA PUSH1 0xC0 DUP3 ADD MSTORE DUP6 JUMPDEST PUSH1 0x7 DUP2 LT PUSH2 0xA90 JUMPI POP POP PUSH1 0x1 PUSH1 0x1 PUSH1 0xA0 SHL SUB SWAP4 SWAP1 SWAP4 AND DUP1 DUP6 MSTORE PUSH1 0x6 PUSH1 0x20 SWAP1 DUP2 MSTORE PUSH1 0x40 DUP1 DUP8 KECCAK256 DUP1 SLOAD PUSH1 0x1 PUSH1 0xFF NOT SWAP2 DUP3 AND DUP2 OR SWAP1 SWAP3 SSTORE PUSH1 0x7 DUP5 MSTORE DUP3 DUP10 KECCAK256 DUP1 SLOAD SWAP1 SWAP9 AND DUP6 OR SWAP1 SWAP8 SSTORE PUSH1 0x8 DUP4 MSTORE DUP2 DUP9 KECCAK256 DUP1 SLOAD SWAP1 SWAP8 AND OR SWAP1 SWAP6 SSTORE PUSH1 0x15 SWAP1 MSTORE DUP4 DUP6 KECCAK256 TIMESTAMP SWAP1 SSTORE SWAP3 MLOAD SWAP3 PUSH1 0xFF SWAP2 SWAP1 PUSH32 0xAAB7954E9D246B167EF88AEDDAD35209CA2489D95A8AEB59E288D9B19FAE5A54 DUP7 DUP1 LOG2 PUSH1 0x40 SHR AND ISZERO PUSH2 0xA50 JUMPI DUP3 DUP1 RETURN JUMPDEST DUP1 SLOAD PUSH9 0xFF0000000000000000 NOT AND SWAP1 SSTORE PUSH1 0x1 DUP2 MSTORE PUSH32 0xC7F505B2F371AE2175EE4913F4499E1F2633A7B5936321EED1CDAEB6115181D2 SWAP1 PUSH1 0x20 SWAP1 LOG1 CODESIZE DUP1 DUP3 DUP1 RETURN JUMPDEST PUSH1 0x1 SWAP1 PUSH1 0x20 PUSH2 0xFFFF DUP5 MLOAD AND SWAP4 ADD SWAP3 DUP2 PUSH1 0x9 ADD SSTORE ADD PUSH2 0x9B9 JUMP JUMPDEST PUSH1 0x40 MLOAD PUSH4 0xE6C4247B PUSH1 0xE0 SHL DUP2 MSTORE PUSH1 0x4 SWAP1 REVERT JUMPDEST POP PUSH1 0x1 PUSH1 0x1 PUSH1 0xA0 SHL SUB DUP2 AND ISZERO PUSH2 0x937 JUMP JUMPDEST ADD MLOAD SWAP1 POP CODESIZE DUP1 PUSH2 0x8C7 JUMP JUMPDEST DUP5 DUP12 MSTORE PUSH32 0x5F9CE34815F8E11431C7BB75A8E6886A91478F7FFC1DBB0A98DC240FDDD76B75 SWAP3 POP PUSH1 0x1F NOT DUP5 AND DUP12 JUMPDEST DUP2 DUP2 LT PUSH2 0xB40 JUMPI POP SWAP1 DUP5 PUSH1 0x1 SWAP6 SWAP5 SWAP4 SWAP3 LT PUSH2 0xB27 JUMPI JUMPDEST POP POP POP DUP2 SHL ADD SWAP1 SSTORE PUSH2 0x8DC JUMP JUMPDEST ADD MLOAD PUSH1 0x0 NOT PUSH1 0xF8 DUP5 PUSH1 0x3 SHL AND SHR NOT AND SWAP1 SSTORE CODESIZE DUP1 DUP1 PUSH2 0xB1A JUMP JUMPDEST SWAP3 SWAP4 PUSH1 0x20 PUSH1 0x1 DUP2 SWAP3 DUP8 DUP7 ADD MLOAD DUP2 SSTORE ADD SWAP6 ADD SWAP4 ADD PUSH2 0xB04 JUMP JUMPDEST PUSH2 0xBA0 SWAP1 DUP6 DUP13 MSTORE PUSH32 0x5F9CE34815F8E11431C7BB75A8E6886A91478F7FFC1DBB0A98DC240FDDD76B75 PUSH1 0x1F DUP6 ADD PUSH1 0x5 SHR DUP2 ADD SWAP2 PUSH1 0x20 DUP7 LT PUSH2 0xBA6 JUMPI JUMPDEST PUSH1 0x1F ADD PUSH1 0x5 SHR ADD SWAP1 PUSH2 0x2F0B JUMP JUMPDEST CODESIZE PUSH2 0x8B1 JUMP JUMPDEST SWAP1 SWAP2 POP DUP2 SWAP1 PUSH2 0xB93 JUMP JUMPDEST PUSH4 0x4E487B71 PUSH1 0xE0 SHL DUP9 MSTORE PUSH1 0x41 PUSH1 0x4 MSTORE PUSH1 0x24 DUP9 REVERT JUMPDEST ADD MLOAD SWAP1 POP CODESIZE DUP1 PUSH2 0x848 JUMP JUMPDEST SWAP3 POP PUSH1 0x0 DUP1 MLOAD PUSH1 0x20 PUSH2 0x38A9 DUP4 CODECOPY DUP2 MLOAD SWAP2 MSTORE DUP11 MSTORE PUSH32 0x42AD5D3E1F2E6E70EDCF6D991B8A3023D3FCA8047A131592F9EDB9FD9B89D57D SWAP1 DUP11 SWAP4 JUMPDEST PUSH1 0x1F NOT DUP5 AND DUP6 LT PUSH2 0xC56 JUMPI PUSH1 0x1 SWAP5 POP DUP4 PUSH1 0x1F NOT DUP2 AND LT PUSH2 0xC3D JUMPI JUMPDEST POP POP POP DUP2 SHL ADD PUSH1 0x0 DUP1 MLOAD PUSH1 0x20 PUSH2 0x38A9 DUP4 CODECOPY DUP2 MLOAD SWAP2 MSTORE SSTORE PUSH2 0x86B JUMP JUMPDEST ADD MLOAD PUSH1 0x0 NOT PUSH1 0xF8 DUP5 PUSH1 0x3 SHL AND SHR NOT AND SWAP1 SSTORE CODESIZE DUP1 DUP1 PUSH2 0xC22 JUMP JUMPDEST DUP2 DUP2 ADD MLOAD DUP4 SSTORE PUSH1 0x20 SWAP5 DUP6 ADD SWAP5 PUSH1 0x1 SWAP1 SWAP4 ADD SWAP3 SWAP1 SWAP2 ADD SWAP1 PUSH2 0xC07 JUMP JUMPDEST PUSH2 0xCC6 SWAP1 PUSH1 0x0 DUP1 MLOAD PUSH1 0x20 PUSH2 0x38A9 DUP4 CODECOPY DUP2 MLOAD SWAP2 MSTORE DUP13 MSTORE PUSH32 0x42AD5D3E1F2E6E70EDCF6D991B8A3023D3FCA8047A131592F9EDB9FD9B89D57D PUSH1 0x1F DUP6 ADD PUSH1 0x5 SHR DUP2 ADD SWAP2 PUSH1 0x20 DUP7 LT PUSH2 0xBA6 JUMPI PUSH1 0x1F ADD PUSH1 0x5 SHR ADD SWAP1 PUSH2 0x2F0B JUMP JUMPDEST CODESIZE PUSH2 0x832 JUMP JUMPDEST PUSH4 0x4E487B71 PUSH1 0xE0 SHL DUP10 MSTORE PUSH1 0x41 PUSH1 0x4 MSTORE PUSH1 0x24 DUP10 REVERT JUMPDEST PUSH1 0x40 MLOAD PUSH4 0x1E4FBDF7 PUSH1 0xE0 SHL DUP2 MSTORE PUSH1 0x4 DUP2 ADD DUP8 SWAP1 MSTORE PUSH1 0x24 SWAP1 REVERT JUMPDEST PUSH9 0xFFFFFFFFFFFFFFFFFF NOT DUP4 AND PUSH9 0x10000000000000001 OR DUP5 SSTORE PUSH2 0x74C JUMP JUMPDEST PUSH1 0x40 MLOAD PUSH4 0xF92EE8A9 PUSH1 0xE0 SHL DUP2 MSTORE PUSH1 0x4 SWAP1 REVERT JUMPDEST SWAP1 POP ISZERO CODESIZE PUSH2 0x72A JUMP JUMPDEST ADDRESS EXTCODESIZE ISZERO SWAP2 POP PUSH2 0x722 JUMP JUMPDEST PUSH1 0x40 DUP6 SWAP1 SHR PUSH1 0xFF AND ISZERO SWAP2 POP PUSH2 0x718 JUMP JUMPDEST PUSH1 0x0 DUP1 REVERT JUMPDEST POP CALLVALUE PUSH2 0x31E JUMPI DUP1 PUSH1 0x3 NOT CALLDATASIZE ADD SLT PUSH2 0x31E JUMPI PUSH1 0x20 PUSH1 0x40 MLOAD PUSH5 0x2540BE400 DUP2 MSTORE RETURN JUMPDEST SWAP1 POP CALLVALUE PUSH2 0x5A1 JUMPI PUSH1 0x40 CALLDATASIZE PUSH1 0x3 NOT ADD SLT PUSH2 0x5A1 JUMPI PUSH2 0xD8D PUSH2 0x2DFE JUMP JUMPDEST PUSH1 0x1 PUSH1 0x1 PUSH1 0xA0 SHL SUB AND DUP3 MSTORE PUSH1 0x18 PUSH1 0x20 MSTORE PUSH1 0x40 DUP3 KECCAK256 DUP1 SLOAD PUSH1 0x24 CALLDATALOAD SWAP2 SWAP1 DUP3 LT ISZERO PUSH2 0xE09 JUMPI SWAP1 PUSH2 0xDB9 SWAP2 PUSH2 0x2E85 JUMP JUMPDEST POP DUP1 SLOAD SWAP1 PUSH1 0x1 DUP2 ADD SLOAD SWAP1 PUSH1 0x2 DUP2 ADD SLOAD PUSH1 0x3 DUP3 ADD SLOAD PUSH1 0x4 DUP4 ADD SLOAD SWAP2 PUSH1 0xFF PUSH1 0x6 PUSH1 0x5 DUP7 ADD SLOAD SWAP6 ADD SLOAD AND SWAP5 PUSH1 0x40 MLOAD SWAP7 DUP8 MSTORE PUSH1 0x20 DUP8 ADD MSTORE PUSH1 0x40 DUP7 ADD MSTORE PUSH1 0x60 DUP6 ADD MSTORE PUSH1 0x80 DUP5 ADD MSTORE PUSH1 0xA0 DUP4 ADD MSTORE ISZERO ISZERO PUSH1 0xC0 DUP3 ADD MSTORE RETURN JUMPDEST DUP4 DUP1 REVERT JUMPDEST DUP3 CALLVALUE PUSH2 0x31E JUMPI PUSH1 0x20 CALLDATASIZE PUSH1 0x3 NOT ADD SLT PUSH2 0x31E JUMPI PUSH1 0x20 SWAP1 PUSH1 0x40 SWAP1 PUSH1 0x1 PUSH1 0x1 PUSH1 0xA0 SHL SUB PUSH2 0xE35 PUSH2 0x2DFE JUMP JUMPDEST AND DUP2 MSTORE PUSH1 0x13 DUP4 MSTORE KECCAK256 SLOAD PUSH1 0x40 MLOAD SWAP1 DUP2 MSTORE RETURN JUMPDEST DUP3 CALLVALUE PUSH2 0x31E JUMPI PUSH1 0x80 CALLDATASIZE PUSH1 0x3 NOT ADD SLT PUSH2 0x31E JUMPI PUSH1 0x64 CALLDATALOAD PUSH1 0x44 CALLDATALOAD PUSH1 0x24 CALLDATALOAD PUSH1 0x4 CALLDATALOAD PUSH2 0xE6C PUSH2 0x32DD JUMP JUMPDEST PUSH2 0x2710 DUP2 GT PUSH2 0xF35 JUMPI DUP2 ISZERO PUSH2 0xF02 JUMPI PUSH2 0x1388 DUP1 DUP5 GT ISZERO SWAP1 DUP2 PUSH2 0xEF7 JUMPI JUMPDEST POP ISZERO PUSH2 0xEC2 JUMPI PUSH1 0x2 SSTORE PUSH1 0x3 SSTORE PUSH1 0x4 SSTORE PUSH1 0x5 SSTORE PUSH32 0x4E5005547C24DFD12003C2845FD20F2071C49FA3CD30B0BE7A064E3F4C3F8D2A DUP2 DUP1 LOG1 DUP1 RETURN JUMPDEST PUSH1 0x40 MLOAD PUSH3 0x461BCD PUSH1 0xE5 SHL DUP2 MSTORE PUSH1 0x20 PUSH1 0x4 DUP3 ADD MSTORE PUSH1 0xD PUSH1 0x24 DUP3 ADD MSTORE PUSH13 0x8CCACAE640E8DEDE40D0D2CED PUSH1 0x9B SHL PUSH1 0x44 DUP3 ADD MSTORE PUSH1 0x64 SWAP1 REVERT JUMPDEST SWAP1 POP DUP5 GT ISZERO DUP7 PUSH2 0xE89 JUMP JUMPDEST PUSH1 0x40 MLOAD PUSH3 0x461BCD PUSH1 0xE5 SHL DUP2 MSTORE PUSH1 0x20 PUSH1 0x4 DUP3 ADD MSTORE PUSH1 0xB PUSH1 0x24 DUP3 ADD MSTORE PUSH11 0x24B73B30B634B21036B4B7 PUSH1 0xA9 SHL PUSH1 0x44 DUP3 ADD MSTORE PUSH1 0x64 SWAP1 REVERT JUMPDEST PUSH1 0x40 MLOAD PUSH3 0x461BCD PUSH1 0xE5 SHL DUP2 MSTORE PUSH1 0x20 PUSH1 0x4 DUP3 ADD MSTORE PUSH1 0xC PUSH1 0x24 DUP3 ADD MSTORE PUSH12 0x82A0B240E8DEDE40D0D2CED PUSH1 0xA3 SHL PUSH1 0x44 DUP3 ADD MSTORE PUSH1 0x64 SWAP1 REVERT JUMPDEST DUP3 CALLVALUE PUSH2 0x31E JUMPI DUP1 PUSH1 0x3 NOT CALLDATASIZE ADD SLT PUSH2 0x31E JUMPI PUSH2 0xFAF PUSH1 0x40 MLOAD PUSH2 0xF89 DUP2 PUSH2 0x2DC2 JUMP JUMPDEST PUSH1 0x5 DUP2 MSTORE PUSH5 0x352E302E3 PUSH1 0xDC SHL PUSH1 0x20 DUP3 ADD MSTORE PUSH1 0x40 MLOAD SWAP2 DUP3 SWAP2 PUSH1 0x20 DUP4 MSTORE PUSH1 0x20 DUP4 ADD SWAP1 PUSH2 0x2E45 JUMP JUMPDEST SUB SWAP1 RETURN JUMPDEST DUP3 CALLVALUE PUSH2 0x31E JUMPI DUP1 PUSH1 0x3 NOT CALLDATASIZE ADD SLT PUSH2 0x31E JUMPI PUSH1 0x20 PUSH1 0x40 MLOAD PUSH2 0x2710 DUP2 MSTORE RETURN JUMPDEST DUP3 CALLVALUE PUSH2 0x31E JUMPI DUP1 PUSH1 0x3 NOT CALLDATASIZE ADD SLT PUSH2 0x31E JUMPI PUSH1 0x20 PUSH1 0x4 SLOAD PUSH1 0x40 MLOAD SWAP1 DUP2 MSTORE RETURN JUMPDEST DUP3 CALLVALUE PUSH2 0x31E JUMPI PUSH1 0x20 CALLDATASIZE PUSH1 0x3 NOT ADD SLT PUSH2 0x31E JUMPI PUSH1 0x20 PUSH2 0x648 PUSH2 0x100D PUSH2 0x2DFE JUMP JUMPDEST PUSH2 0x301F JUMP JUMPDEST DUP3 CALLVALUE PUSH2 0x31E JUMPI PUSH1 0x20 CALLDATASIZE PUSH1 0x3 NOT ADD SLT PUSH2 0x31E JUMPI PUSH2 0x102C PUSH2 0x2DFE JUMP JUMPDEST PUSH2 0x1034 PUSH2 0x32DD JUMP JUMPDEST PUSH1 0x1 PUSH1 0x1 PUSH1 0xA0 SHL SUB DUP2 DUP2 AND DUP1 DUP5 MSTORE PUSH1 0x13 PUSH1 0x20 MSTORE PUSH1 0x40 DUP5 KECCAK256 SLOAD SWAP1 SWAP3 SWAP1 SWAP2 SWAP1 DUP3 ISZERO PUSH2 0x5A5 JUMPI DUP5 SWAP2 DUP5 DUP4 MSTORE PUSH1 0x13 PUSH1 0x20 MSTORE DUP3 PUSH1 0x40 DUP2 KECCAK256 SSTORE PUSH1 0x14 PUSH1 0x20 MSTORE DUP3 PUSH1 0x40 DUP2 KECCAK256 SSTORE PUSH2 0x107E DUP5 PUSH1 0x12 SLOAD PUSH2 0x2EEB JUMP JUMPDEST PUSH1 0x12 SSTORE PUSH1 0x1 SLOAD AND DUP1 EXTCODESIZE ISZERO PUSH2 0x592 JUMPI PUSH1 0x40 MLOAD PUSH4 0x40C10F19 PUSH1 0xE0 SHL DUP2 MSTORE PUSH1 0x1 PUSH1 0x1 PUSH1 0xA0 SHL SUB SWAP3 SWAP1 SWAP3 AND PUSH1 0x4 DUP4 ADD MSTORE PUSH1 0x24 DUP3 ADD DUP5 SWAP1 MSTORE DUP3 SWAP1 DUP3 SWAP1 PUSH1 0x44 SWAP1 DUP3 SWAP1 DUP5 SWAP1 GAS CALL DUP1 ISZERO PUSH2 0x596 JUMPI PUSH2 0x1108 JUMPI JUMPDEST POP POP PUSH1 0x20 DUP2 PUSH2 0x10FB PUSH32 0xBF7F4CE048510F7136DA3DCF4031409F09D9A069FB46F061891FCB35610C3052 SWAP4 PUSH1 0x10 SLOAD PUSH2 0x2EDE JUMP JUMPDEST PUSH1 0x10 SSTORE PUSH1 0x40 MLOAD SWAP1 DUP2 MSTORE LOG2 DUP1 RETURN JUMPDEST PUSH2 0x1111 SWAP1 PUSH2 0x2D94 JUMP JUMPDEST PUSH2 0x592 JUMPI DUP3 DUP5 PUSH2 0x10C9 JUMP JUMPDEST DUP3 CALLVALUE PUSH2 0x31E JUMPI DUP1 PUSH1 0x3 NOT CALLDATASIZE ADD SLT PUSH2 0x31E JUMPI PUSH1 0x0 DUP1 MLOAD PUSH1 0x20 PUSH2 0x38C9 DUP4 CODECOPY DUP2 MLOAD SWAP2 MSTORE SLOAD PUSH1 0x40 MLOAD PUSH1 0x1 PUSH1 0x1 PUSH1 0xA0 SHL SUB SWAP1 SWAP2 AND DUP2 MSTORE PUSH1 0x20 SWAP1 RETURN JUMPDEST DUP3 CALLVALUE PUSH2 0x31E JUMPI PUSH1 0x20 CALLDATASIZE PUSH1 0x3 NOT ADD SLT PUSH2 0x31E JUMPI PUSH1 0x20 SWAP1 PUSH1 0x40 SWAP1 PUSH1 0x1 PUSH1 0x1 PUSH1 0xA0 SHL SUB PUSH2 0x117A PUSH2 0x2DFE JUMP JUMPDEST AND DUP2 MSTORE PUSH1 0x14 DUP4 MSTORE KECCAK256 SLOAD PUSH1 0x40 MLOAD SWAP1 DUP2 MSTORE RETURN JUMPDEST DUP3 CALLVALUE PUSH2 0x31E JUMPI DUP1 PUSH1 0x3 NOT CALLDATASIZE ADD SLT PUSH2 0x31E JUMPI PUSH1 0x20 PUSH1 0x40 MLOAD PUSH3 0x15180 DUP2 MSTORE RETURN JUMPDEST DUP3 CALLVALUE PUSH2 0x31E JUMPI DUP1 PUSH1 0x3 NOT CALLDATASIZE ADD SLT PUSH2 0x31E JUMPI PUSH32 0xA16A46D94261C7517CC8FF89F61C0CE93598E3C849801011DEE649A6A557D100 SLOAD ISZERO DUP1 PUSH2 0x12F0 JUMPI JUMPDEST ISZERO PUSH2 0x12B3 JUMPI PUSH2 0x11F0 PUSH2 0x3441 JUMP JUMPDEST SWAP1 PUSH2 0x11F9 PUSH2 0x3517 JUMP JUMPDEST PUSH1 0x40 MLOAD SWAP2 PUSH1 0x20 SWAP2 PUSH1 0x20 DUP5 ADD SWAP5 DUP5 DUP7 LT PUSH1 0x1 PUSH1 0x1 PUSH1 0x40 SHL SUB DUP8 GT OR PUSH2 0x129D JUMPI SWAP5 SWAP3 PUSH1 0x20 PUSH2 0x1253 DUP9 SWAP7 SWAP4 DUP7 PUSH1 0x40 MSTORE DUP6 DUP6 MSTORE PUSH2 0x1245 PUSH1 0x40 MLOAD SWAP10 DUP11 SWAP10 PUSH1 0xF PUSH1 0xF8 SHL DUP12 MSTORE DUP1 DUP7 DUP13 ADD MSTORE DUP11 ADD SWAP1 PUSH2 0x2E45 JUMP JUMPDEST SWAP1 DUP9 DUP3 SUB PUSH1 0x40 DUP11 ADD MSTORE PUSH2 0x2E45 JUMP JUMPDEST SWAP3 CHAINID PUSH1 0x60 DUP9 ADD MSTORE ADDRESS PUSH1 0x80 DUP9 ADD MSTORE DUP5 PUSH1 0xA0 DUP9 ADD MSTORE DUP7 DUP5 SUB PUSH1 0xC0 DUP9 ADD MSTORE MLOAD SWAP3 DUP4 DUP2 MSTORE ADD SWAP4 SWAP3 JUMPDEST DUP3 DUP2 LT PUSH2 0x1286 JUMPI POP POP POP POP SUB SWAP1 RETURN JUMPDEST DUP4 MLOAD DUP6 MSTORE DUP7 SWAP6 POP SWAP4 DUP2 ADD SWAP4 SWAP3 DUP2 ADD SWAP3 PUSH1 0x1 ADD PUSH2 0x1277 JUMP JUMPDEST PUSH4 0x4E487B71 PUSH1 0xE0 SHL PUSH1 0x0 MSTORE PUSH1 0x41 PUSH1 0x4 MSTORE PUSH1 0x24 PUSH1 0x0 REVERT JUMPDEST PUSH1 0x40 MLOAD PUSH3 0x461BCD PUSH1 0xE5 SHL DUP2 MSTORE PUSH1 0x20 PUSH1 0x4 DUP3 ADD MSTORE PUSH1 0x15 PUSH1 0x24 DUP3 ADD MSTORE PUSH21 0x1152540DCC4C8E88155B9A5B9A5D1A585B1A5E9959 PUSH1 0x5A SHL PUSH1 0x44 DUP3 ADD MSTORE PUSH1 0x64 SWAP1 REVERT JUMPDEST POP PUSH32 0xA16A46D94261C7517CC8FF89F61C0CE93598E3C849801011DEE649A6A557D101 SLOAD ISZERO PUSH2 0x11E3 JUMP JUMPDEST DUP3 CALLVALUE PUSH2 0x31E JUMPI DUP1 PUSH1 0x3 NOT CALLDATASIZE ADD SLT PUSH2 0x31E JUMPI PUSH1 0x20 PUSH1 0x11 SLOAD PUSH1 0x40 MLOAD SWAP1 DUP2 MSTORE RETURN JUMPDEST DUP3 CALLVALUE PUSH2 0x31E JUMPI DUP1 PUSH1 0x3 NOT CALLDATASIZE ADD SLT PUSH2 0x31E JUMPI PUSH1 0x20 PUSH1 0x40 MLOAD PUSH3 0xF4240 DUP2 MSTORE RETURN JUMPDEST DUP3 CALLVALUE PUSH2 0x31E JUMPI PUSH1 0x20 DUP1 PUSH1 0x3 NOT CALLDATASIZE ADD SLT PUSH2 0x5A1 JUMPI PUSH1 0x4 CALLDATALOAD SWAP1 PUSH1 0x1 PUSH1 0x1 PUSH1 0x40 SHL SUB DUP1 DUP4 GT PUSH2 0xE09 JUMPI CALLDATASIZE PUSH1 0x23 DUP5 ADD SLT ISZERO PUSH2 0xE09 JUMPI DUP3 PUSH1 0x4 ADD CALLDATALOAD SWAP1 DUP2 GT PUSH2 0xE09 JUMPI PUSH1 0x24 PUSH1 0x5 SWAP4 CALLDATASIZE PUSH1 0x24 DUP5 PUSH1 0x5 SHL DUP4 ADD ADD GT PUSH2 0x14B9 JUMPI PUSH2 0x13AE PUSH2 0x32DD JUMP JUMPDEST DUP3 ISZERO PUSH2 0x14A7 JUMPI SWAP4 SWAP3 SWAP2 SWAP1 DUP6 SWAP5 DUP7 SWAP5 JUMPDEST DUP4 DUP7 LT PUSH2 0x13FD JUMPI DUP8 DUP8 DUP1 PUSH2 0x13CF JUMPI POP DUP1 RETURN JUMPDEST PUSH1 0x20 PUSH32 0xAE041F9D923F738569780D6C09F095346E691E527852A2698CDB3F51389F36FE SWAP2 PUSH1 0x40 MLOAD SWAP1 DUP2 MSTORE LOG1 DUP1 RETURN JUMPDEST SWAP1 SWAP2 SWAP3 SWAP4 SWAP5 SWAP6 DUP4 DUP8 DUP4 SHL DUP5 ADD ADD CALLDATALOAD PUSH1 0x1 DUP1 PUSH1 0xA0 SHL SUB DUP2 AND DUP1 SWAP2 SUB PUSH2 0x14A3 JUMPI DUP1 ISZERO DUP1 ISZERO PUSH2 0x148E JUMPI JUMPDEST PUSH2 0x1484 JUMPI PUSH1 0x1 SWAP2 DUP2 PUSH2 0x1477 SWAP3 DUP12 MSTORE PUSH1 0x6 DUP10 MSTORE PUSH1 0x40 DUP12 KECCAK256 DUP5 PUSH1 0xFF NOT DUP3 SLOAD AND OR SWAP1 SSTORE PUSH1 0x15 DUP10 MSTORE TIMESTAMP PUSH1 0x40 DUP13 KECCAK256 SSTORE PUSH32 0xAAB7954E9D246B167EF88AEDDAD35209CA2489D95A8AEB59E288D9B19FAE5A54 DUP12 DUP1 LOG2 PUSH2 0x2F22 JUMP JUMPDEST SWAP7 JUMPDEST ADD SWAP5 SWAP4 SWAP3 SWAP2 SWAP1 PUSH2 0x13BD JUMP JUMPDEST POP SWAP6 PUSH1 0x1 SWAP1 PUSH2 0x1479 JUMP JUMPDEST POP DUP1 DUP10 MSTORE PUSH1 0x6 DUP8 MSTORE PUSH1 0xFF PUSH1 0x40 DUP11 KECCAK256 SLOAD AND PUSH2 0x1424 JUMP JUMPDEST DUP9 DUP1 REVERT JUMPDEST PUSH1 0x40 MLOAD PUSH4 0x521299A9 PUSH1 0xE0 SHL DUP2 MSTORE PUSH1 0x4 SWAP1 REVERT JUMPDEST DUP6 DUP1 REVERT JUMPDEST DUP3 CALLVALUE PUSH2 0x31E JUMPI DUP1 PUSH1 0x3 NOT CALLDATASIZE ADD SLT PUSH2 0x31E JUMPI PUSH1 0x0 DUP1 MLOAD PUSH1 0x20 PUSH2 0x3909 DUP4 CODECOPY DUP2 MLOAD SWAP2 MSTORE SLOAD CALLER PUSH1 0x1 PUSH1 0x1 PUSH1 0xA0 SHL SUB SWAP1 SWAP2 AND SUB PUSH2 0x14FB JUMPI PUSH2 0x14F8 CALLER PUSH2 0x3399 JUMP JUMPDEST DUP1 RETURN JUMPDEST PUSH1 0x40 MLOAD PUSH4 0x118CDAA7 PUSH1 0xE0 SHL DUP2 MSTORE CALLER PUSH1 0x4 DUP3 ADD MSTORE PUSH1 0x24 SWAP1 REVERT JUMPDEST DUP3 CALLVALUE PUSH2 0x31E JUMPI DUP1 PUSH1 0x3 NOT CALLDATASIZE ADD SLT PUSH2 0x31E JUMPI PUSH1 0x20 PUSH1 0x40 MLOAD PUSH4 0x2FAF080 DUP2 MSTORE RETURN JUMPDEST DUP3 CALLVALUE PUSH2 0x31E JUMPI PUSH1 0x20 CALLDATASIZE PUSH1 0x3 NOT ADD SLT PUSH2 0x31E JUMPI PUSH1 0x20 PUSH2 0x648 PUSH2 0x1551 PUSH2 0x2DFE JUMP JUMPDEST PUSH2 0x2F61 JUMP JUMPDEST DUP3 CALLVALUE PUSH2 0x31E JUMPI DUP1 PUSH1 0x3 NOT CALLDATASIZE ADD SLT PUSH2 0x31E JUMPI PUSH2 0x156F PUSH2 0x32DD JUMP JUMPDEST PUSH1 0x0 DUP1 MLOAD PUSH1 0x20 PUSH2 0x3909 DUP4 CODECOPY DUP2 MLOAD SWAP2 MSTORE DUP1 SLOAD PUSH1 0x1 PUSH1 0x1 PUSH1 0xA0 SHL SUB NOT SWAP1 DUP2 AND SWAP1 SWAP2 SSTORE PUSH1 0x0 DUP1 MLOAD PUSH1 0x20 PUSH2 0x38C9 DUP4 CODECOPY DUP2 MLOAD SWAP2 MSTORE DUP1 SLOAD SWAP2 DUP3 AND SWAP1 SSTORE PUSH1 0x0 SWAP1 PUSH1 0x1 PUSH1 0x1 PUSH1 0xA0 SHL SUB AND PUSH32 0x8BE0079C531659141344CD1FD0A4F28419497F9722A3DAAFE3B4186F6B6457E0 DUP3 DUP1 LOG3 DUP1 RETURN JUMPDEST DUP3 CALLVALUE PUSH2 0x31E JUMPI DUP1 PUSH1 0x3 NOT CALLDATASIZE ADD SLT PUSH2 0x31E JUMPI PUSH1 0x20 PUSH1 0x3 SLOAD PUSH1 0x40 MLOAD SWAP1 DUP2 MSTORE RETURN JUMPDEST DUP3 CALLVALUE PUSH2 0x31E JUMPI PUSH1 0x20 DUP1 PUSH1 0x3 NOT CALLDATASIZE ADD SLT PUSH2 0x5A1 JUMPI PUSH1 0x4 CALLDATALOAD SWAP1 PUSH2 0x1615 PUSH2 0x32DD JUMP JUMPDEST DUP2 ISZERO PUSH2 0x30C JUMPI PUSH2 0x162A PUSH1 0x10 SLOAD PUSH1 0x11 SLOAD SWAP1 PUSH2 0x2EEB JUMP JUMPDEST DUP4 SLOAD PUSH1 0x40 MLOAD PUSH4 0x70A08231 PUSH1 0xE0 SHL DUP2 MSTORE ADDRESS PUSH1 0x4 DUP3 ADD MSTORE PUSH1 0x1 PUSH1 0x1 PUSH1 0xA0 SHL SUB SWAP5 SWAP3 SWAP2 DUP6 AND SWAP2 DUP5 DUP3 PUSH1 0x24 DUP2 DUP7 GAS STATICCALL SWAP2 DUP3 ISZERO PUSH2 0x1708 JUMPI DUP8 SWAP3 PUSH2 0x16D9 JUMPI JUMPDEST POP DUP1 DUP3 GT SWAP2 DUP3 ISZERO SWAP3 PUSH2 0x16C6 JUMPI JUMPDEST POP POP PUSH2 0x16B4 JUMPI DUP2 PUSH2 0x302 SWAP2 PUSH32 0xFE3B13DEFE989AE4F834E0B20B5A1CEB1EEEAC592820020FDB22EBD8382DFD2F SWAP6 PUSH1 0x0 DUP1 MLOAD PUSH1 0x20 PUSH2 0x38C9 DUP4 CODECOPY DUP2 MLOAD SWAP2 MSTORE SLOAD AND SWAP1 PUSH2 0x3358 JUMP JUMPDEST PUSH1 0x40 MLOAD PUSH4 0xBB55FD27 PUSH1 0xE0 SHL DUP2 MSTORE PUSH1 0x4 SWAP1 REVERT JUMPDEST PUSH2 0x16D0 SWAP3 POP PUSH2 0x2EEB JUMP JUMPDEST DUP3 GT DUP7 DUP1 PUSH2 0x1670 JUMP JUMPDEST SWAP1 SWAP2 POP DUP5 DUP2 DUP2 RETURNDATASIZE DUP4 GT PUSH2 0x1701 JUMPI JUMPDEST PUSH2 0x16F1 DUP2 DUP4 PUSH2 0x2DDD JUMP JUMPDEST DUP2 ADD SUB SLT PUSH2 0xD4D JUMPI MLOAD SWAP1 DUP8 PUSH2 0x1663 JUMP JUMPDEST POP RETURNDATASIZE PUSH2 0x16E7 JUMP JUMPDEST PUSH1 0x40 MLOAD RETURNDATASIZE DUP10 DUP3 RETURNDATACOPY RETURNDATASIZE SWAP1 REVERT JUMPDEST DUP3 CALLVALUE PUSH2 0x31E JUMPI PUSH1 0x40 CALLDATASIZE PUSH1 0x3 NOT ADD SLT PUSH2 0x31E JUMPI PUSH1 0x4 CALLDATALOAD PUSH1 0x24 CALLDATALOAD DUP1 ISZERO ISZERO SWAP1 DUP2 DUP2 SUB PUSH2 0xE09 JUMPI PUSH2 0x173E PUSH2 0x3270 JUMP JUMPDEST PUSH2 0x1746 PUSH2 0x32A0 JUMP JUMPDEST CALLER DUP5 MSTORE PUSH1 0x20 SWAP1 PUSH1 0x6 DUP3 MSTORE PUSH1 0xFF PUSH1 0x40 DUP7 KECCAK256 SLOAD AND ISZERO PUSH2 0x5D3 JUMPI PUSH1 0x3 SLOAD DUP5 LT PUSH2 0x1978 JUMPI DUP4 ISZERO PUSH2 0x30C JUMPI DUP1 DUP1 PUSH2 0x1967 JUMPI JUMPDEST PUSH2 0x1955 JUMPI PUSH4 0x1DCD6500 DUP5 LT ISZERO PUSH2 0x194C JUMPI PUSH1 0x4 SLOAD SWAP2 JUMPDEST PUSH2 0x179F PUSH2 0x2710 PUSH2 0x1798 DUP6 DUP9 PUSH2 0x2EF8 JUMP JUMPDEST DIV DUP7 PUSH2 0x2EEB JUMP JUMPDEST DUP7 SLOAD PUSH1 0x40 MLOAD PUSH4 0x70A08231 PUSH1 0xE0 SHL DUP2 MSTORE ADDRESS PUSH1 0x4 DUP3 ADD MSTORE SWAP2 SWAP4 SWAP2 PUSH1 0x1 PUSH1 0x1 PUSH1 0xA0 SHL SUB SWAP2 DUP5 SWAP1 DUP3 SWAP1 PUSH1 0x24 SWAP1 DUP3 SWAP1 DUP7 AND GAS STATICCALL DUP1 ISZERO PUSH2 0x1941 JUMPI DUP6 SWAP2 DUP11 SWAP2 PUSH2 0x1910 JUMPI JUMPDEST POP LT PUSH2 0x16B4 JUMPI DUP8 DUP2 PUSH1 0x1 SLOAD AND DUP1 EXTCODESIZE ISZERO PUSH2 0x5A1 JUMPI PUSH1 0x40 MLOAD PUSH4 0x2770A7EB PUSH1 0xE2 SHL DUP2 MSTORE CALLER PUSH1 0x4 DUP3 ADD MSTORE PUSH1 0x24 DUP2 ADD DUP11 SWAP1 MSTORE SWAP2 SWAP1 DUP2 SWAP1 DUP4 SWAP1 PUSH1 0x44 SWAP1 DUP3 SWAP1 DUP5 SWAP1 GAS CALL SWAP2 DUP3 ISZERO PUSH2 0x1903 JUMPI DUP7 SWAP3 PUSH2 0x18E8 JUMPI JUMPDEST POP POP PUSH2 0x1845 SWAP2 PUSH2 0x1838 DUP10 PUSH1 0x11 SLOAD PUSH2 0x2EDE JUMP JUMPDEST PUSH1 0x11 SSTORE CALLER SWAP1 DUP11 SLOAD AND PUSH2 0x3358 JUMP JUMPDEST DUP1 PUSH2 0x18D4 JUMPI JUMPDEST PUSH2 0x189E JUMPI JUMPDEST PUSH1 0x40 MLOAD SWAP5 DUP6 MSTORE DUP5 ADD MSTORE PUSH1 0x40 DUP4 ADD MSTORE PUSH1 0x60 DUP3 ADD MSTORE PUSH32 0x55845E77D150A6BB68CDBCD26C664B9CC5D8E36485C3C1685D0ABAFBE0C7FB62 PUSH1 0x80 CALLER SWAP3 LOG2 PUSH1 0x1 PUSH1 0x0 DUP1 MLOAD PUSH1 0x20 PUSH2 0x38E9 DUP4 CODECOPY DUP2 MLOAD SWAP2 MSTORE SSTORE DUP1 RETURN JUMPDEST CALLER DUP7 MSTORE PUSH1 0x13 DUP2 MSTORE PUSH2 0x18B5 PUSH1 0x40 DUP8 KECCAK256 SLOAD PUSH1 0x12 SLOAD PUSH2 0x2EEB JUMP JUMPDEST PUSH1 0x12 SSTORE CALLER DUP7 MSTORE PUSH1 0x13 DUP2 MSTORE DUP6 PUSH1 0x40 DUP2 KECCAK256 SSTORE PUSH1 0x14 DUP2 MSTORE DUP6 PUSH1 0x40 DUP2 KECCAK256 SSTORE PUSH2 0x1850 JUMP JUMPDEST POP CALLER DUP7 MSTORE PUSH1 0x13 DUP2 MSTORE PUSH1 0x40 DUP7 KECCAK256 SLOAD ISZERO ISZERO PUSH2 0x184B JUMP JUMPDEST PUSH2 0x18F3 SWAP2 SWAP3 POP PUSH2 0x2D94 JUMP JUMPDEST PUSH2 0x18FF JUMPI DUP4 DUP9 DUP11 PUSH2 0x1826 JUMP JUMPDEST DUP8 DUP1 REVERT JUMPDEST POP PUSH1 0x40 MLOAD SWAP1 RETURNDATASIZE SWAP1 DUP3 RETURNDATACOPY RETURNDATASIZE SWAP1 REVERT JUMPDEST DUP1 SWAP3 POP DUP6 DUP1 SWAP3 POP RETURNDATASIZE DUP4 GT PUSH2 0x193A JUMPI JUMPDEST PUSH2 0x1929 DUP2 DUP4 PUSH2 0x2DDD JUMP JUMPDEST DUP2 ADD SUB SLT PUSH2 0xD4D JUMPI DUP5 SWAP1 MLOAD DUP11 PUSH2 0x17DC JUMP JUMPDEST POP RETURNDATASIZE PUSH2 0x191F JUMP JUMPDEST PUSH1 0x40 MLOAD RETURNDATASIZE DUP12 DUP3 RETURNDATACOPY RETURNDATASIZE SWAP1 REVERT JUMPDEST PUSH1 0x5 SLOAD SWAP2 PUSH2 0x1788 JUMP JUMPDEST PUSH1 0x40 MLOAD PUSH4 0xB120ADD5 PUSH1 0xE0 SHL DUP2 MSTORE PUSH1 0x4 SWAP1 REVERT JUMPDEST POP PUSH2 0x1971 CALLER PUSH2 0x301F JUMP JUMPDEST ISZERO ISZERO PUSH2 0x1773 JUMP JUMPDEST PUSH1 0x40 MLOAD PUSH4 0x36633D37 PUSH1 0xE0 SHL DUP2 MSTORE PUSH1 0x4 SWAP1 REVERT JUMPDEST DUP3 CALLVALUE PUSH2 0x31E JUMPI PUSH1 0x20 CALLDATASIZE PUSH1 0x3 NOT ADD SLT PUSH2 0x31E JUMPI PUSH1 0x4 CALLDATALOAD PUSH2 0x19A7 PUSH2 0x3270 JUMP JUMPDEST PUSH2 0x19AF PUSH2 0x32A0 JUMP JUMPDEST CALLER DUP3 MSTORE PUSH1 0x6 PUSH1 0x20 MSTORE PUSH1 0xFF PUSH1 0x40 DUP4 KECCAK256 SLOAD AND ISZERO PUSH2 0x5D3 JUMPI CALLER DUP3 MSTORE PUSH1 0x18 PUSH1 0x20 MSTORE PUSH1 0x40 DUP3 KECCAK256 SLOAD DUP2 LT ISZERO PUSH2 0x1B24 JUMPI PUSH2 0x19ED SWAP1 CALLER DUP4 MSTORE PUSH1 0x18 PUSH1 0x20 MSTORE PUSH1 0x40 DUP4 KECCAK256 PUSH2 0x2E85 JUMP JUMPDEST POP PUSH1 0x6 DUP2 ADD SWAP1 PUSH1 0xFF DUP3 SLOAD AND ISZERO PUSH2 0x1B24 JUMPI PUSH1 0x1 DUP2 ADD SLOAD PUSH1 0x2 DUP3 ADD SLOAD SWAP1 PUSH3 0x15180 SWAP2 DUP3 DUP2 MUL SWAP3 DUP2 DUP5 DIV EQ SWAP1 ISZERO OR ISZERO PUSH2 0x1B10 JUMPI SWAP1 PUSH2 0x1A27 SWAP2 PUSH2 0x2EDE JUMP JUMPDEST TIMESTAMP LT PUSH2 0x1AFE JUMPI PUSH2 0x1A3F PUSH1 0x5 DUP3 SLOAD SWAP3 ADD SWAP2 DUP3 SLOAD SWAP1 PUSH2 0x2EDE JUMP JUMPDEST PUSH1 0x1 SLOAD SWAP1 SWAP3 SWAP1 DUP5 SWAP1 PUSH1 0x1 PUSH1 0x1 PUSH1 0xA0 SHL SUB AND DUP1 EXTCODESIZE ISZERO PUSH2 0x5A1 JUMPI PUSH1 0x40 MLOAD PUSH4 0x40C10F19 PUSH1 0xE0 SHL DUP2 MSTORE CALLER PUSH1 0x4 DUP3 ADD MSTORE PUSH1 0x24 DUP2 ADD DUP7 SWAP1 MSTORE SWAP1 DUP3 SWAP1 DUP3 SWAP1 PUSH1 0x44 SWAP1 DUP3 SWAP1 DUP5 SWAP1 GAS CALL DUP1 ISZERO PUSH2 0x596 JUMPI PUSH2 0x1AEA JUMPI JUMPDEST POP POP PUSH2 0x1A98 DUP4 PUSH1 0x10 SLOAD PUSH2 0x2EDE JUMP JUMPDEST PUSH1 0x10 SSTORE PUSH1 0xFF NOT DUP2 SLOAD AND SWAP1 SSTORE SLOAD PUSH1 0x40 MLOAD SWAP2 DUP3 MSTORE PUSH1 0x20 DUP3 ADD MSTORE PUSH32 0x3F2F29FA02CC34566AC167B446BE0BE9E0254CAC18EDA93B2DFE6A7A7C8AFFB9 PUSH1 0x40 CALLER SWAP3 LOG2 PUSH1 0x1 PUSH1 0x0 DUP1 MLOAD PUSH1 0x20 PUSH2 0x38E9 DUP4 CODECOPY DUP2 MLOAD SWAP2 MSTORE SSTORE DUP1 RETURN JUMPDEST PUSH2 0x1AF3 SWAP1 PUSH2 0x2D94 JUMP JUMPDEST PUSH2 0xE09 JUMPI DUP4 DUP6 PUSH2 0x1A8A JUMP JUMPDEST PUSH1 0x40 MLOAD PUSH4 0x9225B941 PUSH1 0xE0 SHL DUP2 MSTORE PUSH1 0x4 SWAP1 REVERT JUMPDEST PUSH4 0x4E487B71 PUSH1 0xE0 SHL DUP6 MSTORE PUSH1 0x11 PUSH1 0x4 MSTORE PUSH1 0x24 DUP6 REVERT JUMPDEST PUSH1 0x40 MLOAD PUSH4 0x162908E3 PUSH1 0xE1 SHL DUP2 MSTORE PUSH1 0x4 SWAP1 REVERT JUMPDEST DUP3 CALLVALUE PUSH2 0x31E JUMPI DUP1 PUSH1 0x3 NOT CALLDATASIZE ADD SLT PUSH2 0x31E JUMPI PUSH1 0x20 PUSH1 0x40 MLOAD PUSH4 0x1DCD6500 DUP2 MSTORE RETURN JUMPDEST DUP3 CALLVALUE PUSH2 0x31E JUMPI DUP1 PUSH1 0x3 NOT CALLDATASIZE ADD SLT PUSH2 0x31E JUMPI PUSH1 0x20 PUSH1 0xFF PUSH32 0xCD5ED15C6E187E77E9AEE88184C21F4F2182AB5827CB3B7E07FBEDCD63F03300 SLOAD AND PUSH1 0x40 MLOAD SWAP1 ISZERO ISZERO DUP2 MSTORE RETURN JUMPDEST DUP3 CALLVALUE PUSH2 0x31E JUMPI PUSH1 0x20 SWAP2 DUP3 PUSH1 0x3 NOT CALLDATASIZE ADD SLT PUSH2 0x5A1 JUMPI PUSH2 0x100 SWAP3 PUSH2 0x1BB7 PUSH2 0x2DFE JUMP JUMPDEST SWAP3 PUSH1 0x1 DUP1 PUSH1 0xA0 SHL SUB SWAP4 DUP5 DUP2 AND SWAP2 DUP3 DUP2 MSTORE PUSH1 0x6 DUP5 MSTORE PUSH1 0xFF PUSH1 0x40 DUP3 KECCAK256 SLOAD AND SWAP6 PUSH1 0x7 DUP6 MSTORE PUSH1 0x40 DUP3 KECCAK256 SLOAD AND PUSH2 0x1BE7 DUP4 PUSH2 0x2F61 JUMP JUMPDEST PUSH2 0x1BF0 DUP5 PUSH2 0x301F JUMP JUMPDEST SWAP2 DUP6 DUP5 MSTORE PUSH1 0x13 DUP8 MSTORE PUSH1 0xFF PUSH1 0x40 DUP1 DUP7 KECCAK256 SLOAD SWAP6 PUSH1 0x14 DUP11 MSTORE PUSH2 0x1C12 DUP3 DUP3 KECCAK256 SLOAD SWAP9 PUSH2 0x308A JUMP JUMPDEST SWAP9 DUP2 MSTORE PUSH1 0x8 DUP11 MSTORE KECCAK256 SLOAD AND SWAP7 PUSH1 0x40 MLOAD SWAP10 ISZERO ISZERO DUP11 MSTORE DUP10 ADD MSTORE PUSH1 0x40 DUP9 ADD MSTORE PUSH1 0x60 DUP8 ADD MSTORE PUSH1 0x80 DUP7 ADD MSTORE PUSH1 0xA0 DUP6 ADD MSTORE PUSH1 0xC0 DUP5 ADD MSTORE ISZERO ISZERO SWAP1 DUP3 ADD MSTORE RETURN JUMPDEST DUP3 CALLVALUE PUSH2 0x31E JUMPI DUP1 PUSH1 0x3 NOT CALLDATASIZE ADD SLT PUSH2 0x31E JUMPI PUSH32 0x0 PUSH1 0x1 PUSH1 0x1 PUSH1 0xA0 SHL SUB AND ADDRESS SUB PUSH2 0x1CB4 JUMPI PUSH1 0x20 PUSH1 0x40 MLOAD PUSH32 0x360894A13BA1A3210667C828492DB98DCA3E2076CC3735A920A3CA505D382BBC DUP2 MSTORE RETURN JUMPDEST PUSH1 0x40 MLOAD PUSH4 0x703E46DD PUSH1 0xE1 SHL DUP2 MSTORE PUSH1 0x4 SWAP1 REVERT JUMPDEST DUP3 CALLVALUE PUSH2 0x31E JUMPI DUP1 PUSH1 0x3 NOT CALLDATASIZE ADD SLT PUSH2 0x31E JUMPI PUSH1 0x20 PUSH1 0x10 SLOAD PUSH1 0x40 MLOAD SWAP1 DUP2 MSTORE RETURN JUMPDEST DUP3 PUSH1 0x40 CALLDATASIZE PUSH1 0x3 NOT ADD SLT PUSH2 0x31E JUMPI PUSH2 0x1CF9 PUSH2 0x2DFE JUMP JUMPDEST PUSH1 0x24 SWAP2 DUP3 CALLDATALOAD PUSH1 0x1 PUSH1 0x1 PUSH1 0x40 SHL SUB DUP2 GT PUSH2 0x5A1 JUMPI CALLDATASIZE PUSH1 0x23 DUP3 ADD SLT ISZERO PUSH2 0x5A1 JUMPI DUP1 PUSH1 0x4 ADD CALLDATALOAD SWAP3 PUSH2 0x1D26 DUP5 PUSH2 0x2E2A JUMP JUMPDEST PUSH2 0x1D33 PUSH1 0x40 MLOAD SWAP2 DUP3 PUSH2 0x2DDD JUMP JUMPDEST DUP5 DUP2 MSTORE PUSH1 0x20 SWAP5 DUP6 DUP3 ADD SWAP4 CALLDATASIZE DUP9 DUP4 DUP4 ADD ADD GT PUSH2 0x14B9 JUMPI DUP2 DUP7 SWAP3 DUP10 DUP10 SWAP4 ADD DUP8 CALLDATACOPY DUP4 ADD ADD MSTORE PUSH1 0x1 PUSH1 0x1 PUSH1 0xA0 SHL SUB PUSH32 0x0 DUP2 AND ADDRESS DUP2 EQ SWAP1 DUP2 ISZERO PUSH2 0x1EE5 JUMPI JUMPDEST POP PUSH2 0x1CB4 JUMPI PUSH2 0x1D98 PUSH2 0x32DD JUMP JUMPDEST PUSH1 0x40 MLOAD PUSH4 0x52D1902D PUSH1 0xE0 SHL DUP2 MSTORE SWAP1 DUP4 AND SWAP6 DUP1 DUP3 PUSH1 0x4 DUP2 DUP11 GAS STATICCALL SWAP2 DUP3 SWAP2 DUP8 SWAP4 PUSH2 0x1EB5 JUMPI JUMPDEST POP POP PUSH2 0x1DD9 JUMPI PUSH1 0x40 MLOAD PUSH4 0x4C9C8CE3 PUSH1 0xE0 SHL DUP2 MSTORE PUSH1 0x4 DUP2 ADD DUP8 SWAP1 MSTORE DUP8 SWAP1 REVERT JUMPDEST DUP6 SWAP1 DUP8 PUSH32 0x360894A13BA1A3210667C828492DB98DCA3E2076CC3735A920A3CA505D382BBC SWAP2 DUP3 DUP2 SUB PUSH2 0x1EA0 JUMPI POP DUP5 EXTCODESIZE ISZERO PUSH2 0x1E8A JUMPI POP DUP1 SLOAD PUSH1 0x1 PUSH1 0x1 PUSH1 0xA0 SHL SUB NOT AND DUP3 OR SWAP1 SSTORE PUSH1 0x40 MLOAD DUP6 SWAP3 SWAP2 PUSH32 0xBC7CD75A20EE27FD9ADEBAB32041F755214DBC6BFFA90CC0225B39DA2E5C2D3B DUP5 DUP1 LOG2 DUP2 MLOAD ISZERO PUSH2 0x1E6D JUMPI POP PUSH2 0x1E69 SWAP4 DUP3 SWAP2 MLOAD SWAP1 DUP5 GAS DELEGATECALL PUSH2 0x1E63 PUSH2 0x2F31 JUMP JUMPDEST SWAP2 PUSH2 0x3845 JUMP JUMPDEST POP DUP1 RETURN JUMPDEST SWAP4 POP POP POP POP CALLVALUE PUSH2 0x1E7B JUMPI POP DUP1 RETURN JUMPDEST PUSH4 0xB398979F PUSH1 0xE0 SHL DUP2 MSTORE PUSH1 0x4 SWAP1 REVERT JUMPDEST PUSH1 0x40 MLOAD PUSH4 0x4C9C8CE3 PUSH1 0xE0 SHL DUP2 MSTORE PUSH1 0x4 DUP2 ADD DUP5 SWAP1 MSTORE REVERT JUMPDEST PUSH1 0x40 MLOAD SWAP1 PUSH4 0x2A875269 PUSH1 0xE2 SHL DUP3 MSTORE PUSH1 0x4 DUP3 ADD MSTORE REVERT JUMPDEST SWAP1 DUP1 SWAP3 SWAP4 POP DUP2 RETURNDATASIZE DUP4 GT PUSH2 0x1EDE JUMPI JUMPDEST PUSH2 0x1ECD DUP2 DUP4 PUSH2 0x2DDD JUMP JUMPDEST DUP2 ADD SUB SLT PUSH2 0x14B9 JUMPI MLOAD SWAP1 DUP9 DUP1 PUSH2 0x1DBB JUMP JUMPDEST POP RETURNDATASIZE PUSH2 0x1EC3 JUMP JUMPDEST SWAP1 POP DUP2 PUSH32 0x360894A13BA1A3210667C828492DB98DCA3E2076CC3735A920A3CA505D382BBC SLOAD AND EQ ISZERO DUP9 PUSH2 0x1D8B JUMP JUMPDEST DUP3 CALLVALUE PUSH2 0x31E JUMPI PUSH1 0x20 CALLDATASIZE PUSH1 0x3 NOT ADD SLT PUSH2 0x31E JUMPI PUSH1 0x20 SWAP1 PUSH1 0x40 SWAP1 PUSH1 0x1 PUSH1 0x1 PUSH1 0xA0 SHL SUB PUSH2 0x1F3B PUSH2 0x2DFE JUMP JUMPDEST AND DUP2 MSTORE PUSH1 0x17 DUP4 MSTORE KECCAK256 SLOAD PUSH1 0x40 MLOAD SWAP1 DUP2 MSTORE RETURN JUMPDEST DUP3 CALLVALUE PUSH2 0x31E JUMPI PUSH1 0x20 CALLDATASIZE PUSH1 0x3 NOT ADD SLT PUSH2 0x31E JUMPI PUSH1 0x20 SWAP1 PUSH1 0xFF SWAP1 PUSH1 0x40 SWAP1 PUSH1 0x1 PUSH1 0x1 PUSH1 0xA0 SHL SUB PUSH2 0x1F77 PUSH2 0x2DFE JUMP JUMPDEST AND DUP2 MSTORE PUSH1 0x16 DUP5 MSTORE KECCAK256 SLOAD AND PUSH1 0x40 MLOAD SWAP1 ISZERO ISZERO DUP2 MSTORE RETURN JUMPDEST DUP3 CALLVALUE PUSH2 0x31E JUMPI DUP1 PUSH1 0x3 NOT CALLDATASIZE ADD SLT PUSH2 0x31E JUMPI PUSH2 0x1FA4 PUSH2 0x3270 JUMP JUMPDEST PUSH2 0x1FAC PUSH2 0x32A0 JUMP JUMPDEST CALLER DUP2 MSTORE PUSH1 0x6 PUSH1 0x20 MSTORE PUSH1 0xFF PUSH1 0x40 DUP3 KECCAK256 SLOAD AND ISZERO PUSH2 0x5D3 JUMPI PUSH2 0x1FCA CALLER PUSH2 0x308A JUMP JUMPDEST DUP1 ISZERO PUSH2 0x30C JUMPI CALLER DUP3 MSTORE PUSH1 0x15 PUSH1 0x20 MSTORE PUSH1 0x40 DUP3 KECCAK256 TIMESTAMP SWAP1 SSTORE PUSH1 0x1 SLOAD DUP3 SWAP1 PUSH1 0x1 PUSH1 0x1 PUSH1 0xA0 SHL SUB AND DUP1 EXTCODESIZE ISZERO PUSH2 0x5A1 JUMPI PUSH1 0x40 MLOAD PUSH4 0x40C10F19 PUSH1 0xE0 SHL DUP2 MSTORE CALLER PUSH1 0x4 DUP3 ADD MSTORE PUSH1 0x24 DUP2 ADD DUP5 SWAP1 MSTORE SWAP1 DUP3 SWAP1 DUP3 SWAP1 PUSH1 0x44 SWAP1 DUP3 SWAP1 DUP5 SWAP1 GAS CALL DUP1 ISZERO PUSH2 0x596 JUMPI PUSH2 0x2079 JUMPI JUMPDEST POP POP PUSH2 0x2035 DUP2 PUSH1 0x10 SLOAD PUSH2 0x2EDE JUMP JUMPDEST PUSH1 0x10 SSTORE PUSH1 0x40 MLOAD SWAP1 DUP2 MSTORE PUSH32 0xF9984C8173C4B4FF9CC454F76ED19C053F4490CCB224FD9DDFFEB4EF4BEA3530 PUSH1 0x20 CALLER SWAP3 LOG2 PUSH1 0x1 PUSH1 0x0 DUP1 MLOAD PUSH1 0x20 PUSH2 0x38E9 DUP4 CODECOPY DUP2 MLOAD SWAP2 MSTORE SSTORE DUP1 RETURN JUMPDEST PUSH2 0x2082 SWAP1 PUSH2 0x2D94 JUMP JUMPDEST PUSH2 0x5A1 JUMPI DUP2 DUP4 PUSH2 0x2027 JUMP JUMPDEST DUP3 CALLVALUE PUSH2 0x31E JUMPI PUSH1 0x20 CALLDATASIZE PUSH1 0x3 NOT ADD SLT PUSH2 0x31E JUMPI PUSH1 0x20 SWAP1 PUSH1 0x1 PUSH1 0x1 PUSH1 0xA0 SHL SUB PUSH2 0x20B2 PUSH2 0x2DFE JUMP JUMPDEST AND DUP2 MSTORE PUSH1 0x13 DUP3 MSTORE PUSH1 0x40 DUP2 KECCAK256 SLOAD ISZERO ISZERO SWAP1 DUP2 PUSH2 0x20EB JUMPI JUMPDEST DUP2 PUSH2 0x20D8 JUMPI JUMPDEST POP PUSH1 0x40 MLOAD SWAP1 ISZERO ISZERO DUP2 MSTORE RETURN JUMPDEST PUSH1 0x40 SWAP2 POP PUSH1 0x14 DUP4 MSTORE KECCAK256 SLOAD TIMESTAMP LT ISZERO DUP3 PUSH2 0x20CD JUMP JUMPDEST PUSH1 0x14 DUP4 MSTORE PUSH1 0x40 DUP2 KECCAK256 SLOAD ISZERO ISZERO SWAP2 POP PUSH2 0x20C7 JUMP JUMPDEST DUP3 CALLVALUE PUSH2 0x31E JUMPI DUP1 PUSH1 0x3 NOT CALLDATASIZE ADD SLT PUSH2 0x31E JUMPI SLOAD PUSH1 0x40 MLOAD PUSH1 0x1 PUSH1 0x1 PUSH1 0xA0 SHL SUB SWAP1 SWAP2 AND DUP2 MSTORE PUSH1 0x20 SWAP1 RETURN JUMPDEST DUP3 CALLVALUE PUSH2 0x31E JUMPI DUP1 PUSH1 0x3 NOT CALLDATASIZE ADD SLT PUSH2 0x31E JUMPI PUSH1 0x20 PUSH1 0x40 MLOAD PUSH2 0x721 DUP2 MSTORE RETURN JUMPDEST DUP3 CALLVALUE PUSH2 0x31E JUMPI PUSH1 0xA0 CALLDATASIZE PUSH1 0x3 NOT ADD SLT PUSH2 0x31E JUMPI PUSH1 0x4 CALLDATALOAD PUSH2 0x215E PUSH2 0x2E14 JUMP JUMPDEST SWAP1 PUSH1 0x44 CALLDATALOAD SWAP2 PUSH1 0xFF SWAP1 DUP2 DUP5 AND DUP5 SUB PUSH2 0x27FE JUMPI PUSH2 0x2177 PUSH2 0x3270 JUMP JUMPDEST PUSH2 0x217F PUSH2 0x32A0 JUMP JUMPDEST CALLER DUP6 MSTORE PUSH1 0x20 SWAP3 PUSH1 0x6 DUP5 MSTORE DUP3 PUSH1 0x40 DUP8 KECCAK256 SLOAD AND ISZERO PUSH2 0x5D3 JUMPI DUP1 ISZERO PUSH2 0x30C JUMPI CALLER DUP7 MSTORE PUSH1 0x8 SWAP5 PUSH1 0x8 DUP6 MSTORE DUP4 PUSH1 0x40 DUP9 KECCAK256 SLOAD AND ISZERO SWAP1 DUP8 SWAP4 DUP3 DUP1 PUSH2 0x27EC JUMPI JUMPDEST PUSH2 0x2594 JUMPI JUMPDEST POP POP DUP7 SLOAD PUSH1 0x1 PUSH1 0x1 PUSH1 0xA0 SHL SUB SWAP5 SWAP1 PUSH2 0x21DB SWAP1 DUP5 SWAP1 ADDRESS SWAP1 CALLER SWAP1 DUP10 AND PUSH2 0x32FE JUMP JUMPDEST PUSH1 0x1 SWAP7 DUP6 DUP9 SLOAD AND SWAP3 DUP4 EXTCODESIZE ISZERO PUSH2 0x2590 JUMPI PUSH1 0x40 MLOAD PUSH4 0x40C10F19 PUSH1 0xE0 SHL DUP2 MSTORE CALLER PUSH1 0x4 DUP3 ADD MSTORE PUSH1 0x24 DUP2 ADD DUP7 SWAP1 MSTORE SWAP4 DUP11 SWAP1 DUP2 SWAP1 DUP7 SWAP1 PUSH1 0x44 SWAP1 DUP3 SWAP1 DUP5 SWAP1 GAS CALL SWAP5 DUP6 ISZERO PUSH2 0x1903 JUMPI DUP11 SWAP6 PUSH2 0x2577 JUMPI JUMPDEST POP POP PUSH2 0x2230 DUP6 PUSH1 0x10 SLOAD PUSH2 0x2EDE JUMP JUMPDEST PUSH1 0x10 SSTORE CALLER DUP11 MSTORE PUSH1 0x15 DUP9 MSTORE PUSH1 0x40 DUP11 KECCAK256 DUP1 SLOAD ISZERO PUSH2 0x256E JUMPI JUMPDEST POP DUP1 DUP1 PUSH2 0x2560 JUMPI JUMPDEST PUSH2 0x247D JUMPI JUMPDEST PUSH2 0x22A4 JUMPI JUMPDEST POP POP POP PUSH1 0x40 MLOAD SWAP4 DUP2 DUP6 MSTORE DUP5 ADD MSTORE AND PUSH1 0x40 DUP3 ADD MSTORE PUSH32 0xA49637E3F6491DE6C2C23C5006BEF69DF603D0DBA9D65C8B756FE46AC29810B9 PUSH1 0x60 CALLER SWAP3 LOG2 PUSH1 0x0 DUP1 MLOAD PUSH1 0x20 PUSH2 0x38E9 DUP4 CODECOPY DUP2 MLOAD SWAP2 MSTORE SSTORE DUP1 RETURN JUMPDEST CALLER DUP10 MSTORE PUSH1 0x8 DUP8 MSTORE PUSH1 0x40 DUP10 KECCAK256 DUP1 SLOAD PUSH1 0xFF NOT AND DUP5 OR SWAP1 SSTORE DUP5 DUP7 AND ISZERO PUSH2 0x2258 JUMPI SWAP1 SWAP2 PUSH1 0x7 SWAP3 PUSH1 0x7 DUP9 MSTORE DUP7 PUSH1 0x40 DUP12 KECCAK256 SLOAD AND DUP11 SWAP3 JUMPDEST PUSH2 0x22E3 JUMPI JUMPDEST POP POP DUP8 SWAP3 POP PUSH2 0x2258 JUMP JUMPDEST DUP8 DUP6 DUP5 LT SWAP2 DUP3 DUP1 SWAP4 PUSH2 0x2472 JUMPI JUMPDEST ISZERO PUSH2 0x246B JUMPI AND SWAP1 DUP2 DUP13 MSTORE DUP5 DUP11 MSTORE DUP3 PUSH1 0x40 DUP14 KECCAK256 SLOAD AND ISZERO PUSH2 0x2451 JUMPI ISZERO PUSH2 0x2457 JUMPI DUP3 PUSH1 0x9 ADD SLOAD DUP1 ISZERO PUSH2 0x2451 JUMPI PUSH2 0x2326 PUSH2 0x2710 SWAP2 DUP9 PUSH2 0x2EF8 JUMP JUMPDEST DIV DUP1 ISZERO PUSH2 0x2451 JUMPI PUSH1 0x12 PUSH2 0x233A DUP3 DUP3 SLOAD PUSH2 0x2EDE JUMP JUMPDEST SWAP1 SSTORE DUP2 DUP13 MSTORE PUSH1 0x13 DUP11 MSTORE PUSH1 0x40 DUP13 KECCAK256 PUSH2 0x2352 DUP3 DUP3 SLOAD PUSH2 0x2EDE JUMP JUMPDEST SWAP1 SSTORE DUP2 DUP13 MSTORE PUSH1 0x14 DUP1 DUP12 MSTORE DUP11 DUP14 PUSH1 0x40 DUP2 KECCAK256 SLOAD DUP1 ISZERO SWAP1 DUP2 ISZERO PUSH2 0x243F JUMPI JUMPDEST POP PUSH2 0x2424 JUMPI JUMPDEST POP POP DUP12 DUP6 ADD DUP1 DUP7 GT PUSH2 0x2410 JUMPI PUSH1 0x40 DUP5 SWAP4 DUP16 DUP16 SWAP11 SWAP10 SWAP9 SWAP8 SWAP7 SWAP5 DUP16 SWAP2 DUP5 SWAP2 DUP8 PUSH32 0xCDE26B6C1D41CA6BAC61DBEB22CD10AE77793295BA83E40E4496C6E6D88C51E6 DUP5 PUSH32 0xD892ABCB003EBE0B554A5787058BF9EA75EAB7E70DDB3FC1DC0EE2335EC3BFBC SWAP10 DUP2 MLOAD SWAP1 DUP2 MSTORE DUP9 DUP9 DUP3 ADD MSTORE LOG2 DUP8 DUP3 MSTORE DUP4 MSTORE KECCAK256 SLOAD SWAP1 DUP4 MLOAD SWAP3 DUP4 MSTORE DUP3 ADD MSTORE LOG2 DUP12 MSTORE DUP4 DUP10 MSTORE PUSH2 0x2405 DUP9 PUSH1 0x40 DUP14 KECCAK256 SLOAD AND SWAP3 PUSH2 0x2F22 JUMP JUMPDEST SWAP3 SWAP4 SWAP5 SWAP2 SWAP1 SWAP2 PUSH2 0x22D4 JUMP JUMPDEST PUSH4 0x4E487B71 PUSH1 0xE0 SHL DUP15 MSTORE PUSH1 0x11 PUSH1 0x4 MSTORE PUSH1 0x24 DUP15 REVERT JUMPDEST PUSH1 0x40 SWAP1 DUP4 PUSH2 0x2431 TIMESTAMP PUSH2 0x2EB7 JUMP JUMPDEST SWAP4 DUP8 DUP4 MSTORE MSTORE KECCAK256 SSTORE DUP11 DUP14 PUSH2 0x2373 JUMP JUMPDEST SWAP1 POP PUSH2 0x244A TIMESTAMP PUSH2 0x2EB7 JUMP JUMPDEST GT CODESIZE PUSH2 0x236D JUMP JUMPDEST POP PUSH2 0x22D9 JUMP JUMPDEST PUSH4 0x4E487B71 PUSH1 0xE0 SHL DUP12 MSTORE PUSH1 0x32 PUSH1 0x4 MSTORE PUSH1 0x24 DUP12 REVERT JUMPDEST POP POP PUSH2 0x22D9 JUMP JUMPDEST POP DUP2 DUP2 AND ISZERO ISZERO PUSH2 0x22F0 JUMP JUMPDEST PUSH1 0x16 DUP9 MSTORE PUSH1 0x40 DUP11 KECCAK256 DUP1 SLOAD PUSH1 0xFF NOT AND DUP6 OR SWAP1 SSTORE PUSH4 0x5F5E100 DUP6 GT PUSH2 0x253F JUMPI PUSH2 0x24A8 DUP4 PUSH1 0x3 JUMPDEST AND DUP7 PUSH2 0x2EF8 JUMP JUMPDEST PUSH5 0x2540BE400 SWAP1 DUP2 DUP2 GT ISZERO PUSH2 0x2538 JUMPI POP JUMPDEST DUP1 PUSH2 0x24C5 JUMPI JUMPDEST POP PUSH2 0x2253 JUMP JUMPDEST PUSH2 0x24D1 DUP2 PUSH1 0x12 SLOAD PUSH2 0x2EDE JUMP JUMPDEST PUSH1 0x12 SSTORE CALLER DUP12 MSTORE PUSH1 0x13 DUP10 MSTORE PUSH1 0x40 DUP12 KECCAK256 PUSH2 0x24EA DUP3 DUP3 SLOAD PUSH2 0x2EDE JUMP JUMPDEST SWAP1 SSTORE PUSH2 0x24F5 TIMESTAMP PUSH2 0x2EB7 JUMP JUMPDEST CALLER DUP13 MSTORE PUSH1 0x14 DUP11 MSTORE DUP1 PUSH1 0x40 DUP14 KECCAK256 SSTORE PUSH1 0x40 MLOAD SWAP2 DUP3 MSTORE DUP10 DUP3 ADD MSTORE PUSH32 0xD892ABCB003EBE0B554A5787058BF9EA75EAB7E70DDB3FC1DC0EE2335EC3BFBC PUSH1 0x40 CALLER SWAP3 LOG2 DUP11 PUSH2 0x24BF JUMP JUMPDEST SWAP1 POP PUSH2 0x24B9 JUMP JUMPDEST PUSH4 0x1DCD6500 DUP6 GT PUSH2 0x2555 JUMPI PUSH2 0x24A8 DUP4 PUSH1 0x5 PUSH2 0x24A1 JUMP JUMPDEST PUSH2 0x24A8 DUP4 PUSH1 0xA PUSH2 0x24A1 JUMP JUMPDEST POP PUSH4 0x2FAF080 DUP6 LT ISZERO PUSH2 0x224E JUMP JUMPDEST TIMESTAMP SWAP1 SSTORE DUP11 PUSH2 0x2246 JUMP JUMPDEST PUSH2 0x2583 SWAP2 SWAP3 SWAP6 POP PUSH2 0x2D94 JUMP JUMPDEST PUSH2 0x14A3 JUMPI DUP8 SWAP3 DUP10 DUP12 PUSH2 0x2222 JUMP JUMPDEST DUP10 DUP1 REVERT JUMPDEST PUSH1 0x1 PUSH1 0x1 PUSH1 0xA0 SHL SUB DUP1 DUP3 AND SWAP6 POP SWAP1 SWAP2 CALLER DUP7 EQ PUSH2 0x27B6 JUMPI CALLER DUP11 MSTORE PUSH1 0x17 DUP9 MSTORE PUSH1 0x40 DUP11 KECCAK256 SLOAD SWAP1 PUSH1 0x40 MLOAD SWAP2 DUP10 DUP4 ADD SWAP1 PUSH32 0x5867DFF058DA09194022813984E1A90539901039466F1CB10F0D3DA4CD8890BE DUP3 MSTORE CALLER PUSH1 0x40 DUP6 ADD MSTORE PUSH1 0x60 DUP5 ADD MSTORE PUSH1 0x60 DUP4 MSTORE PUSH1 0x80 DUP4 ADD SWAP3 PUSH1 0x1 PUSH1 0x1 PUSH1 0x40 SHL SUB SWAP4 DUP2 DUP2 LT DUP6 DUP3 GT OR PUSH2 0x129D JUMPI PUSH1 0x40 MSTORE MLOAD SWAP1 KECCAK256 SWAP1 PUSH2 0x2619 PUSH2 0x3796 JUMP JUMPDEST SWAP1 PUSH2 0x2622 PUSH2 0x3800 JUMP JUMPDEST SWAP1 PUSH1 0x40 MLOAD SWAP2 DUP13 DUP4 ADD SWAP4 PUSH32 0x8B73C3C69BB8FE3D512ECC4CF759CC79239F7B179B0FFACAA9A75D522B39400F DUP6 MSTORE PUSH1 0x40 DUP5 ADD MSTORE PUSH1 0x60 DUP4 ADD MSTORE CHAINID PUSH1 0x80 DUP4 ADD MSTORE ADDRESS PUSH1 0xA0 DUP4 ADD MSTORE PUSH1 0xA0 DUP3 MSTORE PUSH1 0xC0 DUP3 ADD SWAP5 DUP3 DUP7 LT SWAP1 DUP7 GT OR PUSH2 0x129D JUMPI DUP5 DUP7 SWAP5 PUSH1 0xE2 PUSH2 0x26AD SWAP5 PUSH2 0x26B6 SWAP7 DUP15 SWAP10 PUSH1 0x40 MSTORE DUP2 MLOAD SWAP1 KECCAK256 PUSH2 0x1901 PUSH1 0xF0 SHL DUP6 MSTORE PUSH1 0xC2 DUP3 ADD MSTORE ADD MSTORE PUSH1 0x84 CALLDATALOAD SWAP2 PUSH1 0x42 PUSH1 0x64 CALLDATALOAD SWAP3 KECCAK256 PUSH2 0x35D8 JUMP JUMPDEST SWAP1 SWAP3 SWAP2 SWAP3 PUSH2 0x3668 JUMP JUMPDEST AND SUB PUSH2 0x27DA JUMPI DUP5 DUP10 MSTORE PUSH1 0x6 DUP8 MSTORE DUP6 PUSH1 0x40 DUP11 KECCAK256 SLOAD AND ISZERO DUP1 ISZERO PUSH2 0x27C8 JUMPI JUMPDEST PUSH2 0x27B6 JUMPI CALLER DUP10 MSTORE PUSH1 0x7 SWAP1 PUSH1 0x7 DUP9 MSTORE DUP1 PUSH1 0x40 DUP12 KECCAK256 SLOAD AND PUSH2 0x27A4 JUMPI DUP10 SWAP2 DUP4 JUMPDEST DUP2 DUP5 LT PUSH2 0x2768 JUMPI JUMPDEST POP POP POP POP CALLER DUP9 MSTORE PUSH1 0x17 DUP7 MSTORE PUSH1 0x40 DUP9 KECCAK256 PUSH2 0x2710 DUP2 SLOAD PUSH2 0x2F22 JUMP JUMPDEST SWAP1 SSTORE CALLER DUP9 MSTORE PUSH1 0x7 DUP7 MSTORE PUSH1 0x40 DUP9 KECCAK256 DUP5 PUSH12 0xFFFFFFFFFFFFFFFFFFFFFFFF PUSH1 0xA0 SHL DUP3 SLOAD AND OR SWAP1 SSTORE SWAP3 PUSH1 0x40 MLOAD SWAP1 DUP4 DUP3 MSTORE PUSH32 0xB2B62C7418475F601C89A2F8DE70E27613387343DFDE61D4166E06424BFEF0F5 DUP8 CALLER SWAP4 LOG3 DUP8 DUP1 PUSH2 0x21BC JUMP JUMPDEST DUP3 AND DUP1 ISZERO PUSH2 0x279F JUMPI CALLER DUP2 EQ PUSH2 0x278D JUMPI DUP12 MSTORE DUP1 DUP10 MSTORE PUSH1 0x1 DUP3 PUSH1 0x40 DUP14 KECCAK256 SLOAD AND SWAP4 ADD SWAP3 PUSH2 0x26EF JUMP JUMPDEST PUSH1 0x40 MLOAD PUSH4 0x8F6F8611 PUSH1 0xE0 SHL DUP2 MSTORE PUSH1 0x4 SWAP1 REVERT JUMPDEST PUSH2 0x26F7 JUMP JUMPDEST PUSH1 0x40 MLOAD PUSH4 0x7AABDFE3 PUSH1 0xE0 SHL DUP2 MSTORE PUSH1 0x4 SWAP1 REVERT JUMPDEST PUSH1 0x40 MLOAD PUSH4 0xC220845 PUSH1 0xE3 SHL DUP2 MSTORE PUSH1 0x4 SWAP1 REVERT JUMPDEST POP PUSH1 0x8 DUP8 MSTORE DUP6 PUSH1 0x40 DUP11 KECCAK256 SLOAD AND ISZERO PUSH2 0x26D2 JUMP JUMPDEST PUSH1 0x40 MLOAD PUSH4 0x8BAA579F PUSH1 0xE0 SHL DUP2 MSTORE PUSH1 0x4 SWAP1 REVERT JUMPDEST POP PUSH1 0x1 PUSH1 0x1 PUSH1 0xA0 SHL SUB DUP2 AND ISZERO ISZERO PUSH2 0x21B7 JUMP JUMPDEST DUP5 DUP1 REVERT JUMPDEST DUP3 CALLVALUE PUSH2 0x31E JUMPI DUP1 PUSH1 0x3 NOT CALLDATASIZE ADD SLT PUSH2 0x31E JUMPI PUSH1 0x20 PUSH1 0x40 MLOAD PUSH4 0x5F5E100 DUP2 MSTORE RETURN JUMPDEST DUP3 CALLVALUE PUSH2 0x31E JUMPI PUSH1 0x60 CALLDATASIZE PUSH1 0x3 NOT ADD SLT PUSH2 0x31E JUMPI PUSH2 0x283B PUSH2 0x2DFE JUMP JUMPDEST PUSH2 0x2843 PUSH2 0x2E14 JUMP JUMPDEST SWAP1 PUSH1 0x44 CALLDATALOAD SWAP2 PUSH2 0x2850 PUSH2 0x32DD JUMP JUMPDEST PUSH1 0x1 PUSH1 0x1 PUSH1 0xA0 SHL SUB SWAP2 DUP3 AND SWAP2 DUP3 ISZERO DUP1 ISZERO PUSH2 0x2924 JUMPI JUMPDEST PUSH2 0xAA9 JUMPI DUP3 DUP6 MSTORE PUSH1 0x20 SWAP1 PUSH1 0x13 DUP3 MSTORE DUP5 PUSH1 0x40 DUP8 KECCAK256 SLOAD LT PUSH2 0x1B24 JUMPI PUSH32 0xDD911D7DB63F7ADA09BF90B92383F79307C341A86527D6AD1740C28A8366E9D7 SWAP3 DUP5 DUP8 MSTORE PUSH1 0x13 DUP4 MSTORE PUSH1 0x40 DUP8 KECCAK256 PUSH2 0x28B6 DUP8 DUP3 SLOAD PUSH2 0x2EEB JUMP JUMPDEST SWAP1 SSTORE AND SWAP4 DUP5 DUP7 MSTORE PUSH1 0x13 DUP3 MSTORE PUSH1 0x40 DUP7 KECCAK256 PUSH2 0x28D0 DUP3 DUP3 SLOAD PUSH2 0x2EDE JUMP JUMPDEST SWAP1 SSTORE DUP5 DUP7 MSTORE PUSH1 0x14 DUP3 MSTORE PUSH1 0x40 DUP7 KECCAK256 SLOAD ISZERO PUSH2 0x290F JUMPI JUMPDEST DUP4 DUP7 MSTORE PUSH1 0x13 DUP3 MSTORE PUSH1 0x40 DUP7 KECCAK256 SLOAD ISZERO PUSH2 0x2900 JUMPI JUMPDEST PUSH1 0x40 MLOAD SWAP1 DUP2 MSTORE LOG3 DUP1 RETURN JUMPDEST PUSH1 0x14 DUP3 MSTORE DUP6 PUSH1 0x40 DUP2 KECCAK256 SSTORE PUSH2 0x28F6 JUMP JUMPDEST DUP4 DUP7 MSTORE PUSH1 0x40 DUP7 KECCAK256 SLOAD DUP6 DUP8 MSTORE PUSH1 0x40 DUP8 KECCAK256 SSTORE PUSH2 0x28E4 JUMP JUMPDEST POP DUP1 DUP3 AND ISZERO PUSH2 0x2865 JUMP JUMPDEST DUP3 CALLVALUE PUSH2 0x31E JUMPI PUSH1 0x20 CALLDATASIZE PUSH1 0x3 NOT ADD SLT PUSH2 0x31E JUMPI PUSH1 0x20 SWAP1 PUSH1 0x40 SWAP1 PUSH1 0x1 PUSH1 0x1 PUSH1 0xA0 SHL SUB PUSH2 0x2956 PUSH2 0x2DFE JUMP JUMPDEST AND DUP2 MSTORE PUSH1 0x15 DUP4 MSTORE KECCAK256 SLOAD PUSH1 0x40 MLOAD SWAP1 DUP2 MSTORE RETURN JUMPDEST SWAP1 POP CALLVALUE PUSH2 0x5A1 JUMPI CALLDATASIZE PUSH1 0x3 NOT ADD SLT PUSH2 0x31E JUMPI CALLDATASIZE PUSH1 0x23 SLT ISZERO PUSH2 0x31E JUMPI PUSH1 0x40 MLOAD PUSH2 0x298D DUP2 PUSH2 0x2DA7 JUMP JUMPDEST PUSH1 0xE4 DUP2 CALLDATASIZE DUP3 GT PUSH2 0xE09 JUMPI PUSH1 0x4 SWAP1 JUMPDEST DUP3 DUP3 LT PUSH2 0x29F4 JUMPI POP POP POP PUSH2 0x29AD PUSH2 0x32DD JUMP JUMPDEST DUP2 JUMPDEST PUSH1 0x7 DUP2 LT PUSH2 0x29DF JUMPI DUP3 PUSH32 0x4E5005547C24DFD12003C2845FD20F2071C49FA3CD30B0BE7A064E3F4C3F8D2A DUP2 DUP1 LOG1 DUP1 RETURN JUMPDEST PUSH1 0x1 SWAP1 PUSH1 0x20 DUP4 MLOAD SWAP4 ADD SWAP3 DUP2 PUSH1 0x9 ADD SSTORE ADD PUSH2 0x29AF JUMP JUMPDEST DUP2 CALLDATALOAD DUP2 MSTORE PUSH1 0x20 SWAP2 DUP3 ADD SWAP2 ADD PUSH2 0x299B JUMP JUMPDEST DUP3 CALLVALUE PUSH2 0x31E JUMPI DUP1 PUSH1 0x3 NOT CALLDATASIZE ADD SLT PUSH2 0x31E JUMPI PUSH1 0x1 SLOAD PUSH1 0x40 MLOAD PUSH1 0x1 PUSH1 0x1 PUSH1 0xA0 SHL SUB SWAP1 SWAP2 AND DUP2 MSTORE PUSH1 0x20 SWAP1 RETURN JUMPDEST DUP3 CALLVALUE PUSH2 0x31E JUMPI PUSH1 0x40 CALLDATASIZE PUSH1 0x3 NOT ADD SLT PUSH2 0x31E JUMPI PUSH1 0x24 CALLDATALOAD SWAP1 PUSH1 0x4 CALLDATALOAD PUSH2 0x2A4E PUSH2 0x3270 JUMP JUMPDEST PUSH2 0x2A56 PUSH2 0x32A0 JUMP JUMPDEST CALLER DUP3 MSTORE PUSH1 0x6 PUSH1 0x20 MSTORE PUSH1 0xFF PUSH1 0x40 DUP4 KECCAK256 SLOAD AND ISZERO PUSH2 0x5D3 JUMPI DUP1 ISZERO PUSH2 0x30C JUMPI PUSH1 0x2D DUP4 EQ DUP1 DUP1 ISZERO PUSH2 0x2D23 JUMPI JUMPDEST DUP1 ISZERO PUSH2 0x2D19 JUMPI JUMPDEST DUP1 ISZERO PUSH2 0x2D0E JUMPI JUMPDEST DUP1 ISZERO PUSH2 0x2D03 JUMPI JUMPDEST ISZERO PUSH2 0x2CF1 JUMPI DUP1 ISZERO PUSH2 0x2CB6 JUMPI PUSH2 0x2AF8 SWAP4 JUMPDEST PUSH2 0xFFFF SWAP5 DUP6 AND SWAP2 ISZERO PUSH2 0x2C7B JUMPI PUSH1 0x96 SWAP5 JUMPDEST PUSH1 0x1 SLOAD PUSH1 0x1 PUSH1 0x1 PUSH1 0xA0 SHL SUB AND DUP1 EXTCODESIZE ISZERO PUSH2 0x14B9 JUMPI PUSH1 0x40 MLOAD PUSH4 0x2770A7EB PUSH1 0xE2 SHL DUP2 MSTORE CALLER PUSH1 0x4 DUP3 ADD MSTORE PUSH1 0x24 DUP2 ADD DUP7 SWAP1 MSTORE SWAP1 DUP7 SWAP1 DUP3 SWAP1 PUSH1 0x44 SWAP1 DUP3 SWAP1 DUP5 SWAP1 GAS CALL DUP1 ISZERO PUSH2 0x2C70 JUMPI PUSH2 0x2C5D JUMPI JUMPDEST POP PUSH2 0x2B05 DUP5 PUSH1 0x11 SLOAD PUSH2 0x2EDE JUMP JUMPDEST PUSH1 0x11 SSTORE PUSH2 0x270F NOT DUP4 ADD DUP4 DUP2 GT PUSH2 0x2C49 JUMPI PUSH2 0x2B22 PUSH2 0x2710 SWAP2 DUP7 PUSH2 0x2EF8 JUMP JUMPDEST DIV SWAP3 CALLER DUP7 MSTORE PUSH1 0x18 PUSH1 0x20 MSTORE PUSH1 0x40 DUP7 KECCAK256 SWAP2 PUSH1 0x40 MLOAD SWAP8 PUSH2 0x2B3E DUP10 PUSH2 0x2DA7 JUMP JUMPDEST DUP7 DUP10 MSTORE PUSH1 0x20 DUP10 ADD SWAP3 TIMESTAMP DUP5 MSTORE PUSH1 0x40 DUP11 ADD SWAP3 DUP7 DUP5 MSTORE PUSH1 0x60 DUP12 ADD SWAP2 DUP3 MSTORE PUSH1 0x80 DUP12 ADD SWAP3 AND DUP3 MSTORE PUSH1 0xA0 DUP11 ADD SWAP3 DUP8 DUP5 MSTORE PUSH1 0xC0 DUP12 ADD SWAP6 PUSH1 0x1 DUP8 MSTORE DUP1 SLOAD SWAP1 PUSH9 0x10000000000000000 DUP3 LT ISZERO PUSH2 0x2C35 JUMPI SWAP1 PUSH2 0x2B95 SWAP2 PUSH1 0x1 DUP3 ADD DUP2 SSTORE PUSH2 0x2E85 JUMP JUMPDEST SWAP6 SWAP1 SWAP6 PUSH2 0x2C21 JUMPI PUSH1 0x6 SWAP7 SWAP8 SWAP9 SWAP10 SWAP11 SWAP12 MLOAD DUP7 SSTORE MLOAD PUSH1 0x1 DUP7 ADD SSTORE MLOAD PUSH1 0x2 DUP6 ADD SSTORE MLOAD PUSH1 0x3 DUP5 ADD SSTORE MLOAD PUSH1 0x4 DUP4 ADD SSTORE MLOAD PUSH1 0x5 DUP3 ADD SSTORE ADD SWAP1 MLOAD ISZERO ISZERO PUSH1 0xFF DUP1 NOT DUP4 SLOAD AND SWAP2 AND OR SWAP1 SSTORE PUSH1 0x40 MLOAD SWAP3 DUP4 MSTORE PUSH1 0x20 DUP4 ADD MSTORE PUSH1 0x40 DUP3 ADD MSTORE PUSH32 0x44CEBFEFA4561BEE5B61D675CCFD8DC9969FFF9CC15E7A4ECCCCD62AF94F9C11 PUSH1 0x60 CALLER SWAP3 LOG2 PUSH1 0x1 PUSH1 0x0 DUP1 MLOAD PUSH1 0x20 PUSH2 0x38E9 DUP4 CODECOPY DUP2 MLOAD SWAP2 MSTORE SSTORE DUP1 RETURN JUMPDEST PUSH4 0x4E487B71 PUSH1 0xE0 SHL DUP12 MSTORE PUSH1 0x4 DUP12 SWAP1 MSTORE PUSH1 0x24 DUP12 REVERT JUMPDEST PUSH4 0x4E487B71 PUSH1 0xE0 SHL DUP13 MSTORE PUSH1 0x41 PUSH1 0x4 MSTORE PUSH1 0x24 DUP13 REVERT JUMPDEST PUSH4 0x4E487B71 PUSH1 0xE0 SHL DUP7 MSTORE PUSH1 0x11 PUSH1 0x4 MSTORE PUSH1 0x24 DUP7 REVERT JUMPDEST PUSH2 0x2C69 SWAP1 SWAP6 SWAP2 SWAP6 PUSH2 0x2D94 JUMP JUMPDEST SWAP4 DUP7 PUSH2 0x2AF8 JUMP JUMPDEST PUSH1 0x40 MLOAD RETURNDATASIZE DUP9 DUP3 RETURNDATACOPY RETURNDATASIZE SWAP1 REVERT JUMPDEST PUSH1 0x5A DUP2 SUB PUSH2 0x2C8D JUMPI PUSH2 0x15E JUMPDEST SWAP5 PUSH2 0x2AB2 JUMP JUMPDEST PUSH1 0xB4 DUP2 SUB PUSH2 0x2C9D JUMPI PUSH2 0x320 PUSH2 0x2C87 JUMP JUMPDEST PUSH2 0x16D DUP2 SUB PUSH2 0x2CAE JUMPI PUSH2 0x708 PUSH2 0x2C87 JUMP JUMPDEST PUSH2 0x2710 PUSH2 0x2C87 JUMP JUMPDEST PUSH1 0x5A DUP5 SUB PUSH2 0x2CC8 JUMPI PUSH2 0x2EE0 JUMPDEST SWAP4 PUSH2 0x2AA2 JUMP JUMPDEST PUSH1 0xB4 DUP5 SUB PUSH2 0x2CD8 JUMPI PUSH2 0x36B0 PUSH2 0x2CC2 JUMP JUMPDEST PUSH2 0x16D DUP5 SUB PUSH2 0x2CE9 JUMPI PUSH2 0x5208 PUSH2 0x2CC2 JUMP JUMPDEST PUSH2 0xC350 PUSH2 0x2CC2 JUMP JUMPDEST PUSH1 0x40 MLOAD PUSH4 0x76166401 PUSH1 0xE0 SHL DUP2 MSTORE PUSH1 0x4 SWAP1 REVERT JUMPDEST POP PUSH2 0x447 DUP5 EQ PUSH2 0x2A92 JUMP JUMPDEST POP PUSH2 0x16D DUP5 EQ PUSH2 0x2A8B JUMP JUMPDEST POP PUSH1 0xB4 DUP5 EQ PUSH2 0x2A84 JUMP JUMPDEST POP PUSH1 0x5A DUP5 EQ PUSH2 0x2A7D JUMP JUMPDEST DUP3 CALLVALUE PUSH2 0x31E JUMPI DUP1 PUSH1 0x3 NOT CALLDATASIZE ADD SLT PUSH2 0x31E JUMPI PUSH1 0x20 PUSH1 0x5 SLOAD PUSH1 0x40 MLOAD SWAP1 DUP2 MSTORE RETURN JUMPDEST DUP3 CALLVALUE PUSH2 0x31E JUMPI PUSH1 0x20 CALLDATASIZE PUSH1 0x3 NOT ADD SLT PUSH2 0x31E JUMPI PUSH1 0x4 CALLDATALOAD PUSH1 0x7 DUP2 LT ISZERO PUSH2 0x5A1 JUMPI PUSH1 0x20 SWAP1 PUSH1 0x9 ADD SLOAD PUSH1 0x40 MLOAD SWAP1 DUP2 MSTORE RETURN JUMPDEST DUP4 SWAP1 CALLVALUE PUSH2 0x5A1 JUMPI DUP2 PUSH1 0x3 NOT CALLDATASIZE ADD SLT PUSH2 0x5A1 JUMPI PUSH1 0x20 SWAP1 PUSH1 0x12 SLOAD DUP2 MSTORE RETURN JUMPDEST PUSH1 0x1 PUSH1 0x1 PUSH1 0x40 SHL SUB DUP2 GT PUSH2 0x129D JUMPI PUSH1 0x40 MSTORE JUMP JUMPDEST PUSH1 0xE0 DUP2 ADD SWAP1 DUP2 LT PUSH1 0x1 PUSH1 0x1 PUSH1 0x40 SHL SUB DUP3 GT OR PUSH2 0x129D JUMPI PUSH1 0x40 MSTORE JUMP JUMPDEST PUSH1 0x40 DUP2 ADD SWAP1 DUP2 LT PUSH1 0x1 PUSH1 0x1 PUSH1 0x40 SHL SUB DUP3 GT OR PUSH2 0x129D JUMPI PUSH1 0x40 MSTORE JUMP JUMPDEST SWAP1 PUSH1 0x1F DUP1 NOT SWAP2 ADD AND DUP2 ADD SWAP1 DUP2 LT PUSH1 0x1 PUSH1 0x1 PUSH1 0x40 SHL SUB DUP3 GT OR PUSH2 0x129D JUMPI PUSH1 0x40 MSTORE JUMP JUMPDEST PUSH1 0x4 CALLDATALOAD SWAP1 PUSH1 0x1 PUSH1 0x1 PUSH1 0xA0 SHL SUB DUP3 AND DUP3 SUB PUSH2 0xD4D JUMPI JUMP JUMPDEST PUSH1 0x24 CALLDATALOAD SWAP1 PUSH1 0x1 PUSH1 0x1 PUSH1 0xA0 SHL SUB DUP3 AND DUP3 SUB PUSH2 0xD4D JUMPI JUMP JUMPDEST PUSH1 0x1 PUSH1 0x1 PUSH1 0x40 SHL SUB DUP2 GT PUSH2 0x129D JUMPI PUSH1 0x1F ADD PUSH1 0x1F NOT AND PUSH1 0x20 ADD SWAP1 JUMP JUMPDEST SWAP2 SWAP1 DUP3 MLOAD SWAP3 DUP4 DUP3 MSTORE PUSH1 0x0 JUMPDEST DUP5 DUP2 LT PUSH2 0x2E71 JUMPI POP POP DUP3 PUSH1 0x0 PUSH1 0x20 DUP1 SWAP5 SWAP6 DUP5 ADD ADD MSTORE PUSH1 0x1F DUP1 NOT SWAP2 ADD AND ADD ADD SWAP1 JUMP JUMPDEST PUSH1 0x20 DUP2 DUP4 ADD DUP2 ADD MLOAD DUP5 DUP4 ADD DUP3 ADD MSTORE ADD PUSH2 0x2E50 JUMP JUMPDEST DUP1 SLOAD DUP3 LT ISZERO PUSH2 0x2EA1 JUMPI PUSH1 0x0 MSTORE PUSH1 0x7 PUSH1 0x20 PUSH1 0x0 KECCAK256 SWAP2 MUL ADD SWAP1 PUSH1 0x0 SWAP1 JUMP JUMPDEST PUSH4 0x4E487B71 PUSH1 0xE0 SHL PUSH1 0x0 MSTORE PUSH1 0x32 PUSH1 0x4 MSTORE PUSH1 0x24 PUSH1 0x0 REVERT JUMPDEST SWAP1 PUSH4 0x9660180 DUP3 ADD DUP1 SWAP3 GT PUSH2 0x2EC8 JUMPI JUMP JUMPDEST PUSH4 0x4E487B71 PUSH1 0xE0 SHL PUSH1 0x0 MSTORE PUSH1 0x11 PUSH1 0x4 MSTORE PUSH1 0x24 PUSH1 0x0 REVERT JUMPDEST SWAP2 SWAP1 DUP3 ADD DUP1 SWAP3 GT PUSH2 0x2EC8 JUMPI JUMP JUMPDEST SWAP2 SWAP1 DUP3 SUB SWAP2 DUP3 GT PUSH2 0x2EC8 JUMPI JUMP JUMPDEST DUP2 DUP2 MUL SWAP3 SWAP2 DUP2 ISZERO SWAP2 DUP5 DIV EQ OR ISZERO PUSH2 0x2EC8 JUMPI JUMP JUMPDEST DUP2 DUP2 LT PUSH2 0x2F16 JUMPI POP POP JUMP JUMPDEST PUSH1 0x0 DUP2 SSTORE PUSH1 0x1 ADD PUSH2 0x2F0B JUMP JUMPDEST PUSH1 0x0 NOT DUP2 EQ PUSH2 0x2EC8 JUMPI PUSH1 0x1 ADD SWAP1 JUMP JUMPDEST RETURNDATASIZE ISZERO PUSH2 0x2F5C JUMPI RETURNDATASIZE SWAP1 PUSH2 0x2F42 DUP3 PUSH2 0x2E2A JUMP JUMPDEST SWAP2 PUSH2 0x2F50 PUSH1 0x40 MLOAD SWAP4 DUP5 PUSH2 0x2DDD JUMP JUMPDEST DUP3 MSTORE RETURNDATASIZE PUSH1 0x0 PUSH1 0x20 DUP5 ADD RETURNDATACOPY JUMP JUMPDEST PUSH1 0x60 SWAP1 JUMP JUMPDEST PUSH1 0x1 SLOAD PUSH1 0x40 MLOAD PUSH4 0x70A08231 PUSH1 0xE0 SHL PUSH1 0x20 DUP3 ADD SWAP1 DUP2 MSTORE PUSH1 0x1 PUSH1 0x1 PUSH1 0xA0 SHL SUB SWAP4 DUP5 AND PUSH1 0x24 DUP1 DUP5 ADD SWAP2 SWAP1 SWAP2 MSTORE DUP3 MSTORE SWAP1 SWAP3 PUSH1 0x60 DUP5 ADD SWAP3 AND SWAP1 PUSH1 0x1 PUSH1 0x1 PUSH1 0x40 SHL SUB DUP4 GT DUP5 DUP5 LT OR PUSH2 0x129D JUMPI PUSH1 0x0 SWAP4 DUP5 SWAP4 PUSH1 0x40 MSTORE MLOAD SWAP2 GAS STATICCALL PUSH2 0x2FBB PUSH2 0x2F31 JUMP JUMPDEST SWAP1 DUP1 PUSH2 0x3013 JUMPI JUMPDEST ISZERO PUSH2 0x2FDB JUMPI PUSH1 0x20 DUP2 DUP1 MLOAD DUP2 ADD SUB SLT PUSH2 0xD4D JUMPI PUSH1 0x20 ADD MLOAD SWAP1 JUMP JUMPDEST PUSH1 0x40 MLOAD PUSH3 0x461BCD PUSH1 0xE5 SHL DUP2 MSTORE PUSH1 0x20 PUSH1 0x4 DUP3 ADD MSTORE PUSH1 0x10 PUSH1 0x24 DUP3 ADD MSTORE PUSH16 0x18985B185B98D953D98819985A5B1959 PUSH1 0x82 SHL PUSH1 0x44 DUP3 ADD MSTORE PUSH1 0x64 SWAP1 REVERT JUMPDEST POP PUSH1 0x20 DUP2 MLOAD LT ISZERO PUSH2 0x2FC2 JUMP JUMPDEST PUSH1 0x1 PUSH1 0x1 PUSH1 0xA0 SHL SUB AND PUSH1 0x0 SWAP1 DUP2 MSTORE PUSH1 0x18 PUSH1 0x20 MSTORE PUSH1 0x40 DUP2 KECCAK256 DUP1 SLOAD SWAP2 SWAP3 SWAP2 SWAP1 DUP4 JUMPDEST DUP3 DUP2 LT PUSH2 0x304A JUMPI POP POP POP JUMP JUMPDEST PUSH1 0xFF PUSH1 0x6 PUSH2 0x3058 DUP4 DUP6 PUSH2 0x2E85 JUMP JUMPDEST POP ADD SLOAD AND PUSH2 0x3069 JUMPI JUMPDEST PUSH1 0x1 ADD PUSH2 0x303E JUMP JUMPDEST SWAP4 PUSH2 0x3082 PUSH1 0x1 SWAP2 PUSH2 0x307A DUP8 DUP6 PUSH2 0x2E85 JUMP JUMPDEST POP SLOAD SWAP1 PUSH2 0x2EDE JUMP JUMPDEST SWAP5 SWAP1 POP PUSH2 0x3061 JUMP JUMPDEST PUSH1 0x0 SWAP1 PUSH2 0x3096 DUP2 PUSH2 0x2F61 JUMP JUMPDEST DUP1 ISZERO ISZERO DUP1 PUSH2 0x3265 JUMPI JUMPDEST PUSH2 0x320C JUMPI JUMPDEST POP PUSH1 0x1 PUSH1 0x1 PUSH1 0xA0 SHL SUB AND PUSH1 0x0 DUP2 DUP2 MSTORE PUSH1 0x13 PUSH1 0x20 MSTORE PUSH1 0x40 SWAP1 KECCAK256 SLOAD DUP1 ISZERO ISZERO DUP1 PUSH2 0x3201 JUMPI JUMPDEST PUSH2 0x31A1 JUMPI JUMPDEST POP PUSH1 0x0 MSTORE PUSH1 0x18 PUSH1 0x20 MSTORE PUSH1 0x40 PUSH1 0x0 KECCAK256 PUSH1 0x0 SWAP1 DUP1 SLOAD SWAP1 JUMPDEST DUP2 DUP4 LT PUSH2 0x30ED JUMPI POP POP POP SWAP1 JUMP JUMPDEST SWAP1 SWAP2 SWAP3 PUSH2 0x30FA DUP5 DUP4 PUSH2 0x2E85 JUMP JUMPDEST POP PUSH1 0xFF PUSH1 0x6 DUP3 ADD SLOAD AND ISZERO DUP1 ISZERO PUSH2 0x3195 JUMPI JUMPDEST PUSH2 0x318A JUMPI PUSH1 0x1 SWAP2 DUP3 DUP3 ADD SLOAD PUSH1 0x2 DUP4 ADD SLOAD PUSH3 0x15180 SWAP1 DUP2 DUP2 MUL SWAP2 DUP2 DUP4 DIV EQ SWAP1 ISZERO OR ISZERO PUSH2 0x2EC8 JUMPI PUSH2 0x3179 SWAP4 PUSH2 0x316D DUP3 DUP5 PUSH2 0x314C PUSH2 0x3172 SWAP6 PUSH5 0x496CEBB800 SWAP8 PUSH2 0x2EDE JUMP JUMPDEST TIMESTAMP LT ISZERO PUSH2 0x3183 JUMPI PUSH2 0x315E SWAP2 POP TIMESTAMP PUSH2 0x2EEB JUMP JUMPDEST SWAP2 JUMPDEST PUSH1 0x4 DUP2 SLOAD SWAP2 ADD SLOAD SWAP1 PUSH2 0x2EF8 JUMP JUMPDEST PUSH2 0x2EF8 JUMP JUMPDEST DIV SWAP1 PUSH2 0x2EDE JUMP JUMPDEST SWAP4 ADD SWAP2 JUMPDEST SWAP1 PUSH2 0x30E0 JUMP JUMPDEST POP SWAP2 PUSH2 0x3160 JUMP JUMPDEST POP SWAP3 PUSH1 0x1 ADD SWAP2 PUSH2 0x317D JUMP JUMPDEST POP PUSH1 0x4 DUP2 ADD SLOAD ISZERO PUSH2 0x310B JUMP JUMPDEST SWAP2 PUSH5 0x496CEBB800 PUSH2 0x3172 PUSH2 0x31E9 SWAP4 SWAP5 PUSH1 0x15 PUSH1 0x20 MSTORE PUSH1 0x40 PUSH1 0x0 KECCAK256 SLOAD DUP1 ISZERO PUSH1 0x0 EQ PUSH2 0x31FC JUMPI POP TIMESTAMP JUMPDEST DUP1 TIMESTAMP GT PUSH1 0x0 EQ PUSH2 0x31F0 JUMPI PUSH2 0x31DE PUSH2 0x316D SWAP2 TIMESTAMP PUSH2 0x2EEB JUMP JUMPDEST SWAP2 JUMPDEST PUSH1 0x2 SLOAD SWAP1 PUSH2 0x2EF8 JUMP JUMPDEST SWAP1 CODESIZE PUSH2 0x30CB JUMP JUMPDEST POP PUSH2 0x316D PUSH1 0x0 SWAP2 PUSH2 0x31E0 JUMP JUMPDEST PUSH2 0x31C7 JUMP JUMPDEST POP PUSH1 0x2 SLOAD ISZERO ISZERO PUSH2 0x30C6 JUMP JUMPDEST PUSH1 0x1 PUSH1 0x1 PUSH1 0xA0 SHL SUB DUP3 AND DUP4 MSTORE PUSH1 0x15 PUSH1 0x20 MSTORE PUSH1 0x40 DUP4 KECCAK256 SLOAD SWAP2 SWAP3 PUSH5 0x496CEBB800 SWAP3 PUSH2 0x3251 SWAP3 SWAP2 PUSH2 0x316D SWAP2 DUP1 PUSH2 0x3260 JUMPI POP TIMESTAMP JUMPDEST DUP1 TIMESTAMP GT PUSH1 0x0 EQ PUSH2 0x3259 JUMPI PUSH2 0x31DE SWAP2 POP TIMESTAMP PUSH2 0x2EEB JUMP JUMPDEST DIV SWAP1 CODESIZE PUSH2 0x30A4 JUMP JUMPDEST POP SWAP2 PUSH2 0x31E0 JUMP JUMPDEST PUSH2 0x323C JUMP JUMPDEST POP PUSH1 0x2 SLOAD ISZERO ISZERO PUSH2 0x309F JUMP JUMPDEST PUSH1 0x0 DUP1 MLOAD PUSH1 0x20 PUSH2 0x38E9 DUP4 CODECOPY DUP2 MLOAD SWAP2 MSTORE PUSH1 0x2 DUP2 SLOAD EQ PUSH2 0x328E JUMPI PUSH1 0x2 SWAP1 SSTORE JUMP JUMPDEST PUSH1 0x40 MLOAD PUSH4 0x3EE5AEB5 PUSH1 0xE0 SHL DUP2 MSTORE PUSH1 0x4 SWAP1 REVERT JUMPDEST PUSH1 0xFF PUSH32 0xCD5ED15C6E187E77E9AEE88184C21F4F2182AB5827CB3B7E07FBEDCD63F03300 SLOAD AND PUSH2 0x32CB JUMPI JUMP JUMPDEST PUSH1 0x40 MLOAD PUSH4 0xD93C0665 PUSH1 0xE0 SHL DUP2 MSTORE PUSH1 0x4 SWAP1 REVERT JUMPDEST PUSH1 0x0 DUP1 MLOAD PUSH1 0x20 PUSH2 0x38C9 DUP4 CODECOPY DUP2 MLOAD SWAP2 MSTORE SLOAD PUSH1 0x1 PUSH1 0x1 PUSH1 0xA0 SHL SUB AND CALLER SUB PUSH2 0x14FB JUMPI JUMP JUMPDEST PUSH1 0x40 MLOAD PUSH4 0x23B872DD PUSH1 0xE0 SHL PUSH1 0x20 DUP3 ADD MSTORE PUSH1 0x1 PUSH1 0x1 PUSH1 0xA0 SHL SUB SWAP3 DUP4 AND PUSH1 0x24 DUP3 ADD MSTORE SWAP3 SWAP1 SWAP2 AND PUSH1 0x44 DUP4 ADD MSTORE PUSH1 0x64 DUP1 DUP4 ADD SWAP4 SWAP1 SWAP4 MSTORE SWAP2 DUP2 MSTORE PUSH1 0xA0 DUP2 ADD SWAP2 DUP2 DUP4 LT PUSH1 0x1 PUSH1 0x1 PUSH1 0x40 SHL SUB DUP5 GT OR PUSH2 0x129D JUMPI PUSH2 0x3356 SWAP3 PUSH1 0x40 MSTORE PUSH2 0x36ED JUMP JUMPDEST JUMP JUMPDEST PUSH1 0x40 MLOAD PUSH4 0xA9059CBB PUSH1 0xE0 SHL PUSH1 0x20 DUP3 ADD MSTORE PUSH1 0x1 PUSH1 0x1 PUSH1 0xA0 SHL SUB SWAP3 SWAP1 SWAP3 AND PUSH1 0x24 DUP4 ADD MSTORE PUSH1 0x44 DUP1 DUP4 ADD SWAP4 SWAP1 SWAP4 MSTORE SWAP2 DUP2 MSTORE PUSH2 0x3356 SWAP2 PUSH2 0x3394 PUSH1 0x64 DUP4 PUSH2 0x2DDD JUMP JUMPDEST PUSH2 0x36ED JUMP JUMPDEST PUSH1 0x0 DUP1 MLOAD PUSH1 0x20 PUSH2 0x3909 DUP4 CODECOPY DUP2 MLOAD SWAP2 MSTORE DUP1 SLOAD PUSH1 0x1 PUSH1 0x1 PUSH1 0xA0 SHL SUB NOT SWAP1 DUP2 AND SWAP1 SWAP2 SSTORE PUSH1 0x0 DUP1 MLOAD PUSH1 0x20 PUSH2 0x38C9 DUP4 CODECOPY DUP2 MLOAD SWAP2 MSTORE DUP1 SLOAD SWAP2 DUP3 AND PUSH1 0x1 PUSH1 0x1 PUSH1 0xA0 SHL SUB SWAP4 DUP5 AND SWAP1 DUP2 OR SWAP1 SWAP2 SSTORE SWAP2 AND PUSH32 0x8BE0079C531659141344CD1FD0A4F28419497F9722A3DAAFE3B4186F6B6457E0 PUSH1 0x0 DUP1 LOG3 JUMP JUMPDEST SWAP1 PUSH1 0x1 DUP3 DUP2 SHR SWAP3 AND DUP1 ISZERO PUSH2 0x3437 JUMPI JUMPDEST PUSH1 0x20 DUP4 LT EQ PUSH2 0x3421 JUMPI JUMP JUMPDEST PUSH4 0x4E487B71 PUSH1 0xE0 SHL PUSH1 0x0 MSTORE PUSH1 0x22 PUSH1 0x4 MSTORE PUSH1 0x24 PUSH1 0x0 REVERT JUMPDEST SWAP2 PUSH1 0x7F AND SWAP2 PUSH2 0x3416 JUMP JUMPDEST PUSH1 0x40 MLOAD SWAP1 PUSH1 0x0 DUP3 PUSH1 0x0 DUP1 MLOAD PUSH1 0x20 PUSH2 0x38A9 DUP4 CODECOPY DUP2 MLOAD SWAP2 MSTORE SWAP2 DUP3 SLOAD SWAP3 PUSH2 0x3464 DUP5 PUSH2 0x3407 JUMP JUMPDEST DUP1 DUP5 MSTORE SWAP4 PUSH1 0x20 SWAP2 PUSH1 0x1 SWAP2 DUP3 DUP2 AND SWAP1 DUP2 ISZERO PUSH2 0x34F1 JUMPI POP PUSH1 0x1 EQ PUSH2 0x3490 JUMPI JUMPDEST POP POP POP PUSH2 0x3356 SWAP3 POP SUB DUP4 PUSH2 0x2DDD JUMP JUMPDEST PUSH1 0x0 SWAP1 DUP2 MSTORE PUSH32 0x42AD5D3E1F2E6E70EDCF6D991B8A3023D3FCA8047A131592F9EDB9FD9B89D57D SWAP6 SWAP1 SWAP4 POP SWAP2 SWAP1 JUMPDEST DUP3 DUP5 LT PUSH2 0x34D9 JUMPI POP PUSH2 0x3356 SWAP5 POP POP POP DUP2 ADD PUSH1 0x20 ADD CODESIZE DUP1 DUP1 PUSH2 0x3481 JUMP JUMPDEST DUP6 SLOAD DUP9 DUP6 ADD DUP4 ADD MSTORE SWAP5 DUP6 ADD SWAP5 DUP8 SWAP5 POP SWAP3 DUP2 ADD SWAP3 PUSH2 0x34BD JUMP JUMPDEST SWAP3 POP POP POP PUSH1 0x20 SWAP3 POP PUSH2 0x3356 SWAP5 SWAP2 POP PUSH1 0xFF NOT AND DUP3 DUP5 ADD MSTORE ISZERO ISZERO PUSH1 0x5 SHL DUP3 ADD ADD CODESIZE DUP1 DUP1 PUSH2 0x3481 JUMP JUMPDEST PUSH1 0x40 MLOAD SWAP1 PUSH1 0x0 DUP3 PUSH32 0xA16A46D94261C7517CC8FF89F61C0CE93598E3C849801011DEE649A6A557D103 SWAP2 DUP3 SLOAD SWAP3 PUSH2 0x354C DUP5 PUSH2 0x3407 JUMP JUMPDEST DUP1 DUP5 MSTORE SWAP4 PUSH1 0x20 SWAP2 PUSH1 0x1 SWAP2 DUP3 DUP2 AND SWAP1 DUP2 ISZERO PUSH2 0x34F1 JUMPI POP PUSH1 0x1 EQ PUSH2 0x3577 JUMPI POP POP POP PUSH2 0x3356 SWAP3 POP SUB DUP4 PUSH2 0x2DDD JUMP JUMPDEST PUSH1 0x0 SWAP1 DUP2 MSTORE PUSH32 0x5F9CE34815F8E11431C7BB75A8E6886A91478F7FFC1DBB0A98DC240FDDD76B75 SWAP6 SWAP1 SWAP4 POP SWAP2 SWAP1 JUMPDEST DUP3 DUP5 LT PUSH2 0x35C0 JUMPI POP PUSH2 0x3356 SWAP5 POP POP POP DUP2 ADD PUSH1 0x20 ADD CODESIZE DUP1 DUP1 PUSH2 0x3481 JUMP JUMPDEST DUP6 SLOAD DUP9 DUP6 ADD DUP4 ADD MSTORE SWAP5 DUP6 ADD SWAP5 DUP8 SWAP5 POP SWAP3 DUP2 ADD SWAP3 PUSH2 0x35A4 JUMP JUMPDEST SWAP2 SWAP1 PUSH32 0x7FFFFFFFFFFFFFFFFFFFFFFFFFFFFFFF5D576E7357A4501DDFE92F46681B20A0 DUP5 GT PUSH2 0x365C JUMPI SWAP3 PUSH1 0x20 SWAP3 SWAP2 PUSH1 0xFF PUSH1 0x80 SWAP6 PUSH1 0x40 MLOAD SWAP5 DUP6 MSTORE AND DUP5 DUP5 ADD MSTORE PUSH1 0x40 DUP4 ADD MSTORE PUSH1 0x60 DUP3 ADD MSTORE PUSH1 0x0 SWAP3 DUP4 SWAP2 DUP3 DUP1 MSTORE PUSH1 0x1 GAS STATICCALL ISZERO PUSH2 0x3650 JUMPI DUP1 MLOAD PUSH1 0x1 PUSH1 0x1 PUSH1 0xA0 SHL SUB DUP2 AND ISZERO PUSH2 0x3647 JUMPI SWAP2 DUP2 SWAP1 JUMP JUMPDEST POP DUP1 SWAP2 PUSH1 0x1 SWAP2 SWAP1 JUMP JUMPDEST PUSH1 0x40 MLOAD SWAP1 RETURNDATASIZE SWAP1 DUP3 RETURNDATACOPY RETURNDATASIZE SWAP1 REVERT JUMPDEST POP POP POP PUSH1 0x0 SWAP2 PUSH1 0x3 SWAP2 SWAP1 JUMP JUMPDEST PUSH1 0x4 DUP2 LT ISZERO PUSH2 0x36D7 JUMPI DUP1 PUSH2 0x367A JUMPI POP POP JUMP JUMPDEST PUSH1 0x1 DUP2 SUB PUSH2 0x3694 JUMPI PUSH1 0x40 MLOAD PUSH4 0xF645EEDF PUSH1 0xE0 SHL DUP2 MSTORE PUSH1 0x4 SWAP1 REVERT JUMPDEST PUSH1 0x2 DUP2 SUB PUSH2 0x36B5 JUMPI PUSH1 0x40 MLOAD PUSH4 0xFCE698F7 PUSH1 0xE0 SHL DUP2 MSTORE PUSH1 0x4 DUP2 ADD DUP4 SWAP1 MSTORE PUSH1 0x24 SWAP1 REVERT JUMPDEST PUSH1 0x3 EQ PUSH2 0x36BF JUMPI POP JUMP JUMPDEST PUSH1 0x24 SWAP1 PUSH1 0x40 MLOAD SWAP1 PUSH4 0x35E2F383 PUSH1 0xE2 SHL DUP3 MSTORE PUSH1 0x4 DUP3 ADD MSTORE REVERT JUMPDEST PUSH4 0x4E487B71 PUSH1 0xE0 SHL PUSH1 0x0 MSTORE PUSH1 0x21 PUSH1 0x4 MSTORE PUSH1 0x24 PUSH1 0x0 REVERT JUMPDEST SWAP1 PUSH1 0x0 PUSH1 0x20 SWAP2 DUP3 DUP2 MLOAD SWAP2 ADD DUP3 DUP6 GAS CALL ISZERO PUSH2 0x3749 JUMPI PUSH1 0x0 MLOAD RETURNDATASIZE PUSH2 0x3740 JUMPI POP PUSH1 0x1 PUSH1 0x1 PUSH1 0xA0 SHL SUB DUP2 AND EXTCODESIZE ISZERO JUMPDEST PUSH2 0x371E JUMPI POP JUMP JUMPDEST PUSH1 0x40 MLOAD PUSH4 0x5274AFE7 PUSH1 0xE0 SHL DUP2 MSTORE PUSH1 0x1 PUSH1 0x1 PUSH1 0xA0 SHL SUB SWAP1 SWAP2 AND PUSH1 0x4 DUP3 ADD MSTORE PUSH1 0x24 SWAP1 REVERT JUMPDEST PUSH1 0x1 EQ ISZERO PUSH2 0x3717 JUMP JUMPDEST PUSH1 0x40 MLOAD RETURNDATASIZE PUSH1 0x0 DUP3 RETURNDATACOPY RETURNDATASIZE SWAP1 REVERT JUMPDEST PUSH1 0xFF PUSH32 0xF0C57E16840DF040F15088DC2F81FE391C3923BEC73E23A9662EFC9C229C6A00 SLOAD PUSH1 0x40 SHR AND ISZERO PUSH2 0x3784 JUMPI JUMP JUMPDEST PUSH1 0x40 MLOAD PUSH4 0x1AFCD79F PUSH1 0xE3 SHL DUP2 MSTORE PUSH1 0x4 SWAP1 REVERT JUMPDEST PUSH2 0x379E PUSH2 0x3441 JUMP JUMPDEST DUP1 MLOAD SWAP1 DUP2 ISZERO PUSH2 0x37AE JUMPI PUSH1 0x20 ADD KECCAK256 SWAP1 JUMP JUMPDEST POP POP PUSH32 0xA16A46D94261C7517CC8FF89F61C0CE93598E3C849801011DEE649A6A557D100 SLOAD DUP1 ISZERO PUSH2 0x37DB JUMPI SWAP1 JUMP JUMPDEST POP PUSH32 0xC5D2460186F7233C927E7DB2DCC703C0E500B653CA82273B7BFAD8045D85A470 SWAP1 JUMP JUMPDEST PUSH2 0x3808 PUSH2 0x3517 JUMP JUMPDEST DUP1 MLOAD SWAP1 DUP2 ISZERO PUSH2 0x3818 JUMPI PUSH1 0x20 ADD KECCAK256 SWAP1 JUMP JUMPDEST POP POP PUSH32 0xA16A46D94261C7517CC8FF89F61C0CE93598E3C849801011DEE649A6A557D101 SLOAD DUP1 ISZERO PUSH2 0x37DB JUMPI SWAP1 JUMP JUMPDEST SWAP1 PUSH2 0x386C JUMPI POP DUP1 MLOAD ISZERO PUSH2 0x385A JUMPI PUSH1 0x20 DUP2 MLOAD SWAP2 ADD REVERT JUMPDEST PUSH1 0x40 MLOAD PUSH4 0xD6BDA275 PUSH1 0xE0 SHL DUP2 MSTORE PUSH1 0x4 SWAP1 REVERT JUMPDEST DUP2 MLOAD ISZERO DUP1 PUSH2 0x389F JUMPI JUMPDEST PUSH2 0x387D JUMPI POP SWAP1 JUMP JUMPDEST PUSH1 0x40 MLOAD PUSH4 0x9996B315 PUSH1 0xE0 SHL DUP2 MSTORE PUSH1 0x1 PUSH1 0x1 PUSH1 0xA0 SHL SUB SWAP1 SWAP2 AND PUSH1 0x4 DUP3 ADD MSTORE PUSH1 0x24 SWAP1 REVERT JUMPDEST POP DUP1 EXTCODESIZE ISZERO PUSH2 0x3875 JUMP INVALID LOG1 PUSH11 0x46D94261C7517CC8FF89F6 SHR 0xC 0xE9 CALLDATALOAD SWAP9 0xE3 0xC8 BLOBHASH DUP1 LT GT 0xDE 0xE6 BLOBHASH 0xA6 0xA5 JUMPI 0xD1 MUL SWAP1 AND 0xD0 SWAP14 PUSH19 0xD40FDAE2FD8CEAC6B6234C7706214FD39C1CD1 0xE6 MULMOD LOG0 MSTORE DUP13 NOT SWAP4 STOP SWAP12 PUSH24 0x9B17422D0DF92223018B32B4D1FA46E071723D6817E2486D STOP EXTCODESIZE 0xEC 0xC5 PUSH0 STOP 0x23 PUSH31 0x158222E3E6968B72B9DB0D8043AACF074AD9F650F0D1606B4D82EE432C00A2 PUSH5 0x6970667358 0x22 SLT KECCAK256 SHL RETURN MSIZE PUSH28 0x9C8EB9F297861D75845200FDB26D2C9CEC99CD0DA3956FBA6DC2FB36 PUSH5 0x736F6C6343 STOP ADDMOD XOR STOP CALLER "},"methodIdentifiers":{"BONUS_CAP_USDT()":"bd7feaf2","BP()":"9cfdbd5e","FIVE_YEARS_DAYS()":"2cfb27c1","ONE_DAY()":"863e76db","ONE_USDT()":"803039d9","TIER1_MAX()":"24ebae69","TIER1_MIN()":"7961954c","TIER2_MAX()":"5ecd37e2","TIER2_MIN()":"e4bd07c4","UPGRADE_INTERFACE_VERSION()":"ad3cb1cc","YEAR_DAYS()":"f5aa5020","acceptOwnership()":"79ba5097","addToWhitelist(address[])":"7f649783","adminClaimBonusForUser(address)":"91e3c479","adminDepositUSDT(uint256)":"f641e42f","adminTransferBonus(address,address,uint256)":"24a81829","adminWithdrawUSDT(uint256)":"6e13019b","balanceOfVolt(address)":"74f17bf9","baseApyBp()":"d41a2aac","bonusBalance(address)":"b298b771","bonusVestingEnd(address)":"8c74d6f4","calculateAccruedInterest(address)":"d6ef4046","canWithdrawBonus(address)":"30ab6f76","claimAllVestedBonus()":"dca35e2d","claimInterest()":"35981fd8","depositUSDT(uint256,address,uint8,bytes32,bytes32)":"2c42c9f5","eip712Domain()":"84b0196e","feeGte500Bp()":"1272f7b5","feeLt500Bp()":"9764cabd","getLockedAmount(address)":"929ec537","getUserOverview(address)":"552eec2f","hasDeposited(address)":"f2c16e6f","hasReceivedFirstDepositBonus(address)":"366a307f","initialize(address,address,address)":"c0c53b8b","lastAccrualTime(address)":"241a856e","lock(uint256,uint256)":"1338736f","locks(address,uint256)":"b425f802","minWithdrawUSDT()":"710a7088","owner()":"8da5cb5b","paused()":"5c975abb","pendingOwner()":"e30c3978","proxiableUUID()":"52d1902d","refBp(uint256)":"04b5e871","referralNonce(address)":"43019b41","referrerOf(address)":"d21cacdf","renounceOwnership()":"715018a6","totalBonusOutstanding()":"0401a8fa","totalVoltBurned()":"83d5eda5","totalVoltMinted()":"5023e463","transferOwnership(address)":"f2fde38b","unlock(uint256)":"6198e339","updateParams(uint256,uint256,uint256,uint256)":"b0557bf1","updateReferralRewards(uint256[7])":"221b4a02","upgradeToAndCall(address,bytes)":"4f1ef286","usdt()":"2f48ab7d","volt()":"17607ad9","whitelisted(address)":"d936547e","withdrawUSDT(uint256,bool)":"6860c192"}},"storageLayout":{"storage":[{"astId":9736,"contract":"contracts/VoltPlatform.sol:VoltPlatform","label":"usdt","offset":0,"slot":"0","type":"t_contract(IERC20)3257"},{"astId":9739,"contract":"contracts/VoltPlatform.sol:VoltPlatform","label":"volt","offset":0,"slot":"1","type":"t_contract(IVoltToken)9675"},{"astId":9741,"contract":"contracts/VoltPlatform.sol:VoltPlatform","label":"baseApyBp","offset":0,"slot":"2","type":"t_uint256"},{"astId":9743,"contract":"contracts/VoltPlatform.sol:VoltPlatform","label":"minWithdrawUSDT","offset":0,"slot":"3","type":"t_uint256"},{"astId":9745,"contract":"contracts/VoltPlatform.sol:VoltPlatform","label":"feeLt500Bp","offset":0,"slot":"4","type":"t_uint256"},{"astId":9747,"contract":"contracts/VoltPlatform.sol:VoltPlatform","label":"feeGte500Bp","offset":0,"slot":"5","type":"t_uint256"},{"astId":9751,"contract":"contracts/VoltPlatform.sol:VoltPlatform","label":"whitelisted","offset":0,"slot":"6","type":"t_mapping(t_address,t_bool)"},{"astId":9755,"contract":"contracts/VoltPlatform.sol:VoltPlatform","label":"referrerOf","offset":0,"slot":"7","type":"t_mapping(t_address,t_address)"},{"astId":9759,"contract":"contracts/VoltPlatform.sol:VoltPlatform","label":"hasDeposited","offset":0,"slot":"8","type":"t_mapping(t_address,t_bool)"},{"astId":9763,"contract":"contracts/VoltPlatform.sol:VoltPlatform","label":"refBp","offset":0,"slot":"9","type":"t_array(t_uint256)7_storage"},{"astId":9765,"contract":"contracts/VoltPlatform.sol:VoltPlatform","label":"totalVoltMinted","offset":0,"slot":"16","type":"t_uint256"},{"astId":9767,"contract":"contracts/VoltPlatform.sol:VoltPlatform","label":"totalVoltBurned","offset":0,"slot":"17","type":"t_uint256"},{"astId":9769,"contract":"contracts/VoltPlatform.sol:VoltPlatform","label":"totalBonusOutstanding","offset":0,"slot":"18","type":"t_uint256"},{"astId":9773,"contract":"contracts/VoltPlatform.sol:VoltPlatform","label":"bonusBalance","offset":0,"slot":"19","type":"t_mapping(t_address,t_uint256)"},{"astId":9777,"contract":"contracts/VoltPlatform.sol:VoltPlatform","label":"bonusVestingEnd","offset":0,"slot":"20","type":"t_mapping(t_address,t_uint256)"},{"astId":9781,"contract":"contracts/VoltPlatform.sol:VoltPlatform","label":"lastAccrualTime","offset":0,"slot":"21","type":"t_mapping(t_address,t_uint256)"},{"astId":9785,"contract":"contracts/VoltPlatform.sol:VoltPlatform","label":"hasReceivedFirstDepositBonus","offset":0,"slot":"22","type":"t_mapping(t_address,t_bool)"},{"astId":9789,"contract":"contracts/VoltPlatform.sol:VoltPlatform","label":"referralNonce","offset":0,"slot":"23","type":"t_mapping(t_address,t_uint256)"},{"astId":9857,"contract":"contracts/VoltPlatform.sol:VoltPlatform","label":"locks","offset":0,"slot":"24","type":"t_mapping(t_address,t_array(t_struct(Lock)9851_storage)dyn_storage)"}],"types":{"t_address":{"encoding":"inplace","label":"address","numberOfBytes":"20"},"t_array(t_struct(Lock)9851_storage)dyn_storage":{"base":"t_struct(Lock)9851_storage","encoding":"dynamic_array","label":"struct VoltPlatform.Lock[]","numberOfBytes":"32"},"t_array(t_uint256)7_storage":{"base":"t_uint256","encoding":"inplace","label":"uint256[7]","numberOfBytes":"224"},"t_bool":{"encoding":"inplace","label":"bool","numberOfBytes":"1"},"t_contract(IERC20)3257":{"encoding":"inplace","label":"contract IERC20","numberOfBytes":"20"},"t_contract(IVoltToken)9675":{"encoding":"inplace","label":"contract IVoltToken","numberOfBytes":"20"},"t_mapping(t_address,t_address)":{"encoding":"mapping","key":"t_address","label":"mapping(address => address)","numberOfBytes":"32","value":"t_address"},"t_mapping(t_address,t_array(t_struct(Lock)9851_storage)dyn_storage)":{"encoding":"mapping","key":"t_address","label":"mapping(address => struct VoltPlatform.Lock[])","numberOfBytes":"32","value":"t_array(t_struct(Lock)9851_storage)dyn_storage"},"t_mapping(t_address,t_bool)":{"encoding":"mapping","key":"t_address","label":"mapping(address => bool)","numberOfBytes":"32","value":"t_bool"},"t_mapping(t_address,t_uint256)":{"encoding":"mapping","key":"t_address","label":"mapping(address => uint256)","numberOfBytes":"32","value":"t_uint256"},"t_struct(Lock)9851_storage":{"encoding":"inplace","label":"struct VoltPlatform.Lock","members":[{"astId":9838,"contract":"contracts/VoltPlatform.sol:VoltPlatform","label":"amount","offset":0,"slot":"0","type":"t_uint256"},{"astId":9840,"contract":"contracts/VoltPlatform.sol:VoltPlatform","label":"startTime","offset":0,"slot":"1","type":"t_uint256"},{"astId":9842,"contract":"contracts/VoltPlatform.sol:VoltPlatform","label":"durationDays","offset":0,"slot":"2","type":"t_uint256"},{"astId":9844,"contract":"contracts/VoltPlatform.sol:VoltPlatform","label":"multiplierBp","offset":0,"slot":"3","type":"t_uint256"},{"astId":9846,"contract":"contracts/VoltPlatform.sol:VoltPlatform","label":"aprBp","offset":0,"slot":"4","type":"t_uint256"},{"astId":9848,"contract":"contracts/VoltPlatform.sol:VoltPlatform","label":"bonusAtUnlock","offset":0,"slot":"5","type":"t_uint256"},{"astId":9850,"contract":"contracts/VoltPlatform.sol:VoltPlatform","label":"active","offset":0,"slot":"6","type":"t_bool"}],"numberOfBytes":"224"},"t_uint256":{"encoding":"inplace","label":"uint256","numberOfBytes":"32"}}}}}}