{
  "_format": "hh-sol-artifact-1",
  "contractName": "VoltPlatform",
  "sourceName": "contracts/VoltPlatform.sol",
  "abi": [
    {
      "inputs": [],
      "stateMutability": "nonpayable",
      "type": "constructor"
    },
    {
      "inputs": [],
      "name": "ActiveLocksPresent",
      "type": "error"
    },
    {
      "inputs": [
        {
          "internalType": "address",
          "name": "target",
          "type": "address"
        }
      ],
      "name": "AddressEmptyCode",
      "type": "error"
    },
    {
      "inputs": [],
      "name": "AlreadyReferred",
      "type": "error"
    },
    {
      "inputs": [],
      "name": "AlreadyWhitelisted",
      "type": "error"
    },
    {
      "inputs": [],
      "name": "AmountIsZero",
      "type": "error"
    },
    {
      "inputs": [],
      "name": "BelowMinWithdraw",
      "type": "error"
    },
    {
      "inputs": [],
      "name": "BonusStillLocked",
      "type": "error"
    },
    {
      "inputs": [],
      "name": "ECDSAInvalidSignature",
      "type": "error"
    },
    {
      "inputs": [
        {
          "internalType": "uint256",
          "name": "length",
          "type": "uint256"
        }
      ],
      "name": "ECDSAInvalidSignatureLength",
      "type": "error"
    },
    {
      "inputs": [
        {
          "internalType": "bytes32",
          "name": "s",
          "type": "bytes32"
        }
      ],
      "name": "ECDSAInvalidSignatureS",
      "type": "error"
    },
    {
      "inputs": [
        {
          "internalType": "address",
          "name": "implementation",
          "type": "address"
        }
      ],
      "name": "ERC1967InvalidImplementation",
      "type": "error"
    },
    {
      "inputs": [],
      "name": "ERC1967NonPayable",
      "type": "error"
    },
    {
      "inputs": [],
      "name": "EmptyArray",
      "type": "error"
    },
    {
      "inputs": [],
      "name": "EnforcedPause",
      "type": "error"
    },
    {
      "inputs": [],
      "name": "ExpectedPause",
      "type": "error"
    },
    {
      "inputs": [],
      "name": "FailedCall",
      "type": "error"
    },
    {
      "inputs": [],
      "name": "InsufficientLiquidity",
      "type": "error"
    },
    {
      "inputs": [],
      "name": "InvalidAddress",
      "type": "error"
    },
    {
      "inputs": [],
      "name": "InvalidAmount",
      "type": "error"
    },
    {
      "inputs": [],
      "name": "InvalidDuration",
      "type": "error"
    },
    {
      "inputs": [],
      "name": "InvalidInitialization",
      "type": "error"
    },
    {
      "inputs": [],
      "name": "InvalidReferrer",
      "type": "error"
    },
    {
      "inputs": [],
      "name": "InvalidSignature",
      "type": "error"
    },
    {
      "inputs": [],
      "name": "NoBonusToClaim",
      "type": "error"
    },
    {
      "inputs": [],
      "name": "NotInitializing",
      "type": "error"
    },
    {
      "inputs": [],
      "name": "NotVested",
      "type": "error"
    },
    {
      "inputs": [],
      "name": "NotWhitelisted",
      "type": "error"
    },
    {
      "inputs": [
        {
          "internalType": "address",
          "name": "owner",
          "type": "address"
        }
      ],
      "name": "OwnableInvalidOwner",
      "type": "error"
    },
    {
      "inputs": [
        {
          "internalType": "address",
          "name": "account",
          "type": "address"
        }
      ],
      "name": "OwnableUnauthorizedAccount",
      "type": "error"
    },
    {
      "inputs": [],
      "name": "ReentrancyGuardReentrantCall",
      "type": "error"
    },
    {
      "inputs": [],
      "name": "ReferralCycle",
      "type": "error"
    },
    {
      "inputs": [
        {
          "internalType": "address",
          "name": "token",
          "type": "address"
        }
      ],
      "name": "SafeERC20FailedOperation",
      "type": "error"
    },
    {
      "inputs": [],
      "name": "UUPSUnauthorizedCallContext",
      "type": "error"
    },
    {
      "inputs": [
        {
          "internalType": "bytes32",
          "name": "slot",
          "type": "bytes32"
        }
      ],
      "name": "UUPSUnsupportedProxiableUUID",
      "type": "error"
    },
    {
      "anonymous": false,
      "inputs": [
        {
          "indexed": true,
          "internalType": "address",
          "name": "user",
          "type": "address"
        },
        {
          "indexed": false,
          "internalType": "uint256",
          "name": "amount",
          "type": "uint256"
        }
      ],
      "name": "AdminBonusClaimed",
      "type": "event"
    },
    {
      "anonymous": false,
      "inputs": [
        {
          "indexed": true,
          "internalType": "address",
          "name": "from",
          "type": "address"
        },
        {
          "indexed": true,
          "internalType": "address",
          "name": "to",
          "type": "address"
        },
        {
          "indexed": false,
          "internalType": "uint256",
          "name": "amount",
          "type": "uint256"
        }
      ],
      "name": "AdminBonusTransferred",
      "type": "event"
    },
    {
      "anonymous": false,
      "inputs": [
        {
          "indexed": false,
          "internalType": "uint256",
          "name": "amount",
          "type": "uint256"
        }
      ],
      "name": "AdminDepositUSDT",
      "type": "event"
    },
    {
      "anonymous": false,
      "inputs": [
        {
          "indexed": false,
          "internalType": "uint256",
          "name": "amount",
          "type": "uint256"
        }
      ],
      "name": "AdminWithdrawUSDT",
      "type": "event"
    },
    {
      "anonymous": false,
      "inputs": [
        {
          "indexed": true,
          "internalType": "address",
          "name": "user",
          "type": "address"
        },
        {
          "indexed": false,
          "internalType": "uint256",
          "name": "amount",
          "type": "uint256"
        }
      ],
      "name": "BonusClaimed",
      "type": "event"
    },
    {
      "anonymous": false,
      "inputs": [
        {
          "indexed": true,
          "internalType": "address",
          "name": "user",
          "type": "address"
        },
        {
          "indexed": false,
          "internalType": "uint256",
          "name": "bonusAmount",
          "type": "uint256"
        },
        {
          "indexed": false,
          "internalType": "uint256",
          "name": "vestingEnd",
          "type": "uint256"
        }
      ],
      "name": "BonusGranted",
      "type": "event"
    },
    {
      "anonymous": false,
      "inputs": [
        {
          "indexed": false,
          "internalType": "uint256",
          "name": "count",
          "type": "uint256"
        }
      ],
      "name": "BulkWhitelisted",
      "type": "event"
    },
    {
      "anonymous": false,
      "inputs": [
        {
          "indexed": true,
          "internalType": "address",
          "name": "user",
          "type": "address"
        },
        {
          "indexed": false,
          "internalType": "uint256",
          "name": "usdtAmount",
          "type": "uint256"
        },
        {
          "indexed": false,
          "internalType": "uint256",
          "name": "voltMinted",
          "type": "uint256"
        },
        {
          "indexed": false,
          "internalType": "address",
          "name": "referrer",
          "type": "address"
        }
      ],
      "name": "Deposited",
      "type": "event"
    },
    {
      "anonymous": false,
      "inputs": [],
      "name": "EIP712DomainChanged",
      "type": "event"
    },
    {
      "anonymous": false,
      "inputs": [
        {
          "indexed": false,
          "internalType": "uint64",
          "name": "version",
          "type": "uint64"
        }
      ],
      "name": "Initialized",
      "type": "event"
    },
    {
      "anonymous": false,
      "inputs": [
        {
          "indexed": true,
          "internalType": "address",
          "name": "user",
          "type": "address"
        },
        {
          "indexed": false,
          "internalType": "uint256",
          "name": "interestVolt",
          "type": "uint256"
        }
      ],
      "name": "InterestClaimed",
      "type": "event"
    },
    {
      "anonymous": false,
      "inputs": [
        {
          "indexed": true,
          "internalType": "address",
          "name": "user",
          "type": "address"
        },
        {
          "indexed": false,
          "internalType": "uint256",
          "name": "amount",
          "type": "uint256"
        },
        {
          "indexed": false,
          "internalType": "uint256",
          "name": "durationDays",
          "type": "uint256"
        },
        {
          "indexed": false,
          "internalType": "uint256",
          "name": "bonusAtUnlock",
          "type": "uint256"
        }
      ],
      "name": "Locked",
      "type": "event"
    },
    {
      "anonymous": false,
      "inputs": [
        {
          "indexed": true,
          "internalType": "address",
          "name": "previousOwner",
          "type": "address"
        },
        {
          "indexed": true,
          "internalType": "address",
          "name": "newOwner",
          "type": "address"
        }
      ],
      "name": "OwnershipTransferStarted",
      "type": "event"
    },
    {
      "anonymous": false,
      "inputs": [
        {
          "indexed": true,
          "internalType": "address",
          "name": "previousOwner",
          "type": "address"
        },
        {
          "indexed": true,
          "internalType": "address",
          "name": "newOwner",
          "type": "address"
        }
      ],
      "name": "OwnershipTransferred",
      "type": "event"
    },
    {
      "anonymous": false,
      "inputs": [],
      "name": "ParamsUpdated",
      "type": "event"
    },
    {
      "anonymous": false,
      "inputs": [
        {
          "indexed": false,
          "internalType": "address",
          "name": "account",
          "type": "address"
        }
      ],
      "name": "Paused",
      "type": "event"
    },
    {
      "anonymous": false,
      "inputs": [
        {
          "indexed": true,
          "internalType": "address",
          "name": "to",
          "type": "address"
        },
        {
          "indexed": false,
          "internalType": "uint256",
          "name": "level",
          "type": "uint256"
        },
        {
          "indexed": false,
          "internalType": "uint256",
          "name": "amount",
          "type": "uint256"
        }
      ],
      "name": "ReferralBonusPaid",
      "type": "event"
    },
    {
      "anonymous": false,
      "inputs": [
        {
          "indexed": true,
          "internalType": "address",
          "name": "referrer",
          "type": "address"
        },
        {
          "indexed": true,
          "internalType": "address",
          "name": "referee",
          "type": "address"
        },
        {
          "indexed": false,
          "internalType": "uint256",
          "name": "depositAmount",
          "type": "uint256"
        }
      ],
      "name": "Referred",
      "type": "event"
    },
    {
      "anonymous": false,
      "inputs": [
        {
          "indexed": true,
          "internalType": "address",
          "name": "user",
          "type": "address"
        },
        {
          "indexed": false,
          "internalType": "uint256",
          "name": "releasedAmount",
          "type": "uint256"
        },
        {
          "indexed": false,
          "internalType": "uint256",
          "name": "bonusReleased",
          "type": "uint256"
        }
      ],
      "name": "Unlocked",
      "type": "event"
    },
    {
      "anonymous": false,
      "inputs": [
        {
          "indexed": false,
          "internalType": "address",
          "name": "account",
          "type": "address"
        }
      ],
      "name": "Unpaused",
      "type": "event"
    },
    {
      "anonymous": false,
      "inputs": [
        {
          "indexed": true,
          "internalType": "address",
          "name": "implementation",
          "type": "address"
        }
      ],
      "name": "Upgraded",
      "type": "event"
    },
    {
      "anonymous": false,
      "inputs": [
        {
          "indexed": true,
          "internalType": "address",
          "name": "user",
          "type": "address"
        }
      ],
      "name": "Whitelisted",
      "type": "event"
    },
    {
      "anonymous": false,
      "inputs": [
        {
          "indexed": true,
          "internalType": "address",
          "name": "user",
          "type": "address"
        },
        {
          "indexed": false,
          "internalType": "uint256",
          "name": "voltBurned",
          "type": "uint256"
        },
        {
          "indexed": false,
          "internalType": "uint256",
          "name": "usdtSent",
          "type": "uint256"
        },
        {
          "indexed": false,
          "internalType": "uint256",
          "name": "feeBp",
          "type": "uint256"
        },
        {
          "indexed": false,
          "internalType": "bool",
          "name": "fullExit",
          "type": "bool"
        }
      ],
      "name": "Withdrawn",
      "type": "event"
    },
    {
      "inputs": [],
      "name": "BONUS_CAP_USDT",
      "outputs": [
        {
          "internalType": "uint256",
          "name": "",
          "type": "uint256"
        }
      ],
      "stateMutability": "view",
      "type": "function"
    },
    {
      "inputs": [],
      "name": "BP",
      "outputs": [
        {
          "internalType": "uint256",
          "name": "",
          "type": "uint256"
        }
      ],
      "stateMutability": "view",
      "type": "function"
    },
    {
      "inputs": [],
      "name": "FIVE_YEARS_DAYS",
      "outputs": [
        {
          "internalType": "uint256",
          "name": "",
          "type": "uint256"
        }
      ],
      "stateMutability": "view",
      "type": "function"
    },
    {
      "inputs": [],
      "name": "ONE_DAY",
      "outputs": [
        {
          "internalType": "uint256",
          "name": "",
          "type": "uint256"
        }
      ],
      "stateMutability": "view",
      "type": "function"
    },
    {
      "inputs": [],
      "name": "ONE_USDT",
      "outputs": [
        {
          "internalType": "uint256",
          "name": "",
          "type": "uint256"
        }
      ],
      "stateMutability": "view",
      "type": "function"
    },
    {
      "inputs": [],
      "name": "TIER1_MAX",
      "outputs": [
        {
          "internalType": "uint256",
          "name": "",
          "type": "uint256"
        }
      ],
      "stateMutability": "view",
      "type": "function"
    },
    {
      "inputs": [],
      "name": "TIER1_MIN",
      "outputs": [
        {
          "internalType": "uint256",
          "name": "",
          "type": "uint256"
        }
      ],
      "stateMutability": "view",
      "type": "function"
    },
    {
      "inputs": [],
      "name": "TIER2_MAX",
      "outputs": [
        {
          "internalType": "uint256",
          "name": "",
          "type": "uint256"
        }
      ],
      "stateMutability": "view",
      "type": "function"
    },
    {
      "inputs": [],
      "name": "TIER2_MIN",
      "outputs": [
        {
          "internalType": "uint256",
          "name": "",
          "type": "uint256"
        }
      ],
      "stateMutability": "view",
      "type": "function"
    },
    {
      "inputs": [],
      "name": "UPGRADE_INTERFACE_VERSION",
      "outputs": [
        {
          "internalType": "string",
          "name": "",
          "type": "string"
        }
      ],
      "stateMutability": "view",
      "type": "function"
    },
    {
      "inputs": [],
      "name": "YEAR_DAYS",
      "outputs": [
        {
          "internalType": "uint256",
          "name": "",
          "type": "uint256"
        }
      ],
      "stateMutability": "view",
      "type": "function"
    },
    {
      "inputs": [],
      "name": "acceptOwnership",
      "outputs": [],
      "stateMutability": "nonpayable",
      "type": "function"
    },
    {
      "inputs": [
        {
          "internalType": "address[]",
          "name": "users",
          "type": "address[]"
        }
      ],
      "name": "addToWhitelist",
      "outputs": [],
      "stateMutability": "nonpayable",
      "type": "function"
    },
    {
      "inputs": [
        {
          "internalType": "address",
          "name": "user",
          "type": "address"
        }
      ],
      "name": "adminClaimBonusForUser",
      "outputs": [],
      "stateMutability": "nonpayable",
      "type": "function"
    },
    {
      "inputs": [
        {
          "internalType": "uint256",
          "name": "amount",
          "type": "uint256"
        }
      ],
      "name": "adminDepositUSDT",
      "outputs": [],
      "stateMutability": "nonpayable",
      "type": "function"
    },
    {
      "inputs": [
        {
          "internalType": "address",
          "name": "from",
          "type": "address"
        },
        {
          "internalType": "address",
          "name": "to",
          "type": "address"
        },
        {
          "internalType": "uint256",
          "name": "amount",
          "type": "uint256"
        }
      ],
      "name": "adminTransferBonus",
      "outputs": [],
      "stateMutability": "nonpayable",
      "type": "function"
    },
    {
      "inputs": [
        {
          "internalType": "uint256",
          "name": "amount",
          "type": "uint256"
        }
      ],
      "name": "adminWithdrawUSDT",
      "outputs": [],
      "stateMutability": "nonpayable",
      "type": "function"
    },
    {
      "inputs": [
        {
          "internalType": "address",
          "name": "user",
          "type": "address"
        }
      ],
      "name": "balanceOfVolt",
      "outputs": [
        {
          "internalType": "uint256",
          "name": "",
          "type": "uint256"
        }
      ],
      "stateMutability": "view",
      "type": "function"
    },
    {
      "inputs": [],
      "name": "baseApyBp",
      "outputs": [
        {
          "internalType": "uint256",
          "name": "",
          "type": "uint256"
        }
      ],
      "stateMutability": "view",
      "type": "function"
    },
    {
      "inputs": [
        {
          "internalType": "address",
          "name": "",
          "type": "address"
        }
      ],
      "name": "bonusBalance",
      "outputs": [
        {
          "internalType": "uint256",
          "name": "",
          "type": "uint256"
        }
      ],
      "stateMutability": "view",
      "type": "function"
    },
    {
      "inputs": [
        {
          "internalType": "address",
          "name": "",
          "type": "address"
        }
      ],
      "name": "bonusVestingEnd",
      "outputs": [
        {
          "internalType": "uint256",
          "name": "",
          "type": "uint256"
        }
      ],
      "stateMutability": "view",
      "type": "function"
    },
    {
      "inputs": [
        {
          "internalType": "address",
          "name": "user",
          "type": "address"
        }
      ],
      "name": "calculateAccruedInterest",
      "outputs": [
        {
          "internalType": "uint256",
          "name": "",
          "type": "uint256"
        }
      ],
      "stateMutability": "view",
      "type": "function"
    },
    {
      "inputs": [
        {
          "internalType": "address",
          "name": "user",
          "type": "address"
        }
      ],
      "name": "canWithdrawBonus",
      "outputs": [
        {
          "internalType": "bool",
          "name": "",
          "type": "bool"
        }
      ],
      "stateMutability": "view",
      "type": "function"
    },
    {
      "inputs": [],
      "name": "claimAllVestedBonus",
      "outputs": [],
      "stateMutability": "nonpayable",
      "type": "function"
    },
    {
      "inputs": [],
      "name": "claimInterest",
      "outputs": [],
      "stateMutability": "nonpayable",
      "type": "function"
    },
    {
      "inputs": [
        {
          "internalType": "uint256",
          "name": "amount",
          "type": "uint256"
        },
        {
          "internalType": "address",
          "name": "referrer",
          "type": "address"
        },
        {
          "internalType": "uint8",
          "name": "v",
          "type": "uint8"
        },
        {
          "internalType": "bytes32",
          "name": "r",
          "type": "bytes32"
        },
        {
          "internalType": "bytes32",
          "name": "s",
          "type": "bytes32"
        }
      ],
      "name": "depositUSDT",
      "outputs": [],
      "stateMutability": "nonpayable",
      "type": "function"
    },
    {
      "inputs": [],
      "name": "eip712Domain",
      "outputs": [
        {
          "internalType": "bytes1",
          "name": "fields",
          "type": "bytes1"
        },
        {
          "internalType": "string",
          "name": "name",
          "type": "string"
        },
        {
          "internalType": "string",
          "name": "version",
          "type": "string"
        },
        {
          "internalType": "uint256",
          "name": "chainId",
          "type": "uint256"
        },
        {
          "internalType": "address",
          "name": "verifyingContract",
          "type": "address"
        },
        {
          "internalType": "bytes32",
          "name": "salt",
          "type": "bytes32"
        },
        {
          "internalType": "uint256[]",
          "name": "extensions",
          "type": "uint256[]"
        }
      ],
      "stateMutability": "view",
      "type": "function"
    },
    {
      "inputs": [],
      "name": "feeGte500Bp",
      "outputs": [
        {
          "internalType": "uint256",
          "name": "",
          "type": "uint256"
        }
      ],
      "stateMutability": "view",
      "type": "function"
    },
    {
      "inputs": [],
      "name": "feeLt500Bp",
      "outputs": [
        {
          "internalType": "uint256",
          "name": "",
          "type": "uint256"
        }
      ],
      "stateMutability": "view",
      "type": "function"
    },
    {
      "inputs": [
        {
          "internalType": "address",
          "name": "user",
          "type": "address"
        }
      ],
      "name": "getLockedAmount",
      "outputs": [
        {
          "internalType": "uint256",
          "name": "total",
          "type": "uint256"
        }
      ],
      "stateMutability": "view",
      "type": "function"
    },
    {
      "inputs": [
        {
          "internalType": "address",
          "name": "user",
          "type": "address"
        }
      ],
      "name": "getUserOverview",
      "outputs": [
        {
          "internalType": "bool",
          "name": "isWhitelisted",
          "type": "bool"
        },
        {
          "internalType": "address",
          "name": "referrer",
          "type": "address"
        },
        {
          "internalType": "uint256",
          "name": "availableVolt",
          "type": "uint256"
        },
        {
          "internalType": "uint256",
          "name": "lockedVolt",
          "type": "uint256"
        },
        {
          "internalType": "uint256",
          "name": "bonusBal",
          "type": "uint256"
        },
        {
          "internalType": "uint256",
          "name": "bonusEnd",
          "type": "uint256"
        },
        {
          "internalType": "uint256",
          "name": "accruedInterest",
          "type": "uint256"
        },
        {
          "internalType": "bool",
          "name": "deposited",
          "type": "bool"
        }
      ],
      "stateMutability": "view",
      "type": "function"
    },
    {
      "inputs": [
        {
          "internalType": "address",
          "name": "",
          "type": "address"
        }
      ],
      "name": "hasDeposited",
      "outputs": [
        {
          "internalType": "bool",
          "name": "",
          "type": "bool"
        }
      ],
      "stateMutability": "view",
      "type": "function"
    },
    {
      "inputs": [
        {
          "internalType": "address",
          "name": "",
          "type": "address"
        }
      ],
      "name": "hasReceivedFirstDepositBonus",
      "outputs": [
        {
          "internalType": "bool",
          "name": "",
          "type": "bool"
        }
      ],
      "stateMutability": "view",
      "type": "function"
    },
    {
      "inputs": [
        {
          "internalType": "address",
          "name": "usdt_",
          "type": "address"
        },
        {
          "internalType": "address",
          "name": "voltToken_",
          "type": "address"
        },
        {
          "internalType": "address",
          "name": "owner_",
          "type": "address"
        }
      ],
      "name": "initialize",
      "outputs": [],
      "stateMutability": "nonpayable",
      "type": "function"
    },
    {
      "inputs": [
        {
          "internalType": "address",
          "name": "",
          "type": "address"
        }
      ],
      "name": "lastAccrualTime",
      "outputs": [
        {
          "internalType": "uint256",
          "name": "",
          "type": "uint256"
        }
      ],
      "stateMutability": "view",
      "type": "function"
    },
    {
      "inputs": [
        {
          "internalType": "uint256",
          "name": "amount",
          "type": "uint256"
        },
        {
          "internalType": "uint256",
          "name": "durationDays",
          "type": "uint256"
        }
      ],
      "name": "lock",
      "outputs": [],
      "stateMutability": "nonpayable",
      "type": "function"
    },
    {
      "inputs": [
        {
          "internalType": "address",
          "name": "",
          "type": "address"
        },
        {
          "internalType": "uint256",
          "name": "",
          "type": "uint256"
        }
      ],
      "name": "locks",
      "outputs": [
        {
          "internalType": "uint256",
          "name": "amount",
          "type": "uint256"
        },
        {
          "internalType": "uint256",
          "name": "startTime",
          "type": "uint256"
        },
        {
          "internalType": "uint256",
          "name": "durationDays",
          "type": "uint256"
        },
        {
          "internalType": "uint256",
          "name": "multiplierBp",
          "type": "uint256"
        },
        {
          "internalType": "uint256",
          "name": "aprBp",
          "type": "uint256"
        },
        {
          "internalType": "uint256",
          "name": "bonusAtUnlock",
          "type": "uint256"
        },
        {
          "internalType": "bool",
          "name": "active",
          "type": "bool"
        }
      ],
      "stateMutability": "view",
      "type": "function"
    },
    {
      "inputs": [],
      "name": "minWithdrawUSDT",
      "outputs": [
        {
          "internalType": "uint256",
          "name": "",
          "type": "uint256"
        }
      ],
      "stateMutability": "view",
      "type": "function"
    },
    {
      "inputs": [],
      "name": "owner",
      "outputs": [
        {
          "internalType": "address",
          "name": "",
          "type": "address"
        }
      ],
      "stateMutability": "view",
      "type": "function"
    },
    {
      "inputs": [],
      "name": "paused",
      "outputs": [
        {
          "internalType": "bool",
          "name": "",
          "type": "bool"
        }
      ],
      "stateMutability": "view",
      "type": "function"
    },
    {
      "inputs": [],
      "name": "pendingOwner",
      "outputs": [
        {
          "internalType": "address",
          "name": "",
          "type": "address"
        }
      ],
      "stateMutability": "view",
      "type": "function"
    },
    {
      "inputs": [],
      "name": "proxiableUUID",
      "outputs": [
        {
          "internalType": "bytes32",
          "name": "",
          "type": "bytes32"
        }
      ],
      "stateMutability": "view",
      "type": "function"
    },
    {
      "inputs": [
        {
          "internalType": "uint256",
          "name": "",
          "type": "uint256"
        }
      ],
      "name": "refBp",
      "outputs": [
        {
          "internalType": "uint256",
          "name": "",
          "type": "uint256"
        }
      ],
      "stateMutability": "view",
      "type": "function"
    },
    {
      "inputs": [
        {
          "internalType": "address",
          "name": "",
          "type": "address"
        }
      ],
      "name": "referralNonce",
      "outputs": [
        {
          "internalType": "uint256",
          "name": "",
          "type": "uint256"
        }
      ],
      "stateMutability": "view",
      "type": "function"
    },
    {
      "inputs": [
        {
          "internalType": "address",
          "name": "",
          "type": "address"
        }
      ],
      "name": "referrerOf",
      "outputs": [
        {
          "internalType": "address",
          "name": "",
          "type": "address"
        }
      ],
      "stateMutability": "view",
      "type": "function"
    },
    {
      "inputs": [],
      "name": "renounceOwnership",
      "outputs": [],
      "stateMutability": "nonpayable",
      "type": "function"
    },
    {
      "inputs": [],
      "name": "totalBonusOutstanding",
      "outputs": [
        {
          "internalType": "uint256",
          "name": "",
          "type": "uint256"
        }
      ],
      "stateMutability": "view",
      "type": "function"
    },
    {
      "inputs": [],
      "name": "totalVoltBurned",
      "outputs": [
        {
          "internalType": "uint256",
          "name": "",
          "type": "uint256"
        }
      ],
      "stateMutability": "view",
      "type": "function"
    },
    {
      "inputs": [],
      "name": "totalVoltMinted",
      "outputs": [
        {
          "internalType": "uint256",
          "name": "",
          "type": "uint256"
        }
      ],
      "stateMutability": "view",
      "type": "function"
    },
    {
      "inputs": [
        {
          "internalType": "address",
          "name": "newOwner",
          "type": "address"
        }
      ],
      "name": "transferOwnership",
      "outputs": [],
      "stateMutability": "nonpayable",
      "type": "function"
    },
    {
      "inputs": [
        {
          "internalType": "uint256",
          "name": "lockIndex",
          "type": "uint256"
        }
      ],
      "name": "unlock",
      "outputs": [],
      "stateMutability": "nonpayable",
      "type": "function"
    },
    {
      "inputs": [
        {
          "internalType": "uint256",
          "name": "_baseApyBp",
          "type": "uint256"
        },
        {
          "internalType": "uint256",
          "name": "_minWithdrawUSDT",
          "type": "uint256"
        },
        {
          "internalType": "uint256",
          "name": "_feeLt500Bp",
          "type": "uint256"
        },
        {
          "internalType": "uint256",
          "name": "_feeGte500Bp",
          "type": "uint256"
        }
      ],
      "name": "updateParams",
      "outputs": [],
      "stateMutability": "nonpayable",
      "type": "function"
    },
    {
      "inputs": [
        {
          "internalType": "uint256[7]",
          "name": "newRefBp",
          "type": "uint256[7]"
        }
      ],
      "name": "updateReferralRewards",
      "outputs": [],
      "stateMutability": "nonpayable",
      "type": "function"
    },
    {
      "inputs": [
        {
          "internalType": "address",
          "name": "newImplementation",
          "type": "address"
        },
        {
          "internalType": "bytes",
          "name": "data",
          "type": "bytes"
        }
      ],
      "name": "upgradeToAndCall",
      "outputs": [],
      "stateMutability": "payable",
      "type": "function"
    },
    {
      "inputs": [],
      "name": "usdt",
      "outputs": [
        {
          "internalType": "contract IERC20",
          "name": "",
          "type": "address"
        }
      ],
      "stateMutability": "view",
      "type": "function"
    },
    {
      "inputs": [],
      "name": "volt",
      "outputs": [
        {
          "internalType": "contract IVoltToken",
          "name": "",
          "type": "address"
        }
      ],
      "stateMutability": "view",
      "type": "function"
    },
    {
      "inputs": [
        {
          "internalType": "address",
          "name": "",
          "type": "address"
        }
      ],
      "name": "whitelisted",
      "outputs": [
        {
          "internalType": "bool",
          "name": "",
          "type": "bool"
        }
      ],
      "stateMutability": "view",
      "type": "function"
    },
    {
      "inputs": [
        {
          "internalType": "uint256",
          "name": "voltAmount",
          "type": "uint256"
        },
        {
          "internalType": "bool",
          "name": "fullExit",
          "type": "bool"
        }
      ],
      "name": "withdrawUSDT",
      "outputs": [],
      "stateMutability": "nonpayable",
      "type": "function"
    }
  ],
  "bytecode": "0x60a08060405234620000d157306080527ff0c57e16840df040f15088dc2f81fe391c3923bec73e23a9662efc9c229c6a009081549060ff8260401c16620000c257506001600160401b036002600160401b0319828216016200007c575b60405161395e9081620000d78239608051818181611c5c0152611d5f0152f35b6001600160401b031990911681179091556040519081527fc7f505b2f371ae2175ee4913f4499e1f2633a7b5936321eed1cdaeb6115181d290602090a13880806200005c565b63f92ee8a960e01b8152600490fd5b600080fdfe608080604052600436101561001357600080fd5b60009060e08235811c9182630401a8fa14612d785750816304b5e87114612d4b5781631272f7b514612d2d5781631338736f14612a2d57816317607ad914612a04578163221b4a0214612967578163241a856e1461292e57816324a818291461282157816324ebae69146128025781632c42c9f5146121415781632cfb27c1146121245781632f48ab7d146120fd57816330ab6f761461208d57816335981fd814611f8b578163366a307f14611f4c57816343019b4114611f135781634f1ef28614611ce45781635023e46314611cc657816352d1902d14611c49578163552eec2f14611b975781635c975abb14611b555781635ecd37e214611b365781636198e3391461198a5781636860c192146117135781636e13019b146115f6578163710a7088146115d8578163715018a61461155657816374f17bf9146115325781637961954c1461151357816379ba5097146114bd5781637f64978314611355578163803039d91461133757816383d5eda51461131957816384b0196e146111a9578163863e76db1461118b5781638c74d6f4146111525781638da5cb5b1461111c57816391e3c47914611012578163929ec53714610fee5781639764cabd14610fd05781639cfdbd5e14610fb3578163ad3cb1cc14610f69578163b0557bf114610e46578163b298b77114610e0d578163b425f80214610d7257508063bd7feaf214610d52578063c0c53b8b146106aa578063d21cacdf1461066e578063d41a2aac14610650578063d6ef404614610624578063d936547e146105e5578063dca35e2d1461045a578063e30c397814610424578063e4bd07c414610405578063f2c16e6f146103c6578063f2fde38b1461033e578063f5aa5020146103215763f641e42f146102a157600080fd5b3461031e57602036600319011261031e576004356102bd6132dd565b801561030c5781547fcdddbc1ce8877a8b0991d6a01e5b9a0d0bbdce32d72797a5c7660679509acef091602091610302908290309033906001600160a01b03166132fe565b604051908152a180f35b6040516310eb483f60e21b8152600490fd5b80fd5b503461031e578060031936011261031e57602060405161016d8152f35b503461031e57602036600319011261031e57610358612dfe565b6103606132dd565b60008051602061390983398151915280546001600160a01b0319166001600160a01b039283169081179091556000805160206138c9833981519152549091167f38d16b8cac22d99fc7c124b9cd0de2d3fa1faef420bfe791d8c362d765e227008380a380f35b503461031e57602036600319011261031e5760209060ff906040906001600160a01b036103f1612dfe565b168152600884522054166040519015158152f35b503461031e578060031936011261031e57602060405163060523408152f35b503461031e578060031936011261031e57600080516020613909833981519152546040516001600160a01b039091168152602090f35b503461031e578060031936011261031e57610473613270565b61047b6132a0565b33815260206006815260ff604083205416156105d35733825260148152604082205480159081156105c9575b506105b7573382526013815260408220549081156105a55733835260138152826040812055601481528260408120556104e282601254612eeb565b60125560015483906001600160a01b0316803b156105a1576040516340c10f1960e01b8152336004820152602481018590529082908290604490829084905af180156105965761057e575b50507f4e69fdc49495bcab2b4375781457ba16653a90eb4ffb6588351bdc39071433e29061055d83601054612ede565b6010556040519283523392a260016000805160206138e98339815191525580f35b61058790612d94565b61059257823861052d565b8280fd5b6040513d84823e3d90fd5b5080fd5b60405163cb5e241b60e01b8152600490fd5b60405163437e486760e01b8152600490fd5b90504210386104a7565b604051630b094f2760e31b8152600490fd5b503461031e57602036600319011261031e5760209060ff906040906001600160a01b03610610612dfe565b168152600684522054166040519015158152f35b503461031e57602036600319011261031e576020610648610643612dfe565b61308a565b604051908152f35b503461031e578060031936011261031e576020600254604051908152f35b503461031e57602036600319011261031e576020906001600160a01b039060409082610698612dfe565b16815260078452205416604051908152f35b503461031e57606036600319011261031e576106c4612dfe565b6106cc612e14565b604435916001600160a01b0383168303610d4d577ff0c57e16840df040f15088dc2f81fe391c3923bec73e23a9662efc9c229c6a00918254916001600160401b03831680159081610d3d575b6001149081610d33575b159081610d2a575b50610d185760016001600160401b0319841617845560ff8360401c1615610cf9575b610754613755565b61075c613755565b6001600160a01b03851615610ce05761077485613399565b61077c613755565b610784613755565b61078c613755565b60016000805160206138e9833981519152556107a6613755565b6107ae613755565b6040516107ba81612dc2565b600c81526b566f6c74506c6174666f726d60a01b6020820152604051906107e082612dc2565b60018252603160f81b60208301526107f6613755565b6107fe613755565b8051906001600160401b038211610ccc5781906108296000805160206138a983398151915254613407565b601f8111610c71575b50602090601f8311600114610bcf578a92610bc4575b50508160011b916000199060031b1c1916176000805160206138a9833981519152555b80516001600160401b038111610bb057807fa16a46d94261c7517cc8ff89f61c0ce93598e3c849801011dee649a6a557d103926108a88454613407565b601f8111610b58575b50602090601f8311600114610ad7578a92610acc575b50508160011b916000199060031b1c19161790555b7fa16a46d94261c7517cc8ff89f61c0ce93598e3c849801011dee649a6a557d1008690557fa16a46d94261c7517cc8ff89f61c0ce93598e3c849801011dee649a6a557d1018690556001600160a01b03169081158015610abb575b610aa9576bffffffffffffffffffffffff60a01b918287541617865560018060a01b03168160015416176001556102586002556308f0d1806003556103e8806004556101f4806005556040519161098d83612da7565b8252602082015260c860408201526064606082015260326080820152601960a0820152600a60c0820152855b60078110610a905750506001600160a01b03939093168085526006602090815260408087208054600160ff1991821681179092556007845282892080549098168517909755600883528188208054909716179095556015905283852042905592519260ff91907faab7954e9d246b167ef88aeddad35209ca2489d95a8aeb59e288d9b19fae5a548680a260401c1615610a50578280f35b805468ff000000000000000019169055600181527fc7f505b2f371ae2175ee4913f4499e1f2633a7b5936321eed1cdaeb6115181d290602090a138808280f35b600190602061ffff8451169301928160090155016109b9565b60405163e6c4247b60e01b8152600490fd5b506001600160a01b03811615610937565b0151905038806108c7565b848b527f5f9ce34815f8e11431c7bb75a8e6886a91478f7ffc1dbb0a98dc240fddd76b759250601f1984168b5b818110610b405750908460019594939210610b27575b505050811b0190556108dc565b015160001960f88460031b161c19169055388080610b1a565b92936020600181928786015181550195019301610b04565b610ba090858c527f5f9ce34815f8e11431c7bb75a8e6886a91478f7ffc1dbb0a98dc240fddd76b75601f850160051c81019160208610610ba6575b601f0160051c0190612f0b565b386108b1565b9091508190610b93565b634e487b7160e01b88526041600452602488fd5b015190503880610848565b92506000805160206138a98339815191528a527f42ad5d3e1f2e6e70edcf6d991b8a3023d3fca8047a131592f9edb9fd9b89d57d908a935b601f1984168510610c56576001945083601f19811610610c3d575b505050811b016000805160206138a98339815191525561086b565b015160001960f88460031b161c19169055388080610c22565b81810151835560209485019460019093019290910190610c07565b610cc6906000805160206138a98339815191528c527f42ad5d3e1f2e6e70edcf6d991b8a3023d3fca8047a131592f9edb9fd9b89d57d601f850160051c81019160208610610ba657601f0160051c0190612f0b565b38610832565b634e487b7160e01b89526041600452602489fd5b604051631e4fbdf760e01b815260048101879052602490fd5b68ffffffffffffffffff1983166801000000000000000117845561074c565b60405163f92ee8a960e01b8152600490fd5b9050153861072a565b303b159150610722565b604085901c60ff16159150610718565b600080fd5b503461031e578060031936011261031e5760206040516402540be4008152f35b9050346105a15760403660031901126105a157610d8d612dfe565b6001600160a01b0316825260186020526040822080546024359190821015610e095790610db991612e85565b508054906001810154906002810154600382015460048301549160ff600660058601549501541694604051968752602087015260408601526060850152608084015260a0830152151560c0820152f35b8380fd5b823461031e57602036600319011261031e576020906040906001600160a01b03610e35612dfe565b168152601383522054604051908152f35b823461031e57608036600319011261031e57606435604435602435600435610e6c6132dd565b6127108111610f35578115610f0257611388808411159081610ef7575b5015610ec2576002556003556004556005557f4e5005547c24dfd12003c2845fd20f2071c49fa3cd30b0be7a064e3f4c3f8d2a8180a180f35b60405162461bcd60e51b815260206004820152600d60248201526c08ccacae640e8dede40d0d2ced609b1b6044820152606490fd5b905084111586610e89565b60405162461bcd60e51b815260206004820152600b60248201526a24b73b30b634b21036b4b760a91b6044820152606490fd5b60405162461bcd60e51b815260206004820152600c60248201526b082a0b240e8dede40d0d2ced60a31b6044820152606490fd5b823461031e578060031936011261031e57610faf604051610f8981612dc2565b60058152640352e302e360dc1b6020820152604051918291602083526020830190612e45565b0390f35b823461031e578060031936011261031e5760206040516127108152f35b823461031e578060031936011261031e576020600454604051908152f35b823461031e57602036600319011261031e57602061064861100d612dfe565b61301f565b823461031e57602036600319011261031e5761102c612dfe565b6110346132dd565b6001600160a01b0381811680845260136020526040842054909290919082156105a55784918483526013602052826040812055601460205282604081205561107e84601254612eeb565b60125560015416803b15610592576040516340c10f1960e01b81526001600160a01b039290921660048301526024820184905282908290604490829084905af1801561059657611108575b50506020816110fb7fbf7f4ce048510f7136da3dcf4031409f09d9a069fb46f061891fcb35610c305293601054612ede565b601055604051908152a280f35b61111190612d94565b6105925782846110c9565b823461031e578060031936011261031e576000805160206138c9833981519152546040516001600160a01b039091168152602090f35b823461031e57602036600319011261031e576020906040906001600160a01b0361117a612dfe565b168152601483522054604051908152f35b823461031e578060031936011261031e576020604051620151808152f35b823461031e578060031936011261031e577fa16a46d94261c7517cc8ff89f61c0ce93598e3c849801011dee649a6a557d1005415806112f0575b156112b3576111f0613441565b906111f9613517565b6040519160209160208401948486106001600160401b0387111761129d579492602061125388969386604052858552611245604051998a99600f60f81b8b5280868c01528a0190612e45565b9088820360408a0152612e45565b924660608801523060808801528460a088015286840360c088015251928381520193925b82811061128657505050500390f35b835185528695509381019392810192600101611277565b634e487b7160e01b600052604160045260246000fd5b60405162461bcd60e51b81526020600482015260156024820152741152540dcc4c8e88155b9a5b9a5d1a585b1a5e9959605a1b6044820152606490fd5b507fa16a46d94261c7517cc8ff89f61c0ce93598e3c849801011dee649a6a557d10154156111e3565b823461031e578060031936011261031e576020601154604051908152f35b823461031e578060031936011261031e576020604051620f42408152f35b823461031e576020806003193601126105a157600435906001600160401b03808311610e095736602384011215610e09578260040135908111610e095760246005933660248460051b830101116114b9576113ae6132dd565b82156114a75793929190859486945b8386106113fd578787806113cf575080f35b60207fae041f9d923f738569780d6c09f095346e691e527852a2698cdb3f51389f36fe91604051908152a180f35b9091929394958387831b8401013560018060a01b0381168091036114a3578015801561148e575b6114845760019181611477928b526006895260408b208460ff19825416179055601589524260408c20557faab7954e9d246b167ef88aeddad35209ca2489d95a8aeb59e288d9b19fae5a548b80a2612f22565b965b0194939291906113bd565b5095600190611479565b508089526006875260ff60408a205416611424565b8880fd5b60405163521299a960e01b8152600490fd5b8580fd5b823461031e578060031936011261031e5760008051602061390983398151915254336001600160a01b03909116036114fb576114f833613399565b80f35b60405163118cdaa760e01b8152336004820152602490fd5b823461031e578060031936011261031e5760206040516302faf0808152f35b823461031e57602036600319011261031e576020610648611551612dfe565b612f61565b823461031e578060031936011261031e5761156f6132dd565b60008051602061390983398151915280546001600160a01b03199081169091556000805160206138c9833981519152805491821690556000906001600160a01b03167f8be0079c531659141344cd1fd0a4f28419497f9722a3daafe3b4186f6b6457e08280a380f35b823461031e578060031936011261031e576020600354604051908152f35b823461031e576020806003193601126105a157600435906116156132dd565b811561030c5761162a60105460115490612eeb565b83546040516370a0823160e01b81523060048201526001600160a01b039492918516918482602481865afa9182156117085787926116d9575b50808211918215926116c6575b50506116b45781610302917ffe3b13defe989ae4f834e0b20b5a1ceb1eeeac592820020fdb22ebd8382dfd2f956000805160206138c9833981519152541690613358565b60405163bb55fd2760e01b8152600490fd5b6116d09250612eeb565b82118680611670565b9091508481813d8311611701575b6116f18183612ddd565b81010312610d4d57519087611663565b503d6116e7565b6040513d89823e3d90fd5b823461031e57604036600319011261031e5760043560243580151590818103610e095761173e613270565b6117466132a0565b3384526020906006825260ff604086205416156105d357600354841061197857831561030c578080611967575b61195557631dcd650084101561194c57600454915b61179f6127106117988588612ef8565b0486612eeb565b86546040516370a0823160e01b81523060048201529193916001600160a01b039184908290602490829086165afa80156119415785918a91611910575b50106116b457878160015416803b156105a157604051632770a7eb60e21b8152336004820152602481018a9052919081908390604490829084905af19182156119035786926118e8575b50506118459161183889601154612ede565b60115533908a5416613358565b806118d4575b61189e575b604051948552840152604083015260608201527f55845e77d150a6bb68cdbcd26c664b9cc5d8e36485c3c1685d0abafbe0c7fb6260803392a260016000805160206138e98339815191525580f35b338652601381526118b56040872054601254612eeb565b6012553386526013815285604081205560148152856040812055611850565b50338652601381526040862054151561184b565b6118f3919250612d94565b6118ff5783888a611826565b8780fd5b50604051903d90823e3d90fd5b809250858092503d831161193a575b6119298183612ddd565b81010312610d4d578490518a6117dc565b503d61191f565b6040513d8b823e3d90fd5b60055491611788565b60405163b120add560e01b8152600490fd5b506119713361301f565b1515611773565b6040516336633d3760e01b8152600490fd5b823461031e57602036600319011261031e576004356119a7613270565b6119af6132a0565b338252600660205260ff604083205416156105d35733825260186020526040822054811015611b24576119ed90338352601860205260408320612e85565b50600681019060ff82541615611b245760018101546002820154906201518091828102928184041490151715611b105790611a2791612ede565b4210611afe57611a3f60058254920191825490612ede565b60015490929084906001600160a01b0316803b156105a1576040516340c10f1960e01b8152336004820152602481018690529082908290604490829084905af1801561059657611aea575b5050611a9883601054612ede565b60105560ff1981541690555460405191825260208201527f3f2f29fa02cc34566ac167b446be0be9e0254cac18eda93b2dfe6a7a7c8affb960403392a260016000805160206138e98339815191525580f35b611af390612d94565b610e09578385611a8a565b604051639225b94160e01b8152600490fd5b634e487b7160e01b85526011600452602485fd5b60405163162908e360e11b8152600490fd5b823461031e578060031936011261031e576020604051631dcd65008152f35b823461031e578060031936011261031e57602060ff7fcd5ed15c6e187e77e9aee88184c21f4f2182ab5827cb3b7e07fbedcd63f0330054166040519015158152f35b823461031e57602091826003193601126105a15761010092611bb7612dfe565b9260018060a01b0393848116918281526006845260ff6040822054169560078552604082205416611be783612f61565b611bf08461301f565b918584526013875260ff6040808620549560148a52611c12828220549861308a565b98815260088a52205416966040519915158a5289015260408801526060870152608086015260a085015260c0840152151590820152f35b823461031e578060031936011261031e577f00000000000000000000000000000000000000000000000000000000000000006001600160a01b03163003611cb45760206040517f360894a13ba1a3210667c828492db98dca3e2076cc3735a920a3ca505d382bbc8152f35b60405163703e46dd60e11b8152600490fd5b823461031e578060031936011261031e576020601054604051908152f35b82604036600319011261031e57611cf9612dfe565b60249182356001600160401b0381116105a157366023820112156105a157806004013592611d2684612e2a565b611d336040519182612ddd565b84815260209485820193368883830101116114b957818692898993018737830101526001600160a01b037f00000000000000000000000000000000000000000000000000000000000000008116308114908115611ee5575b50611cb457611d986132dd565b6040516352d1902d60e01b81529083169580826004818a5afa9182918793611eb5575b5050611dd957604051634c9c8ce360e01b8152600481018790528790fd5b8590877f360894a13ba1a3210667c828492db98dca3e2076cc3735a920a3ca505d382bbc91828103611ea05750843b15611e8a575080546001600160a01b031916821790556040518592917fbc7cd75a20ee27fd9adebab32041f755214dbc6bffa90cc0225b39da2e5c2d3b8480a2815115611e6d5750611e699382915190845af4611e63612f31565b91613845565b5080f35b935050505034611e7b575080f35b63b398979f60e01b8152600490fd5b604051634c9c8ce360e01b815260048101849052fd5b60405190632a87526960e21b82526004820152fd5b9080929350813d8311611ede575b611ecd8183612ddd565b810103126114b95751908880611dbb565b503d611ec3565b9050817f360894a13ba1a3210667c828492db98dca3e2076cc3735a920a3ca505d382bbc5416141588611d8b565b823461031e57602036600319011261031e576020906040906001600160a01b03611f3b612dfe565b168152601783522054604051908152f35b823461031e57602036600319011261031e5760209060ff906040906001600160a01b03611f77612dfe565b168152601684522054166040519015158152f35b823461031e578060031936011261031e57611fa4613270565b611fac6132a0565b338152600660205260ff604082205416156105d357611fca3361308a565b801561030c5733825260156020526040822042905560015482906001600160a01b0316803b156105a1576040516340c10f1960e01b8152336004820152602481018490529082908290604490829084905af1801561059657612079575b505061203581601054612ede565b6010556040519081527ff9984c8173c4b4ff9cc454f76ed19c053f4490ccb224fd9ddffeb4ef4bea353060203392a260016000805160206138e98339815191525580f35b61208290612d94565b6105a1578183612027565b823461031e57602036600319011261031e576020906001600160a01b036120b2612dfe565b168152601382526040812054151590816120eb575b816120d8575b506040519015158152f35b60409150601483522054421015826120cd565b601483526040812054151591506120c7565b823461031e578060031936011261031e57546040516001600160a01b039091168152602090f35b823461031e578060031936011261031e5760206040516107218152f35b823461031e5760a036600319011261031e5760043561215e612e14565b906044359160ff9081841684036127fe57612177613270565b61217f6132a0565b3385526020926006845282604087205416156105d357801561030c5733865260089460088552836040882054161590879382806127ec575b612594575b505086546001600160a01b0394906121db9084903090339089166132fe565b6001968588541692833b15612590576040516340c10f1960e01b815233600482015260248101869052938a9081908690604490829084905af1948515611903578a95612577575b505061223085601054612ede565b601055338a526015885260408a2080541561256e575b508080612560575b61247d575b6122a4575b505050604051938185528401521660408201527fa49637e3f6491de6c2c23c5006bef69df603d0dba9d65c8b756fe46ac29810b960603392a26000805160206138e98339815191525580f35b3389526008875260408920805460ff19168417905584861615612258579091600792600788528660408b2054168a925b6122e3575b5050879250612258565b8785841091828093612472575b1561246b571690818c52848a528260408d2054161561245157156124575782600901548015612451576123266127109188612ef8565b04801561245157601261233a828254612ede565b9055818c5260138a5260408c20612352828254612ede565b9055818c526014808b528a8d6040812054801590811561243f575b50612424575b50508b850180861161241057604084938f8f9a99989796948f918491877fcde26b6c1d41ca6bac61dbeb22cd10ae77793295ba83e40e4496c6e6d88c51e6847fd892abcb003ebe0b554a5787058bf9ea75eab7e70ddb3fc1dc0ee2335ec3bfbc9981519081528888820152a287825283522054908351928352820152a28b528389526124058860408d20541692612f22565b9293949190916122d4565b634e487b7160e01b8e52601160045260248efd5b6040908361243142612eb7565b938783525220558a8d612373565b905061244a42612eb7565b113861236d565b506122d9565b634e487b7160e01b8b52603260045260248bfd5b50506122d9565b5081811615156122f0565b6016885260408a20805460ff1916851790556305f5e100851161253f576124a88360035b1686612ef8565b6402540be400908181111561253857505b806124c5575b50612253565b6124d181601254612ede565b601255338b526013895260408b206124ea828254612ede565b90556124f542612eb7565b338c5260148a528060408d2055604051918252898201527fd892abcb003ebe0b554a5787058bf9ea75eab7e70ddb3fc1dc0ee2335ec3bfbc60403392a28a6124bf565b90506124b9565b631dcd65008511612555576124a88360056124a1565b6124a883600a6124a1565b506302faf08085101561224e565b4290558a612246565b61258391929550612d94565b6114a3578792898b612222565b8980fd5b6001600160a01b03808216955090913386146127b657338a526017885260408a20549060405191898301907f5867dff058da09194022813984e1a90539901039466f1cb10f0d3da4cd8890be825233604085015260608401526060835260808301926001600160401b03938181108582111761129d5760405251902090612619613796565b90612622613800565b90604051918c8301937f8b73c3c69bb8fe3d512ecc4cf759cc79239f7b179b0ffacaa9a75d522b39400f8552604084015260608301524660808301523060a083015260a0825260c08201948286109086111761129d5784869460e26126ad946126b6968e996040528151902061190160f01b855260c2820152015260843591604260643592206135d8565b90929192613668565b16036127da57848952600687528560408a2054161580156127c8575b6127b657338952600790600788528060408b2054166127a4578991835b818410612768575b5050505033885260178652604088206127108154612f22565b90553388526007865260408820846bffffffffffffffffffffffff60a01b82541617905592604051908382527fb2b62c7418475f601c89a2f8de70e27613387343dfde61d4166e06424bfef0f5873393a387806121bc565b8216801561279f5733811461278d578b5280895260018260408d2054169301926126ef565b604051638f6f861160e01b8152600490fd5b6126f7565b604051637aabdfe360e01b8152600490fd5b604051630c22084560e31b8152600490fd5b50600887528560408a205416156126d2565b604051638baa579f60e01b8152600490fd5b506001600160a01b03811615156121b7565b8480fd5b823461031e578060031936011261031e5760206040516305f5e1008152f35b823461031e57606036600319011261031e5761283b612dfe565b612843612e14565b90604435916128506132dd565b6001600160a01b039182169182158015612924575b610aa9578285526020906013825284604087205410611b24577fdd911d7db63f7ada09bf90b92383f79307c341a86527d6ad1740c28a8366e9d79284875260138352604087206128b6878254612eeb565b9055169384865260138252604086206128d0828254612ede565b90558486526014825260408620541561290f575b83865260138252604086205415612900575b604051908152a380f35b601482528560408120556128f6565b838652604086205485875260408720556128e4565b5080821615612865565b823461031e57602036600319011261031e576020906040906001600160a01b03612956612dfe565b168152601583522054604051908152f35b9050346105a15736600319011261031e57366023121561031e5760405161298d81612da7565b60e481368211610e09576004905b8282106129f4575050506129ad6132dd565b815b600781106129df57827f4e5005547c24dfd12003c2845fd20f2071c49fa3cd30b0be7a064e3f4c3f8d2a8180a180f35b600190602083519301928160090155016129af565b813581526020918201910161299b565b823461031e578060031936011261031e576001546040516001600160a01b039091168152602090f35b823461031e57604036600319011261031e5760243590600435612a4e613270565b612a566132a0565b338252600660205260ff604083205416156105d357801561030c57602d8314808015612d23575b8015612d19575b8015612d0e575b8015612d03575b15612cf1578015612cb657612af8935b61ffff9485169115612c7b576096945b6001546001600160a01b0316803b156114b957604051632770a7eb60e21b8152336004820152602481018690529086908290604490829084905af18015612c7057612c5d575b50612b0584601154612ede565b60115561270f198301838111612c4957612b226127109186612ef8565b04923386526018602052604086209160405197612b3e89612da7565b868952602089019242845260408a019286845260608b0191825260808b019216825260a08a019287845260c08b01956001875280549068010000000000000000821015612c355790612b9591600182018155612e85565b959095612c21576006969798999a9b518655516001860155516002850155516003840155516004830155516005820155019051151560ff80198354169116179055604051928352602083015260408201527f44cebfefa4561bee5b61d675ccfd8dc9969fff9cc15e7a4eccccd62af94f9c1160603392a260016000805160206138e98339815191525580f35b634e487b7160e01b8b5260048b905260248bfd5b634e487b7160e01b8c52604160045260248cfd5b634e487b7160e01b86526011600452602486fd5b612c6990959195612d94565b9386612af8565b6040513d88823e3d90fd5b605a8103612c8d5761015e5b94612ab2565b60b48103612c9d57610320612c87565b61016d8103612cae57610708612c87565b612710612c87565b605a8403612cc857612ee05b93612aa2565b60b48403612cd8576136b0612cc2565b61016d8403612ce957615208612cc2565b61c350612cc2565b604051637616640160e01b8152600490fd5b506104478414612a92565b5061016d8414612a8b565b5060b48414612a84565b50605a8414612a7d565b823461031e578060031936011261031e576020600554604051908152f35b823461031e57602036600319011261031e5760043560078110156105a15760209060090154604051908152f35b8390346105a157816003193601126105a1576020906012548152f35b6001600160401b03811161129d57604052565b60e081019081106001600160401b0382111761129d57604052565b604081019081106001600160401b0382111761129d57604052565b90601f801991011681019081106001600160401b0382111761129d57604052565b600435906001600160a01b0382168203610d4d57565b602435906001600160a01b0382168203610d4d57565b6001600160401b03811161129d57601f01601f191660200190565b919082519283825260005b848110612e71575050826000602080949584010152601f8019910116010190565b602081830181015184830182015201612e50565b8054821015612ea1576000526007602060002091020190600090565b634e487b7160e01b600052603260045260246000fd5b9063096601808201809211612ec857565b634e487b7160e01b600052601160045260246000fd5b91908201809211612ec857565b91908203918211612ec857565b81810292918115918404141715612ec857565b818110612f16575050565b60008155600101612f0b565b6000198114612ec85760010190565b3d15612f5c573d90612f4282612e2a565b91612f506040519384612ddd565b82523d6000602084013e565b606090565b6001546040516370a0823160e01b602082019081526001600160a01b0393841660248084019190915282529092606084019216906001600160401b0383118484101761129d57600093849360405251915afa612fbb612f31565b9080613013575b15612fdb57602081805181010312610d4d576020015190565b60405162461bcd60e51b815260206004820152601060248201526f18985b185b98d953d98819985a5b195960821b6044820152606490fd5b50602081511015612fc2565b6001600160a01b03166000908152601860205260408120805491929190835b82811061304a57505050565b60ff60066130588385612e85565b50015416613069575b60010161303e565b9361308260019161307a8785612e85565b505490612ede565b949050613061565b60009061309681612f61565b80151580613265575b61320c575b506001600160a01b031660008181526013602052604090205480151580613201575b6131a1575b50600052601860205260406000206000908054905b8183106130ed5750505090565b9091926130fa8483612e85565b5060ff600682015416158015613195575b61318a576001918282015460028301546201518090818102918183041490151715612ec8576131799361316d828461314c6131729564496cebb80097612ede565b4210156131835761315e915042612eeb565b915b6004815491015490612ef8565b612ef8565b0490612ede565b9301915b906130e0565b5091613160565b50926001019161317d565b5060048101541561310b565b9164496cebb8006131726131e99394601560205260406000205480156000146131fc5750425b8042116000146131f0576131de61316d9142612eeb565b915b60025490612ef8565b90386130cb565b5061316d6000916131e0565b6131c7565b5060025415156130c6565b6001600160a01b038216835260156020526040832054919264496cebb80092613251929161316d91806132605750425b804211600014613259576131de915042612eeb565b0490386130a4565b50916131e0565b61323c565b50600254151561309f565b6000805160206138e9833981519152600281541461328e5760029055565b604051633ee5aeb560e01b8152600490fd5b60ff7fcd5ed15c6e187e77e9aee88184c21f4f2182ab5827cb3b7e07fbedcd63f0330054166132cb57565b60405163d93c066560e01b8152600490fd5b6000805160206138c9833981519152546001600160a01b031633036114fb57565b6040516323b872dd60e01b60208201526001600160a01b03928316602482015292909116604483015260648083019390935291815260a08101918183106001600160401b0384111761129d57613356926040526136ed565b565b60405163a9059cbb60e01b60208201526001600160a01b0392909216602483015260448083019390935291815261335691613394606483612ddd565b6136ed565b60008051602061390983398151915280546001600160a01b03199081169091556000805160206138c983398151915280549182166001600160a01b0393841690811790915591167f8be0079c531659141344cd1fd0a4f28419497f9722a3daafe3b4186f6b6457e0600080a3565b90600182811c92168015613437575b602083101461342157565b634e487b7160e01b600052602260045260246000fd5b91607f1691613416565b604051906000826000805160206138a98339815191529182549261346484613407565b808452936020916001918281169081156134f15750600114613490575b50505061335692500383612ddd565b60009081527f42ad5d3e1f2e6e70edcf6d991b8a3023d3fca8047a131592f9edb9fd9b89d57d9590935091905b8284106134d95750613356945050508101602001388080613481565b855488850183015294850194879450928101926134bd565b925050506020925061335694915060ff191682840152151560051b820101388080613481565b604051906000827fa16a46d94261c7517cc8ff89f61c0ce93598e3c849801011dee649a6a557d1039182549261354c84613407565b808452936020916001918281169081156134f157506001146135775750505061335692500383612ddd565b60009081527f5f9ce34815f8e11431c7bb75a8e6886a91478f7ffc1dbb0a98dc240fddd76b759590935091905b8284106135c05750613356945050508101602001388080613481565b855488850183015294850194879450928101926135a4565b91907f7fffffffffffffffffffffffffffffff5d576e7357a4501ddfe92f46681b20a0841161365c57926020929160ff608095604051948552168484015260408301526060820152600092839182805260015afa156136505780516001600160a01b0381161561364757918190565b50809160019190565b604051903d90823e3d90fd5b50505060009160039190565b60048110156136d7578061367a575050565b600181036136945760405163f645eedf60e01b8152600490fd5b600281036136b55760405163fce698f760e01b815260048101839052602490fd5b6003146136bf5750565b602490604051906335e2f38360e21b82526004820152fd5b634e487b7160e01b600052602160045260246000fd5b906000602091828151910182855af115613749576000513d61374057506001600160a01b0381163b155b61371e5750565b604051635274afe760e01b81526001600160a01b039091166004820152602490fd5b60011415613717565b6040513d6000823e3d90fd5b60ff7ff0c57e16840df040f15088dc2f81fe391c3923bec73e23a9662efc9c229c6a005460401c161561378457565b604051631afcd79f60e31b8152600490fd5b61379e613441565b80519081156137ae576020012090565b50507fa16a46d94261c7517cc8ff89f61c0ce93598e3c849801011dee649a6a557d1005480156137db5790565b507fc5d2460186f7233c927e7db2dcc703c0e500b653ca82273b7bfad8045d85a47090565b613808613517565b8051908115613818576020012090565b50507fa16a46d94261c7517cc8ff89f61c0ce93598e3c849801011dee649a6a557d1015480156137db5790565b9061386c575080511561385a57602081519101fd5b60405163d6bda27560e01b8152600490fd5b8151158061389f575b61387d575090565b604051639996b31560e01b81526001600160a01b039091166004820152602490fd5b50803b1561387556fea16a46d94261c7517cc8ff89f61c0ce93598e3c849801011dee649a6a557d1029016d09d72d40fdae2fd8ceac6b6234c7706214fd39c1cd1e609a0528c1993009b779b17422d0df92223018b32b4d1fa46e071723d6817e2486d003becc55f00237e158222e3e6968b72b9db0d8043aacf074ad9f650f0d1606b4d82ee432c00a26469706673582212201bf3597b9c8eb9f297861d75845200fdb26d2c9cec99cd0da3956fba6dc2fb3664736f6c63430008180033",
  "linkReferences": {},
  "deployedLinkReferences": {}
}